:100000000C9472030C94B9030C94B9030C94B903C7
:100010000C94B9030C94B9030C94B9030C94B90370
:100020000C94B9030C94B9030C9456280C942A2907
:100030000C94BA220C94B9030C94B9030C94B90330
:100040000C94B9030C94B9030C94B9030C94B90340
:100050000C94B9030C9411230C94B9030C94B903B8
:100060000C94B9030C94B9030C94B9030C94B90320
:100070000C94B9030C94B9030C94B9030C94B90310
:100080000C94B9030C94B9030C94B9030C94B90300
:100090000C94B9030C94B9030C94B9030C94B903F0
:1000A0000C94B9030C94B9030C94B90329001400FF
:1000B0001A000800150017001C0018000C001200A0
:1000C00013002A0000002400250026002B00040055
:1000D0001600070009000A000B000D000E000F00BB
:1000E000000028000000210022002300E1001D0084
:1000F0001B0006001900050011001000360000006A
:100100000000370052001E001F002000E000E20047
:1001100001512C0000002A0002510000E000000004
:100120000000500051004F00270053002900140028
:100130001A000800150017001C0018000C002F0002
:1001400030004C0000002400250026002B00350064
:100150002D002E0009000A000B000D000E003400D7
:10016000000033000000210022002300E1001D00F8
:100170001B000600190005001100100038000000E7
:100180000000310052001E001F002000E000E200CD
:1001900001002C0000002A0001000000E000000027
:1001A0000000500051004F002700530029003A0082
:1001B0003B003C003D003E003F004000410042004B
:1001C000430044000000C35CC45CC75C03530400EC
:1001D0001600070009000A000B000D000E000F00BA
:1001E000000028000000C55CC65CC85CE1001D0082
:1001F0001B00060019000500110010003700000068
:10020000000037005200C95CCA5C2000E000E20038
:1002100001002C0000002A0001000000E0000000A6
:100220000000500051004F002700C25C0100010097
:1002300001000100010001000100010001000100B6
:1002400001000100000001000100010001000100A7
:100250000100010001000100010001000100010096
:100260000000010000000100010001000100010088
:100270000100010001000100010001000100000077
:100280000000010001000100010001000100010067
:100290000100010000000100010000000100000059
:1002A0000000010001000100010001000000000049
:1002B000000000002A2B28000000000000000000C1
:1002C0000000000000000029000000002C1E342067
:1002D000212224342627252E362D3738271E1F208D
:1002E0002122232425263333362E37381F040506D2
:1002F0000708090A0B0C0D0E0F1011121314151616
:100300001718191A1B1C1D2F3130232D3504050613
:100310000708090A0B0C0D0E0F10111213141516F5
:100320001718191A1B1C1D2F3130354C0000000006
:1003300000000000000000000000000000000000BD
:100340007E0F00D4FFFFFFC70000007832190A00BB
:10035000047F3F1F643214643214783C1E1E140A5A
:10036000052223252628292A2C2D2F3032333536F5
:10037000383A3B3D3E4042434547494A4C4E505136
:10038000535557595A5C5E6062646668696B6D6F5D
:1003900071737577797B7D7F81838587898A8C8E60
:1003A00090929496989A9C9E9FA1A3A5A7A8AAAC68
:1003B000AEAFB1B3B4B6B8B9BBBCBEBFC1C2C3C5A2
:1003C000C6C7C9CACBCCCDCED0D1D2D2D3D4D5D644
:1003D000D7D7D8D9D9DADADBDBDBDCDCDCDCDCDD77
:1003E000DDDDDDDCDCDCDCDCDBDBDBDADAD9D9D85B
:1003F000D7D7D6D5D4D3D2D2D1D0CECDCCCBCAC9F3
:10040000C7C6C5C3C2C1BFBEBCBBB9B8B6B4B3B121
:10041000AFAEACAAA8A7A5A3A19F9E9C9A989694BC
:1004200092908E8C8A89878583817F7D7B79777591
:1004300073716F6D6B6968666462605E5C5A595770
:10044000555351504E4C4A4947454342403E3D3B2F
:100450003A3836353332302F2D2C2A2928262523B9
:1004600022FFAA7F554000010101010101010101A4
:100470000202020202020202020303030303030355
:100480000304040404040404050505050506060622
:100490000606070707070708080808090909090ADF
:1004A0000A0A0B0B0B0C0C0C0D0D0D0E0E0E0F0F84
:1004B0000F10101111111212131314141515161612
:1004C0001717181819191A1A1B1B1C1D1D1E1E1F81
:1004D0002020212222232424252626272829292AD0
:1004E0002B2C2D2D2E2F30313232333435363738F8
:1004F000393A3B3C3D3E3F404142434445464748F4
:10050000494A4C4D4E4F50515354555658595A5BC9
:100510005D5E5F616264656668696B6C6D6F707269
:10052000737577787A7B7D7E8082838587888A8CD5
:100530008E8F91939596989A9C9EA0A2A3A5A7A909
:10054000ABADAFB1B3B5B7BABCBEC0C2C4C6C9CB00
:10055000CDCFD1D4D6D8DBDDDFE2E4E7E9EBEEF0B6
:10056000F3F5F8FAFDFF0403300000001C0343001C
:1005700068006F0063006F006C006100740065002C
:100580002000420061007200000018034D00690065
:1005900073006F006E006F0057006F0072006B00F9
:1005A000730000000403090409025B00030100A0BA
:1005B000FA090400000103010100092111010001F1
:1005C0002240000705810308000A09040100020314
:1005D0000000000921110100012222000705820309
:1005E00020000107050303200001090402000103A4
:1005F000000000092111010001226D00070584039C
:1006000020000A1201100100000008EDFE56C4018E
:1006100000010203010660FF0961A10109621500E2
:1006200026FF009520750881020963150026FF004A
:10063000952075089102C005010980A10185031963
:10064000012AB700150126B700950175108100C079
:10065000050C0901A101850419012AA00215012632
:10066000A002950175108100C005010906A1018550
:1006700005050719E029E715002501950875018191
:10068000020507190029EF1500250195F075018174
:100690000205081901290595057501910295017555
:1006A000039101C005010906A101050719E029E729
:1006B00015002501950875018102950175088101D4
:1006C0000507190029FF150026FF0095067508810A
:1006D0000005081901290595057501910295017517
:1006E000039101C011241FBECFEFDAE0DEBFCDBF02
:1006F00004B603FE27C08091300390913103A0918E
:100700003203B09133038730904BA740B04BD1F404
:10071000109230031092310310923203109233037F
:1007200014BE84B7877F84BF0FB6F894A8958091D4
:100730006000886180936000109260000FBEE0E06E
:10074000F8E3099511E0A0E0B1E0EEE3F9E502C0BD
:1007500005900D92A43DB107D9F723E0A4EDB1E0D7
:1007600001C01D92A033B207E1F70E941B250C9433
:100770004E2C0C94000081E0089581E008950C94C3
:10078000BD0308950C94C1031F93CF93DF9300D052
:1007900000D00F92CDB7DEB749835A836B83309177
:1007A000320289819A8131111DC06623B9F022235A
:1007B000A9F00E94BB1F182F682F89819A810E947F
:1007C000681F69817A81812F0F900F900F900F9091
:1007D0000F90DF91CF911F910C941F130E94941FD3
:1007E000182FEFCF0E94BB1F69817A81EDCFFC01EA
:1007F000262F408151816281738184810C94C403CE
:10080000CF93DF93EC0160E00E94F703BE01DF911C
:10081000CF910C94C203FF920F931F93CF93DF935A
:10082000E82FF0E0E455FD4FF490C82FC695C6952B
:10083000C695D0E0FE01E45CFC4F0491877010E0A7
:10084000082E02C0159507950A94E2F7017011274A
:10085000C45DDC4FFE01C491D0E002C0D595C795C0
:100860008A95E2F7C170DD270115110519F081EEB7
:100870000E947617209719F086EE0E9476178F2D2A
:100880000E944F18CD2B19F086EE0E940018012B04
:1008900041F081EEDF91CF911F910F91FF900C9469
:1008A0000018DF91CF911F910F91FF900895EF9263
:1008B000FF920F931F93CF93DF93EC01162F0AE063
:1008C0008881882309F454C0813009F04EC08981A1
:1008D000813099F47E0122E0E20EF11C8A810E94AF
:1008E0004F18E7012196812F815050F3EFE9FFE087
:1008F0003197F1F700C00000F7CF823041F47E015C
:1009000082E0E80EF11C8A810E947617EACF8330DC
:1009100041F47E01E2E0EE0EF11C8A810E94001893
:10092000E0CF843011F02196DDCF2A81229690E02D
:1009300080E0AE014F5F5F4F2053330B2A3031050B
:1009400048F0019778F2EFE9FFE03197F1F700C046
:100950000000F7CF089FB001099F700D1124C90155
:10096000860F971F2981EA01E4CF0E940B04BACFBA
:10097000DF91CF911F910F91FF90EF90089560E06C
:100980000C9457048F929F92AF92BF92CF92DF92B6
:10099000EF92FF920F931F936B017C0181E090E037
:1009A000A0E0B0E04C015D0104C0880C991CAA1CB9
:1009B000BB1C4A95D2F7B501A4014C015D0104C0EE
:1009C000880C991CAA1CBB1C2A95D2F748295929C6
:1009D0006A297B2904C0880F991FAA1FBB1F0A958B
:1009E000D2F78A019B010C211D212E213F210417E2
:1009F00015072607370789F48C299D29AE29BF29B9
:100A0000BC01CD011F910F91FF90EF90DF90CF902F
:100A1000BF90AF909F908F90089580959095A095EE
:100A2000B0958C219D21AE21BF21EACF0F93382FA5
:100A3000262F60919302709194028091950290917B
:100A40009602042F432F0E94C2040F910C94A61EFD
:100A50000E945B230E940521811102C00E94A221F5
:100A60000C948E070C94910708950E94CF1A0E944F
:100A700034052FEF84E39CE0215080409040E1F763
:100A800000C000000C9435230F931F93CF93DF9386
:100A9000EC0161E00E94F7038C01BE010E94F3109B
:100AA000882389F1BE01C8010E94BF03882359F140
:100AB000BE01C8010E947514882329F1BE01C80136
:100AC0000E94C7148823F9F0BE01C8010E94EA15EC
:100AD0008823C9F0BE01C8010E940010882399F044
:100AE0008A81882339F001158CE5180751F00E3DF5
:100AF0001C4579F0CE01DF91CF911F910F910C949D
:100B0000BB030E94350580E0DF91CF911F910F91CB
:100B100008950E94A221F7CF08950C948C0581E0DE
:100B200008950C948F05CF93C82F0E948D058C2FAC
:100B3000CF910C94910590E080E008950895FC0118
:100B4000EE0FFF1FE45BFC4F859194910895CF93C6
:100B5000DF930E941F130E94B306EC01811520E56C
:100B6000920708F041C0811530E4930708F0B4C043
:100B7000803E910518F5803C910508F09DC0883AAB
:100B8000910570F4853A910508F08EC08130910589
:100B9000F9F00097E9F00497D8F4D0E0C0E018C06D
:100BA0008F3B9105D0F7C85AD0E0CC0FDD1FCC5D4C
:100BB000DE4F0990D881C02DD4640AC081159042BF
:100BC00058F4C11581E0D80718F4C83ED10528F7BC
:100BD000CE01DF91CF910895C11590E3D90708F0B8
:100BE00071C0CE019F706AC0811525E5920758F546
:100BF000811534E5930708F09EC0811542E59407FE
:100C000050F4C11581E5D80708F469C0DC2FCC2762
:100C1000C16FD06ADDCF982F969596959E0123706F
:100C20003327C115D34508F077C0C1E0D0E002C03A
:100C3000CC0FDD1F2A95E2F720E2929FC00111241C
:100C4000C82BD92B67C0C11589E5D807A8F4C115F1
:100C500098E5D90708F074C0C11526E5D20708F059
:100C60009CCF8C2F0E944A07C82FD0E0DC2FCC27C6
:100C7000CC27DF71D062ACCFC1153AE5D30708F4B9
:100C800064C0CE0190568115904208F086CF8D2F1A
:100C90008F710E944A0790E0982F882788279F71BC
:100CA0009C012C2BE901E6CFC55AD0E0CE5ADE4F8D
:100CB000C881D0E0D0648CCF805C91090E949F05F0
:100CC000EC0186CFCE019927D3FF03C0EC01D86C8D
:100CD0007FCFEC01D06C7CCFDF70D06A79CFCE01B2
:100CE000E4E096958795EA95E1F783702C2F269599
:100CF0002695237090E2299F90011124382B8C2F88
:100D00008370C1E0D0E002C0CC0FDD1F8A95E2F70E
:100D1000C22BD32BDC685CCFC1E0D0E002C0CC0F8B
:100D2000DD1F2A95E2F730E2939FC0011124C82B02
:100D3000D92BDA684DCFD82FCC27C46FD06A48CFD3
:100D4000DC2FCC27C06FD06A43CF8C2F8F700E94CE
:100D50004A0734E0D695C7953A95E1F7CF709C2FB6
:100D6000EC01D06935CF82389105B1F1B0F481330F
:100D7000910509F475C048F48932910509F469C0F8
:100D80008A32910509F473C008958533910509F4F9
:100D900059C08933910501F10895833E9105A9F168
:100DA00038F4803E9105F9F0823E910549F10895AD
:100DB000863E9105A9F1873E9105C9F1843E9105D2
:100DC00019F52091220321FF1FC08091210384FD8A
:100DD00014C087EE90E00895209121032370A1F0C4
:100DE00080EE90E008952091210320FD47C03091CE
:100DF000220330FF09C024FF44C090E080E004C01B
:100E00002091210322FDF7CF08952091210322FD97
:100E10003BC03091220330FDE3CF24FFF5CFEDCF6F
:100E20002091210323FFF0CF24FDE7CFD2CF2091E3
:100E3000210323FD2CC03091220331FFEECF84EE3D
:100E400090E008952091210325FFDECF89E290E014
:100E500008952091210325FFD7CF85E390E00895E1
:100E60002091210326FFD0CF8AE290E008952091BF
:100E7000210326FFC9CF81E390E0089589E390E044
:100E8000089583EE90E0089582EE90E0089586EE56
:100E900090E008959091210392FF06C0282F2871B9
:100EA0002830F9F4877F846093FF06C0282F2871CB
:100EB0002831F1F4877E84612091220320FF06C04F
:100EC000382F38713830D9F4877F816021FF06C010
:100ED000282F28712831D1F4877E816194FD877E87
:100EE0000895282F24712430F9F68B7F8860DCCF99
:100EF000282F2471243101F78B7E8861DDCF382FB4
:100F00003171313019F78E7F8860E0CF282F217141
:100F1000213121F78E7E8861E1CF08950C948D07F1
:100F200008950C949007E82FF0E0EE0FFF1FE451B6
:100F3000FD4F808191810895089580EA8A95F1F7A7
:100F40000895CF93DF93A5E6B1E049E651E0C1E013
:100F5000D0E08D91E82FE295EF70F0E061A18F7005
:100F60009E0101C0220F8A95EAF7922F9095962351
:100F700091A382A1822B82A34A175B0751F7A5E5B3
:100F8000B1E045E651E0C1E0D0E08D91E82FE29577
:100F9000EF70F0E061A18F709E0101C0220F8A9571
:100FA000EAF7922F9095962391A382A1822B82A398
:100FB0004A175B0751F71092E5021092E402109273
:100FC000ED021092EC021092E7021092E6021092EB
:100FD000EF021092EE021092E9021092E8021092D3
:100FE000F1021092F0021092EB021092EA021092BB
:100FF000F3021092F20284E00E948908DF91CF91FF
:101000000C9428058F929F92AF92BF92CF92DF925D
:10101000EF92FF920F931F93CF93DF9385E6E82E15
:1010200081E0F82E04EE12E0912CAA24A394B12CB6
:10103000F70181917F01C82FC295CF70D0E099A1AF
:101040008F70650101C0CC0C8A95EAF7892F8C2935
:1010500089A38AA18C2C809488218AA30E949D0751
:10106000E5E5F1E050E040E030E020E06191A62FBE
:10107000A295AF70B0E090968C9190E06F7002C036
:10108000959587956A95E2F780FD3EC0C501042ECF
:1010900002C0880F991F0A94E2F7282B392B4F5F63
:1010A0005F4F4031510511F789A1882289A28AA199
:1010B000C82ACAA2F801808191812817390739F11D
:1010C0003183208381E0982A0E5F1F4FF9E6EF16E7
:1010D000F1E0FF0609F0ACCF292D44E06CEE72E0A0
:1010E00084EE92E00E948A080E943205892DDF91E9
:1010F000CF911F910F91FF90EF90DF90CF90BF9015
:10110000AF909F908F90089590E080E0C6CF80E0F0
:10111000DACF0895FF920F931F93CF93DF93F82EAA
:10112000092F162FD72FC42F222349F081E0809357
:10113000D6010E94EA229093D5018093D401809138
:10114000D6018823A1F08091D4019091D5010E940D
:101150000223069760F0EF2DF02FA12FBD2F90E016
:1011600080E0D0E08C179D0744F01092D601DF910B
:10117000CF911F910F91FF900895219131912D935F
:101180003D930196EFCFEF92FF920F931F93CF9372
:10119000DF93EB01E82FD11110C0442321F0F0E0E0
:1011A000EA59FB4FE4916E2F7E2F8E2FDF91CF9166
:1011B0001F910F91FF90EF9008950D2F10E0282FB1
:1011C00030E0442329F02A593B4FF901249130E0C3
:1011D000F6E0CF9FC0011124EFEFF0E0BF010E94C5
:1011E000F62AAB018C2F90E0880F991FA5E5A49FEC
:1011F000B001A59F700D1124861B970B982F990F96
:10120000980FBF01601B710B629FD001639FB00DEF
:10121000729FB00D11248B2F9D9FB0011124672F59
:101220007727EF01C61BD70BBE01629FE001639FCA
:10123000D00D729FD00D11247F01E91AF108E09EB4
:10124000B001E19E700DF09E700D1124672F77277D
:10125000E61BF70BE29F8001E39F100DF29F100D3C
:101260001124E12F722F4230510599F048F44115B5
:10127000510569F04130510581F0EB2F8D2F07C0EA
:101280004430510569F080F046305105B1F76E2FBA
:101290008DCFE22F7B2F812FFACFE22F7D2FF7CF3B
:1012A000EB2F822F712FF3CF7B2F822FED2FEFCFDC
:1012B00041E00C94C3080895CF93DF93762FE901A2
:1012C000682F842F0E945809798368838A83DF916D
:1012D000CF9108958091F402982F9E7F29F4817018
:1012E00082608093F40208958635E8F38170846506
:1012F000F8CF88E090E00C94EF2BCF92DF92EF9242
:10130000FF926B017C010E946A09B701A60188E087
:1013100090E0FF90EF90DF90CF900C940D2C6091B7
:10132000F4027091F5028091F6029091F7020C940C
:101330007D09E4EFF2E083E0808311828FEF828306
:101340008383148260817181828193810C947D09F1
:101350008091F40280FF02C08695089580E0089590
:101360009091F802933018F49F5F9093F8028823CD
:1013700051F06091F4027091F5028091F602909123
:10138000F7020C947D09089581E00C94B0099091C6
:10139000F802992319F091509093F802882351F0A4
:1013A0006091F4027091F5028091F6029091F7023B
:1013B0000C947D09089581E00C94C7098091F8028E
:1013C00008958093F802662351F06091F4027091C1
:1013D000F5028091F6029091F7020C947D09089530
:1013E00060E00C94E1098091F50208958091F60285
:1013F00008958091F702089570E00C947010609148
:1014000008018091F40280FF0AC08091070123E067
:10141000829FC001112487509D4F0C94FC0980913C
:10142000090190910A0123E0829FF0011124E75005
:10143000FD4F891750F71182108212828F5F339609
:10144000F8CF9091F40290FF14C09091090120917F
:101450000A0133E0939FF0011124E750FD4F9217EA
:1014600010F00C94FF098183608342839F5F339661
:10147000F6CF0895CF93DF9300D00F92CDB7DEB7AC
:101480009091F40290FF0AC09E012F5F3F4F0E948F
:101490005C094B8169818A810E94210A0F900F901B
:1014A0000F90DF91CF910895CF93DF93EC01EC8102
:1014B000F0E0EF59FC4F4491E4EFF2E0628181816A
:1014C0000E943A0A8C818F5F8C83DF91CF910895BF
:1014D000CF93DF93EC01E4EFF2E0438162818C81F2
:1014E0000E943A0A8C818F5F8C83DF91CF9108959F
:1014F0000F931F93CF93DF9300D00F92CDB7DEB73A
:101500008C018091D70181110AC09E012F5F3F4F4E
:101510004FEF6FEF0E945C098A818093D701F80139
:101520006481613069F08091D70140E0662361F009
:1015300040E0623011F44091D70180E060E004C0E7
:101540006091D70140E080E00E94210AF801848187
:1015500090E0019663E070E00E940A2B84830F9074
:101560000F900F90DF91CF911F910F910895AF923F
:10157000BF92CF92DF92EF92FF920F931F93CF9380
:10158000DF9300D00F92CDB7DEB7182FF62E042FC1
:10159000E22E9091F40290FF29C0E92FE695AE2F3C
:1015A000B0E0A759BE4F8C9180931D029E7F923070
:1015B00059F59E012F5F3F4F812F0E945C094B819F
:1015C00069818A810E94210A1093F502F092F60245
:1015D0000093F702EE2051F06091F4027091F50251
:1015E0008091F6029091F7020E947D090F900F9072
:1015F0000F90DF91CF911F910F91FF90EF90DF90AF
:10160000CF90BF90AF900895823019F40091F70207
:10161000DBCF863019F41091F502D6CF8930D9F39B
:10162000893191F6E9518E2F8170D82EE695F0E040
:10163000EF59FB4FA590B490C12CBB2460910B01D6
:10164000C61618F00E94FF09BFCF2C2D30E0A29ED5
:10165000C001A39E900DB29E900D112470E00E94D7
:10166000F62A812FD11013C0860F40910901420F35
:10167000532F511D9A01220F331F240F351F27505E
:101680003D4F402F6F2D0E945C09C394D7CF861B1E
:10169000ECCFE4EFF2E09181282F4381628188E072
:1016A000890F0C94B70A81E00C94490BE4EFF2E047
:1016B0009181282F4381628188EF890F0C94B70AAA
:1016C00081E00C94560BE4EFF2E0628121E1620FBD
:1016D00008F46FEF282F438181810C94B70A81E0D1
:1016E0000C94630BE4EFF2E0628121E1621B08F4E9
:1016F00060E0282F438181810C94B70A81E00C942B
:10170000720BE4EFF2E0438121E1420F08F44FEF66
:10171000282F628181810C94B70A81E00C94810B9F
:10172000E4EFF2E0438121E1421B08F440E0282F7E
:10173000628181810C94B70A81E00C94900B20E0C7
:101740000C94B70AEF92FF921F93CF93DF93EC01B3
:1017500010E0EE24EA94F12C60910B01161770F062
:101760000E94FF099A818C8190FF27C08F5F8C8334
:10177000DF91CF911F91FF90EF9008952091090183
:10178000422F410F5527551FCA019A01220F331FBF
:10179000280F391F27503D4F70E0C7010E940A2BC8
:1017A000962F8C814091F7026091F602199F800D6F
:1017B00011240E945C091F5FCFCF8150D8CFAF9218
:1017C000BF92CF92DF92EF92FF920F931F93CF932E
:1017D000DF93FC0182810FEF80FF01E010E04CE01D
:1017E000A42E80910B011817C8F00E94FF09809168
:1017F000D901013009F055C0811102C080910B015F
:1018000081508093D901DF91CF911F910F91FF906B
:10181000EF90DF90CF90BF90AF900895C0910901F5
:10182000C12ED12CCC0DDD2DD11DCE01880F991FDD
:10183000C80FD91FC750DD4F198218821A8234E0B1
:10184000E32EF12CB12C8091D9018B0D8D301CF140
:101850006A2D0E94E82A892F082E000C990BC816C1
:10186000D90691F48091F7028E9DA0018F9D500DB5
:10187000112455954795559547959E016091F6021F
:101880008091F5020E945C09B00EF1E0EF1AF108B8
:10189000D1F61F5FA6CF87FFDFCF90910B01890F95
:1018A000DBCF90E0019660910B0170E00E940A2B63
:1018B000A8CF0F931F93CF93DF938091090190914D
:1018C0000A0123E0829FF0011124E750FD4F8917A0
:1018D00040F1C0E0D3E060910B01C61740F10E94D7
:1018E000FF09209105018091D801820F8093D801D2
:1018F00090910601920F90930601191654F4082E48
:10190000000C990B40910B014150550B8417950722
:101910001CF0219520930501DF91CF911F910F912C
:1019200008951182108212828F5F3396D0CF0C2FD0
:1019300010E070E0C8010E940A2B20910901820F7B
:10194000482F50E02091D801022E000C330B0217D3
:101950001307BCF020910601022E000C330B201758
:1019600031077CF08D9F9001112427503D4F40910D
:10197000F7026091F6028091F5020E945C09CF5F48
:10198000AACFFA01EE0FFF1FE40FF51FE750FD4F3E
:10199000118210821282F3CF8F929F92AF92BF92E8
:1019A000CF92DF92EF92FF920F931F93CF93DF932B
:1019B000EC014C81042F10E09801D8010E94552BB6
:1019C0009B01AC010E946B2B4B015C01E0E2F0E05B
:1019D000E01BF10BA5E5B0E0AC019B010E946B2B75
:1019E0006B017C019F01DF010E944D2B9B01AC012B
:1019F0000E94762B9B01AC01280D391D4A1D5B1DF1
:101A0000C701B6010E941E2BF22E822F90E039E210
:101A10003F1560F143E0249F9001112435952795EF
:101A2000122F109500E085E5E82EEF1880910B014C
:101A3000081758F10E94FF099C8181E0992319F051
:101A4000903219F48FEF8093040180910401890F83
:101A50008C83DF91CF911F910F91FF90EF90DF90DA
:101A6000CF90BF90AF909F908F90089525E530E084
:101A7000B901681B790B9B01220F331F260F371FFB
:101A800037FFCCCF2F5F3F4FC9CF8E2D01FD8F2D5C
:101A900020910901622F600F7727771F9B01220F8A
:101AA000331F260F371F27503D4F412F6091F602FD
:101AB0000E945C090F5FBACF0F931F93CF93DF9300
:101AC000EC0110E000E090910B019017110609F075
:101AD0006CF40E94FF098C8190E001968170992737
:101AE0008C83DF91CF911F910F910895209109016F
:101AF000A801420F511D9A01220F331F240F351FD9
:101B000027503D4F4C816091F6028091F5029695E9
:101B10009017110651F04CF0442349F04091F70220
:101B20000E945C090F5F1F4FCECF4423B9F340E002
:101B3000F7CF8F929F92AF92BF92CF92DF92EF92A8
:101B4000FF920F931F93CF93DF93FC01B280948099
:101B500081E0848300E015E05BE4A52E8824839473
:101B6000EE24EA94F12C7BE4C72ED12C80910B015A
:101B7000081770F0DF91CF911F910F91FF90EF90B8
:101B8000DF90CF90BF90AF909F908F900C94FF0903
:101B9000C02FD0E01C9FF0011D9FF00D1124E652D4
:101BA000FE4F91101CC01382128220910901CE01B8
:101BB000820F911D9C01220F331F280F391F2750C0
:101BC0003D4F1C9FF0011D9FF00D1124E652FE4F6A
:101BD0004281618180810E945C090F5FC7CF2381B0
:101BE000222379F12150238334818A2D821B3111E4
:101BF00001C0822F1C9FF0011D9FF00D1124E652A1
:101C0000FE4F9091F702899FC0011124B6010E94F6
:101C1000F62A6283211104C0332311F01482A382B7
:101C200022E02B1510F21C9FF0011D9FF00D1124D6
:101C3000E652FE4F8091F50280838091F602818307
:101C4000B4CF0E94CA2B823091400CF0AECF82E01C
:101C50008B1530F50E94CA2BB7010E940A2B1C9FDE
:101C6000F0011D9FF00D1124E652FE4F808322E00B
:101C70002B15C8F40E94CA2B2091F6022695622FDC
:101C800070E00E940A2B280F1C9FF0011D9FF00D91
:101C90001124E652FE4F21831282A382848285CFD3
:101CA0008091F502DCCF2091F602EECFE4EFF2E076
:101CB00080818E7F808360817181828193810E9487
:101CC0007D0910921E022FEF80E792E021508040A4
:101CD0009040E1F700C000000C94FF09E4EFF2E04F
:101CE00080818E7F808310921E022FEF80E792E02A
:101CF000215080409040E1F700C000000C94FF09A3
:101D00006091F402669570E04BE050E08CE091E069
:101D10000E94DA2B892B19F481E080931E020E9425
:101D2000EA22909317028093160208959091F4028C
:101D300090FF35C09170811128C092609093F40299
:101D4000662351F06091F4027091F5028091F602E1
:101D50009091F7020E947D096091F402669570E00F
:101D60004BE050E08CE091E00E94DA2B892BA1F04F
:101D700010921E0281E0809319024091F702609157
:101D8000F6028091F5020C949F0B8B3210F0946553
:101D9000D5CF880F982BD2CF0E94800EEBCF08951D
:101DA000682F9091F402969581E0890F8B3208F0AC
:101DB00081E00C94960E81E00C94D00E682F9091E7
:101DC000F40296958FEF890F09F48AE20C94960E2F
:101DD00081E00C94DE0E61E00C94960EE4EFF2E0EC
:101DE00080818160808386950C94EB0E8091F40253
:101DF00080FD0C94560E0C94EE0E60E00C94960E42
:101E000080911C0281112EC00E940521811104C005
:101E10000E94A2210E9499090E9479096093F4020C
:101E20007093F5028093F6029093F7026E7F61F44F
:101E30000E9499090E9479096093F4027093F50257
:101E40008093F6029093F7020E946A0910921E0294
:101E50008091F40280FF03C086950E94FD0E81E010
:101E600080931C020895E4EFF2E08081816080831A
:101E700086950C94FD0E0F931F93CF93DF93809163
:101E80001E02882309F49DC080911D02E091F40296
:101E9000E695E81BE09318028230C9F5F0E0E35ABA
:101EA000FC4FE491CE2FD0E004E51AE080911902B6
:101EB000882389F0109219020E94EA229E0120953F
:101EC0003095820F931F9093170280931602109201
:101ED0001B0210921A0280911602909117020E9422
:101EE00002238C179D0708F46CC0E0911602F09154
:101EF0001702CE0FDF1FD0931702C093160286E1A0
:101F000092E0F801DF91CF911F910F9109948630F3
:101F100049F4F0E0E65AFC4FE491CE2FD0E008E619
:101F20001AE0C4CF893051F4E695F0E0E95AFC4F4D
:101F3000E491CE2FD0E002EA1BE0B8CF8F3051F40D
:101F4000E695F0E0EC5AFC4FE491CE2FD0E00FED97
:101F50001BE0ACCF853149F4F0E0EF5AFC4FE4913F
:101F6000CE2FD0E009E51CE0A1CFC8E2D0E00CEC18
:101F70001CE0883109F49ACF833239F4EFE4F3E0BE
:101F8000C591D49108E71AE091CFC4EFD1E00CE5F8
:101F90001DE0843209F48ACFC0EDD7E00BE519E0EB
:101FA000853209F083CF8E2F63E00E94DC2AE92F6F
:101FB000F0E0E45BFC4FE491CE2FD0E009E91DE0B6
:101FC00075CFDF91CF911F910F910895FA01811183
:101FD00001C0FB010994CF93DF93C82FD62F0E9435
:101FE000A8098C1740F00E94A8098D1720F4DF91F2
:101FF000CF910C94DB0E8C2FDF91CF910C94EB0ED4
:102000000F931F93CF938C01FB01C281CC2309F462
:1020100065C00E9450208272F801E25CFC45E43108
:10202000F10538F4E05BF34D0C94402B0E94F60E62
:10203000C0E08C2FCF911F910F91089548EE5EE084
:102040006BED7EE00E94E60FF3CF4BED5EE068EEB5
:102050007EE0F8CF40E65BE063E57BE0F3CF43E56D
:102060005BE060E67BE0EECF4EE75BE06FE67BE0B7
:10207000E9CF4FE65BE06EE77BE0E4CF4CE95BE065
:102080006DE87BE0DFCF4DE85BE06CE97BE0DACF29
:102090004BED59E064EC79E0D5CF44EC59E06BEDC1
:1020A00079E0D0CF81E00E94EB0EC2CF65E082E004
:1020B0000E94EB0FBDCF68E086E0FACF6EE089E0CA
:1020C000F7CF64E18FE0F4CF67E185E1F1CF88E1FC
:1020D000EACF62E289E1ECCF83E2E5CFC1E0A9CFAC
:1020E000219A45B14D7F55B15260EFB7F8949B01ED
:1020F000220F331F260F371F280F391F28173907C4
:1021000041F4EFBF8FE594E00197F1F700C00000C4
:102110000895DC016D91CD0178E055B9000000C053
:1021200067FF45B9660F000000C000C000C045B998
:1021300000C07A9591F7E2CF82E290E00E94E72B0F
:10214000803289F483E290E00E94E72B813159F4D8
:1021500084E290E00E94E72B91E0803309F090E068
:10216000892F8170089580E0FCCFCF93C82F6FEF47
:10217000811160E282E290E00E94FB2B6FEFC111BF
:1021800061E183E290E00E94FB2B6FEFC11160E3FD
:1021900084E290E0CF910C94FB2B80E00E94B5107C
:1021A0000C94FF20089585E290E00E94E72B682FB1
:1021B00070E090E080E0089585E290E00C94FB2BC5
:1021C0000E94D2100E949C1081110CC060E070E04F
:1021D000CB010E94DC100E9497120E94831381E0C1
:1021E0000C94B5100895CF93FB01C281CC2309F163
:1021F0009C0122513F452031310520F582510E943A
:102200009313C0E08C2FCF91089581E00E94CC1EE3
:1022100043E062E081E00E941605F3CF81E00E9476
:10222000ED1E43E062E081E00E941605EBCF82E004
:10223000F6CF8031FFE59F0789F381319F45B9F3E0
:10224000C1E0E0CF8031EFE59E07F9F281319F4593
:10225000C9F682E0DBCF2FEFFC0120830895CF93F6
:10226000DF93EC0188818138A9F028F4803871F07F
:10227000DF91CF910895823881F08338C9F70E94A9
:10228000F30989830E94F6098A83F2CF0E94F90933
:102290008983EECF0E94A809FBCF0E94DE09F8CF08
:1022A000CF93DF93EC0188818138E1F028F4803806
:1022B00069F0DF91CF910895823811F18338C9F721
:1022C0000E94F909482F6A81898108C0D9810E943A
:1022D000F609C82F0E94F3094D2F6C2FDF91CF9183
:1022E0000C949F0B89810E94FD0E8981811104C08D
:1022F000DF91CF910C946E0EDF91CF910C94330F40
:102300008981DF91CF910C94F009EF92FF920F93A6
:102310001F93CF93DF93EC01062FDC01ED91CD01EC
:10232000E150E33108F0BFC0F0E0EC59F34D0C94FC
:10233000402B198289E08A83602FCE01DF91CF91F3
:102340001F910F91FF90EF900C940F2489818230A0
:1023500069F0833071F08130D9F40E94F6220E9436
:10236000462B6A837B838C839D83E6CF0E94D310A8
:10237000F6CF7E0110E0812F0E949307F701928330
:1023800083831F5FF2E0EF0EF11C1430A1F7D4CF6E
:10239000602FCE010E942B11CFCF89818230C1F7EF
:1023A0006A817B818C819D810E94462B0E94DC107A
:1023B000C3CF4B816A8189810E946912982789273E
:1023C00098279D838C83B8CF2C813D81322723278A
:1023D00032274B816A8189810E948212ADCF0E948F
:1023E0009712AACF0E945011A7CF0E942F11A4CFFD
:1023F0000E948F09A1CF0E942C1389839DCF0E9438
:102400002E139827892798279A83898395CF6B81E4
:1024100070E089819A81AE014C5F5F4F98278927D0
:1024200098270E94311388CF6B8170E089819A814F
:10243000AE014C5F5F4F9827892798270E94581359
:102440007BCF0E94831378CF0E945612D6CF6B8128
:1024500070E089819A81AE014C5F5F4F9827892790
:1024600098270E94CF1268CF6B8170E089819A8192
:10247000AE014C5F5F4F9827892798270E94F5127D
:102480005BCF0E94CD1058CFCE010E940F242FEFBA
:1024900081EE94E0215080409040E1F700C00000C0
:1024A0000E94352349CF8FEF888346CF84E008957B
:1024B00020E2629FB001112450E0440F551F640FC9
:1024C000751F20E8829FC0011124860F971F8696F2
:1024D00008950F931F93CF93DF930E9458128C019E
:1024E0000E94E72BC82FD0E0DC2FCC27C801019633
:1024F0000E94E72B9E01282BC901DF91CF911F91EC
:102500000F9108950F931F93CF93DF93122F032FF3
:102510000E945812EC01602F0E94FB2B612FCE010C
:102520000196DF91CF911F910F910C94FB2BAF92ED
:10253000BF92CF92DF92EF92FF921F93CF93DF93E0
:102540008CEAC82E80E0D82ED0E07601C0E014C01E
:10255000F50125913491412F6C2F8D2F0E9482120D
:1025600082E0A80EB11C1F5F103191F780E2E80EE7
:10257000F11CCF5FC43019F0570110E0E9CFDF5FE5
:1025800080E8C80ED11CD43001F7DF91CF911F91A4
:10259000FF90EF90DF90CF90BF90AF900895EF92B3
:1025A000FF920F931F93CF93DF93EC018A017C017D
:1025B000E60EF71ECE018696CE15DF0539F4DF91C3
:1025C000CF911F910F91FF90EF900895C11522E0D8
:1025D000D20740F40E94E72BF80180830F5F1F4F62
:1025E0002196E8CFF8011082F9CFCF92DF92EF92D7
:1025F000FF920F931F93CF93DF937C016A018C01AD
:10260000060F171FEC01CE018696C017D10749F4BB
:10261000DF91CF911F910F91FF90EF90DF90CF90BE
:102620000895C11522E0D20740F4FE01EE19FF091A
:10263000EC0DFD1D60810E94FB2B2196E4CF462FFF
:10264000843038F4743028F4603118F4672F0C9417
:10265000691290E080E0089580E108958AED91E0AC
:102660000895EF92FF920F931F93CF93DF93EC01A6
:102670008A017C01E60EF71ECE018A5D9D4FCE15C4
:10268000DF0539F4DF91CF911F910F91FF90EF900B
:102690000895CA3D21E0D20740F40E94E72BF801DB
:1026A00080830F5F1F4F2196E7CFF8011082F9CF8B
:1026B000CF92DF92EF92FF920F931F93CF93DF930E
:1026C0007C016A018C01060F171FEC01CE018A5DA7
:1026D0009D4FC017D10749F4DF91CF911F910F9102
:1026E000FF90EF90DF90CF900895CA3D21E0D20790
:1026F00040F4FE01EE19FF09EC0DFD1D60810E9402
:10270000FB2B2196E3CFCF93DF93C6E2D2E060E0CC
:10271000CE010E94FB2B2196C11584E0D807B9F7A2
:10272000DF91CF910895DF92EF92FF920F931F9365
:10273000CF93DF9300D000D0CDB7DEB7F82E8FE077
:102740008F1540F08FEF93E00E94E72B06E212E036
:102750008823C1F00F900F900F900F90DF91CF91D1
:102760001F910F91FF90EF90DF900895011584E085
:10277000180781F3C8010E94E72B811101C0FA9468
:102780000F5F1F4FF110F2CF19821A821B821C8239
:10279000DD24D39478018FEFE81AF80AC8010E946B
:1027A000E72B89831A828823A9F29FEF980F933031
:1027B00078F48A83D9820E5F1F4FC7010E94E72BEE
:1027C0008B83882339F2CE0101960E94BF04E2CFA9
:1027D0008701F9CFAF92BF92CF92DF92EF92FF9233
:1027E0000F931F93CF93DF937C015B01C42FD22FF4
:1027F000FC0182818823F9F0409321020E94EA22A1
:102800009093200280931F0280E28C0F883008F0A2
:1028100061C0C77081E001C0880FCA95EAF7DF91F7
:10282000CF911F910F91FF90EF90DF90CF90BF90CD
:10283000AF900C94621810912102141340C0809143
:102840001F02909120020E9402236C01B701C50172
:102850000E94451DC816D90690F5C0E2CD0F1D1780
:10286000B9F080E2810F883040F4177081E001C038
:10287000880F1A95EAF70E946918C83048F481E079
:102880009D2F977001C0880F9A95EAF70E946218F1
:10289000802F0E944F18C830E8F4D77081E001C043
:1028A000880FDA95EAF7DF91CF911F910F91FF9092
:1028B000EF90DF90CF90BF90AF900C94691880E2BA
:1028C0008C0F883038F4C77081E001C0880FCA953A
:1028D000EAF7E9CFDF91CF911F910F91FF90EF9031
:1028E000DF90CF90BF90AF9008950F939C01CB01E4
:1028F000233F4CE5340759F1A8F4283DFCE53F0798
:1029000001F1293D4CE53407D1F1273D3C4591F4D7
:1029100006E221EE41EE67ED7CE50E94EA1380E0DD
:102920000F910895253FFCE53F07E9F0B0F0263F01
:102930003C45F9F0FC018281882339F11092210293
:10294000EFCF07E225EE45EE68ED7CE5E6CF06E247
:1029500021EE40EE63EF7CE5E0CF07E225EE44EEAA
:1029600064EF7CE5DACF06E221EE42EE65EF7CE52E
:10297000D4CF07E225EE46EE66EF7CE5CECF08E247
:1029800021E045EE69ED7CE5C8CF81E0C9CFCF936A
:10299000DF93EC01FB018281882309F419C1C23065
:1029A000FCE5DF07C0F1C6319CE5D90730F09E0198
:1029B0002A5F3C452930310570F50E94182190931B
:1029C000220380932103C031ECE5DE0709F4CFC078
:1029D00008F05BC0C8308CE5D80709F4B6C088F5AC
:1029E000C430ECE5DE0709F4A8C0C0F4C2308CE5C1
:1029F000D80709F49CC0809121038260C330DC4574
:102A000009F498C080912103909122030E9426210D
:102A10000E94CF1A80E0DF91CF9108958091210329
:102A20008061C630ECE5DE0709F484C080912103A3
:102A30008860C730DC4508F47DC080912103806246
:102A400079C0CC308CE5D80709F489C070F4809146
:102A500021038C60CA30ECE5DE0709F46BC008F492
:102A600078C0809121038E7F65C0CE308CE5D80779
:102A700009F479C0809121038B7FCF30DC4508F4C5
:102A800059C0809121038F7E55C0CB3FECE5DE0716
:102A900009F457C030F5C3318CE5D80709F46FC08D
:102AA00078F4C131ECE5DE0709F465C0C231DC45DC
:102AB00009F0A8CF0E94CF1A809121038F773AC0E6
:102AC000C5318CE5D80709F462C008F476C080915E
:102AD00022038160CA3FDC4509F094CF8093220332
:102AE00091CFCF3FFCE5DF0709F44DC088F480911A
:102AF00022038D7FCD3F9CE5D90781F3809122038E
:102B00008E7FCE3FDC4550F3809122038360E6CF79
:102B1000C130FDE5DF0709F459C008F444C080E086
:102B2000C230DD4509F06ECF0E94A4216BCF8091A9
:102B3000210381608093210365CF8091210384600C
:102B4000F9CF809122038260C9CF809121038064F4
:102B5000F1CF0E94CF1A809121038068EBCF809142
:102B600021038D7FE7CF80912103877FE3CF809181
:102B700021038F7DDFCF809121038F7BDBCF80917D
:102B80002103837FD7CF809122038C7FA7CF8091B1
:102B9000210382FB992790F921E0922790FB82F98B
:102BA00090FB83F9C7CF80912203982F9095917065
:102BB0008E7F892B90FB81F991CF0E94CF1A909143
:102BC0002103892F97FB87F98058B4CF81E0ACCFE0
:102BD00081E021CFCF93DF93EB0186319C4511F546
:102BE0000E9450209A81992399F08A7A91E009F401
:102BF00090E090932202811109C089E20E942B206B
:102C00000E949C2080E0DF91CF91089585E3F6CF6C
:102C100080912202811104C089E20E943220F0CF0B
:102C200085E3FBCF81E0EFCF9093280280932702CA
:102C30000895E0912702F0912802309721F0019049
:102C4000F081E02D099480E00895E0912702F09151
:102C50002802309799F020912301222359F02091E6
:102C6000210327FF07C0DC012C9111962C931197AB
:102C700025E02C930280F381E02D099408952091A2
:102C80002502309126022817390771F09093260209
:102C900080932502E0912702F0912802309721F0DD
:102CA0000680F781E02D0994089520912302309148
:102CB00024022817390771F090932402809323028D
:102CC000E0912702F0912802309721F00084F185ED
:102CD000E02D0994089585B7806885BF85B7806821
:102CE00085BF0895089508950C94721608950C9464
:102CF00076160E946B160E9473160C94741681E06F
:102D000008950C947F160E94E1220E94A1070E9460
:102D1000E0100E946F230E94000FE1E2F3E0808147
:102D20008068808380912103909122030E94262154
:102D30000C9477169F92AF92BF92CF92DF92EF9250
:102D4000FF920F931F93CF93DF93CDB7DEB72A97F0
:102D50000FB6F894DEBF0FBECDBF0E9402080E94DE
:102D60008116882309F470C05AE2A52E52E0B52ED0
:102D700010E000E0902E802F0E9493076C01F50177
:102D8000E190F1905F01E816F90609F457C08091CF
:102D9000C00281FD0E949C0797012C253D2580E003
:102DA000EE24E394F12CA9014E215F21452B09F477
:102DB0003FC08E839F82CE20DF2081E0CD2809F4A2
:102DC00080E088870E94EA228160782F9A8789872D
:102DD0004E815F8168858A850E944717000F111F09
:102DE000F801E65DFD4F80819181E826F926F182A8
:102DF000E0820E943B0F0E941916909129028917C8
:102E0000A1F10E941916809329022A960FB6F89410
:102E1000DEBF0FBECDBFDF91CF911F910F91FF900D
:102E2000EF90DF90CF90BF90AF909F900C94930560
:102E30008F5FEE0CFF1C803109F0B5CF0F5F1F4F85
:102E40000430110509F096CF8FEF89838A831B82A6
:102E50000E94EA228160782F9D838C8349815A8168
:102E60006B818D810E944717C4CF2A960FB6F894C4
:102E7000DEBF0FBECDBFDF91CF911F910F91FF90AD
:102E8000EF90DF90CF90BF90AF909F900895CF9339
:102E9000DF93CDB7DEB72B970FB6F894DEBF0FBE2A
:102EA000CDBF4F83588769877A878B871E821D82A3
:102EB00085E0FE013796DE01119601900D928A950C
:102EC000E1F749815A816B817C818D819E812B96AE
:102ED0000FB6F894DEBF0FBECDBFDF91CF910C943B
:102EE000481DFC01808191810C94FD1FCF93C82F58
:102EF000882309F483C08238C1F40E94191681FD29
:102F00007DC089E30E942B200E949C202FEF81EE40
:102F100094E0215080409040E1F700C0000089E338
:102F20000E943220CF910C949C208338A1F40E94FF
:102F3000191680FD63C083E50E942B200E949C200F
:102F40002FEF81EE94E0215080409040E1F700C0E7
:102F5000000083E5E5CF8438A1F40E94191682FDB4
:102F60004DC087E40E942B200E949C202FEF81EE11
:102F700094E0215080409040E1F700C0000087E4D9
:102F8000CFCF8CEF8C0F813A90F46C2F809117018A
:102F9000909118010E94BD21882329F08C2F0E9456
:102FA00032200E949C208C2F0E942B20BBCF80E2DD
:102FB0008C0F883048F4C77081E001C0880FCA9533
:102FC000EAF70E945320AECFEBE5EC0FE33040F47C
:102FD000F0E0EE53FE4F808190E0CF910C943F16CD
:102FE000C85AC73158F4EC2FF0E0EE0FFF1FEC5633
:102FF000FE4F80819181CF910C945516CF91089509
:10300000882309F44BC0823871F40E94191681FF9D
:1030100045C089E30E942B200E949C2089E30E94E6
:1030200032200C949C20833859F40E94191680FF9A
:1030300035C083E50E942B200E949C2083E5EFCFC2
:10304000843859F40E94191682FF28C087E40E9430
:103050002B200E949C2087E4E2CF9CEF980F913AAE
:10306000F0F290E2980F983050F4877091E001C030
:10307000990F8A95EAF7892F0E945920D2CF9BE5B4
:10308000980F933020F490E080E00C943F16885A1B
:10309000873120F490E080E00C9455160895CF938A
:1030A000C82F0E947617C93349F42FEF87EE93E0BB
:1030B000215080409040E1F700C000008C2FCF915C
:1030C0000C940018882321F00E9453200C949C201B
:1030D0000895882321F00E9459200C949C20089583
:1030E000BF92CF92DF92EF92FF920F931F93CF93F5
:1030F000DF936C01D62FC72FFC01058102950F705D
:10310000128111110E9470200E944920E82E88230C
:1031100091F01123D1F08C2F807F803421F080E258
:103120008D0F883090F082E00E94E7200E944920B5
:1031300091E0E82EE926BC2EB2949FE0B922EB2D57
:10314000F0E0E958F34D0C94402BE12CF4CF0C2F18
:103150000F70C07F11F00295007F1123A9F00023AA
:1031600059F080E28D0F883010F0D11109C0802F06
:103170000E9453200E949C208D2F0E94761714C01D
:10318000802F0E946320F6CF8D2F0E94001800230D
:1031900059F080E28D0F883010F0D1112CC0802FB3
:1031A0000E9459200E949C202B2D2850330B243044
:1031B000310520F40E9419160E949305EE2009F4AF
:1031C00093C10E94452080FD8FC1F60112820E94AA
:1031D0003F200E94CC1EC6010E94951A0E943F20EB
:1031E000DF91CF911F910F91FF90EF90DF90CF90E3
:1031F000BF900C94ED1E802F0E946920D3CFFC2F2E
:10320000FF70FF2EC07FC03219F0F29480EFF822D9
:10321000DD2369F0D13049F1112391F1002351F1FF
:10322000F601858180FFA8CF8F70858323C011238D
:1032300081F0011106C00E9483208F290E9462182C
:10324000B3CF0130C1F70E9483208F290E948920CB
:10325000ABCF011106C00E9492208F2D0E946918E9
:10326000A3CF013009F4A0CFF6CF112329F0063007
:1032700008F09ACF8F2DE2CF053008F095CFEDCF33
:10328000002359F3D93349F4FFEF27EE33E0F1502F
:1032900020403040E1F700C000008D2F0E94001850
:1032A00083CF8C2F86958695837069F0813009F0E5
:1032B0007BCF8D2F9C2F9370111102C090E080E086
:1032C0000E94551671CF8D2F9C2F9370111102C043
:1032D00090E080E00E943F1667CF8C2F837009F04A
:1032E00041C0111161CF4D2F429546954770440F53
:1032F000440F0D2F0F7010E030E020E0042E04C0CA
:10330000000F111F221F331F0A94D2F760E070E0F4
:10331000CB01D4FF0FC06FE070E080E090E004C00C
:10332000660F771F881F991F4A95D2F76095709591
:1033300080959095C695C695C370602B712B822B96
:10334000932BC23049F058F4C13019F00E947E1E10
:103350002BCF0E946C1E28CF0E94901E25CF0E946A
:103360006A1E22CF8695112311F08C2F817088233D
:1033700009F41ACF4D2F429546954770440F440FDC
:103380000D2F0F7010E030E020E0042E04C0000F7D
:10339000111F221F331F0A94D2F760E070E0CB01A7
:1033A000D4FF0FC06FE070E080E090E004C0660FD3
:1033B000771F881F991F4A95D2F760957095809561
:1033C0009095C695C695C370602B712B822B932B5D
:1033D000C23049F058F4C13019F00E94431FE4CEC6
:1033E0000E94311FE1CE0E94551FDECE0E94A61E14
:1033F000DBCECF70112329F08C2F0E94CC1E8D2F95
:103400001DCF8D2F0E9469188C2F0E94ED1ECCCEEF
:10341000D23F89F160F4D03FC9F0D13F29F11123A7
:1034200009F442C00111A8CE8C2F8F7121C0D33F67
:1034300039F1D43FA1F7112369F1CF718C2F0E948C
:10344000CC1E63E08C2F0E94D220AECE112341F01F
:10345000053008F0A9CE8C2F8F710E94101FA4CECA
:10346000063008F0A1CEF7CF8C2F8F71112369F2AF
:103470000E94CC1E99CE8C2F8F711123C9F3C5CF1A
:10348000112329F08C2F8F710E94B71E8DCE0E94C0
:10349000B21E8ACE81E00E94E720023008F484CE7A
:1034A00082E00E94E72080CE002359F0D93309F052
:1034B000F4CE8FEF97EEE3E081509040E040E1F7EB
:1034C000EACE8C2F8F71A1CF4C2F4F706D2FC6017C
:1034D0000E949B050E94E21D67CE4C2F4F706D2FFE
:1034E000C6010E949E0560CEDF91CF911F910F9182
:1034F000FF90EF90DF90CF90BF9008950F931F93B0
:10350000CF93DF93EC01688179818A810E94072043
:103510008C010E94671F0E94691EB801CE01DF91D5
:10352000CF911F910F910C947018CF93DF93EC0102
:103530008B819C81892B29F08881998189238F3FF8
:1035400059F4DF91CF910895CE010E947E1ACE01E9
:10355000DF91CF910C940004CE010E9444058111AB
:10356000F3CF0E944920882361F38A81882349F39D
:1035700082E0DF91CF910C94E7200E9470200E949E
:1035800080200E949C2090E080E00E943F1690E006
:1035900080E00C9455160E9439200C94BD1A0E94AC
:1035A00060200C94CB1AE92FE295EF70E250EE30D8
:1035B00070F4F0E0E957F34D0C94402B803F19F084
:1035C00020F4883E20F481E00895843FE1F380E018
:1035D0000895883EC0F3813FD1F7F5CF93FB88274C
:1035E00080F908950E94FD1F0C94D31ACF93DF93A6
:1035F00000D000D00F92CDB7DEB70F900F900F9094
:103600000F900F90DF91CF910895CF93DF9300D06B
:1036100000D000D0CDB7DEB726960FB6F894DEBF47
:103620000FBECDBFDF91CF9108951F93CF93DF934E
:10363000C091330216E0809134028C1304C0DF91F4
:10364000CF911F910895D0E01C9FF0011D9FF00DB8
:103650001124EB5CFD4F4081518162817381848133
:1036600095810E94051B2196C770E5CF40916502A8
:1036700050916602609167027091680280916902C0
:1036800090916A020C94051B1F93CF93DF93809156
:103690006A02807FA9F480916702882389F0809173
:1036A0003302C09134026091650270916602A0916C
:1036B0006802B0916902D62FD72316E0C81304C060
:1036C000DF91CF911F91089590E0109711F0DF3FA7
:1036D00019F401968770F2CF189F9001199F300D51
:1036E0001124F901EB5CFD4F41814713F2CF40817A
:1036F0004613EFCF42814111ECCF438154814A1BE5
:103700005B0B483C510528F780916A028F708061FD
:1037100080936A02F901E65CFD4F80818F708061C1
:10372000808385E692E00E94951ADF91CF911F91E8
:103730000C94151BAF92BF92CF92DF92EF92FF9243
:103740000F931F93CF93DF93CDB7DEB761970FB67B
:10375000F894DEBF0FBECDBF8C0185E0F801DE011D
:103760001D9601900D928A95E1F7F80140815181F3
:10377000E28085E6C82E82E0D82E609168027091C2
:1037800069026115710509F461C19091650220918A
:103790006602892F82238F3F09F458C1A380B48029
:1037A000F0906702F501E61BF70BFF2009F4FCC05F
:1037B00080916A02382F307FE83CF10508F0B2C0F2
:1037C000311179C0FE2C251323C0941321C0E110C0
:1037D0001FC08F70806180936A020E94361BC601F1
:1037E0000E94951A80916A02F80185838F2D619657
:1037F0000FB6F894DEBF0FBECDBFDF91CF911F9102
:103800000F91FF90EF90DF90CF90BF90AF90089511
:10381000AB2829F0842F85238F3F09F033C180E046
:10382000F82FF170DF2E80FF3CC080913302209191
:10383000340236E0821315C04D875E878D859E85E4
:103840000E94FD1F292F22952F702230F0F0243086
:1038500018F59F70F1F0F8019581907FD1F4D12C8B
:103860001EC090E0389FF001399FF00D1124EB5CF1
:10387000FD4F6181651306C06081641303C06281DE
:103880006E110FC001968770D5CF9F7011F08823FD
:1038900031F3805E883018F3C8010E94951AFD2C20
:1038A000A5CFEE2009F4A2CF80916A0281608093B7
:1038B0006A02F12C9BCF251306C0941304C0F801B3
:1038C000EE2009F48DC04D875E878D859E850E9410
:1038D000F21A882319F1EE2009F180916A028032F0
:1038E00070F0209165023091660238872F83198627
:1038F000BB86AA868C87CE0107960E94951A86E021
:10390000F801A5E6B2E001900D928A95E1F70E94D8
:10391000441B0E94361BFF24F39468CFC8010E9409
:10392000951AF9CF311113C07A2DB98AA88A6E2D54
:1039300089890E94F61A85E692E00E94951A86E02F
:10394000F60111928A95E9F70E94361BB2CF251332
:103950000FC094130DC0E1100BC0F8018583C8019E
:103960000E94951A86E0F60111928A95E9F73ECFFA
:103970004D875E878D859E850E94F21A882371F29D
:10398000EE2061F280916A02803208F4B8CF209173
:103990006502309166023A8329831B82BD82AC8224
:1039A0008E83CE010196A9CFE83CF10508F041C015
:1039B000FE2CEE2009F4B2CF25132AC0941328C0A0
:1039C00080916A0280FD1BC0982F907FC1F0F801A2
:1039D0008583903F31F0982F907F905F8F70892B77
:1039E0008583C8010E94951A86E0F801A5E6B2E039
:1039F00001900D928A95E1F70E94361BF7CE86E082
:103A0000F801A5E6B2E001900D928A95E1F7EECEBD
:103A10004D875E878D859E850E94F21A81116FCF3A
:103A200080916A02816080936A02C8010E94951A9F
:103A3000DDCE7A2DB98AA88A6E2D89890E94F61A60
:103A400086E0F60111928A95E9F7D6CFEE2009F4C7
:103A500065CF4D875E878D859E850E94F21AF82E70
:103A6000882309F45BCF86E0F801A5E6B2E0019077
:103A70000D928A95E1F785E692E00E9471170E9407
:103A8000441BBACF81E08E25CBCE88EC90E0089520
:103A90001F93CF93DF93CDB7DEB72C970FB6F89473
:103AA000DEBF0FBECDBF4F83588769877A878B876C
:103AB0009C87CE0107960E949A1B882369F08A850D
:103AC0009B85892B39F04F815885842F85238F3F23
:103AD00009F071C016E05FC086E0FE013796DE0196
:103AE000119601900D928A95E1F78A859B85892B25
:103AF00089F38F81988589238F3F61F32091340268
:103B000030E0C90101968770992740913302481728
:103B1000190671F40E94CF1A1092340210923302E7
:103B200086E0E5E6F2E0DF011D928A95E9F7D2CF63
:103B300096E0929FD001939FB00D1124AB5CBD4FD6
:103B4000FE01319601900D929A95E1F7809334022F
:103B50000E94151BBFCF819FC00111248B5C9D4F1C
:103B60000E949A1B8823E9F0E09133021E9FF00126
:103B70001124EB5CFD4F408151816281738184810E
:103B800095810E94051B8091330290E00196877019
:103B900099278093330280913302909134028913E4
:103BA000DACF2C960FB6F894DEBF0FBECDBFDF91F3
:103BB000CF911F91089569857A858B859C850E9498
:103BC000051B88CFEF92FF920F931F93CF93DF9344
:103BD0008C01892B81F0F12CEE24E394E8012196ED
:103BE000F8018491843770F4843008F05FC081302C
:103BF000B1F08230A1F1DF91CF911F910F91FF9031
:103C0000EF900895853709F44CC008F43DC09CE757
:103C1000980F903780F78F770E94001849C00E5F89
:103C20001F4FFE01849190E2980F983060F48770E6
:103C3000FE2D01C0FF0F8A95EAF78F2F0E94732097
:103C40000E949C2002C00E9476178F2D815030F276
:103C5000EFE9FFE03197F1F700C00000F7CF0E5F0A
:103C60001F4FFE01849190E2980F983050F48770B6
:103C7000FE2D01C0FF0F8A95EAF78F2F0E94792051
:103C8000DFCF0E940018E1CF0E5F1F4FFE01C491ED
:103C9000C150D8F28FE99FE00197F1F700C0000012
:103CA000F7CF0E5F1F4FFE01F490CFCF0E94761723
:103CB0008E01CBCF08950C945A1E0E945B1E609318
:103CC0009702709398028093990290939A020C94B1
:103CD000BD1A08950C945D1E0F931F9300919702D7
:103CE000109198022091990230919A02602B712BC9
:103CF000822B932B1F910F910C945D1E0F931F939A
:103D000000919702109198022091990230919A02A5
:103D100060237123822393231F910F910C945D1EC6
:103D20000F931F930091970210919802209199028E
:103D300030919A0260277127822793271F910F9154
:103D40000C945D1E0C945A1E0C94A21E0E94A41E7C
:103D500060939302709394028093950290939602DD
:103D60000C94BD1A60E070E0CB010C94A61E0F937A
:103D70001F9341E050E060E070E08A019B0104C0C5
:103D8000000F111F221F331F8A95D2F7C901B801F6
:103D90001F910F910C94A61E0F931F9341E050E0CA
:103DA00060E070E004C0440F551F661F771F8A95BE
:103DB000D2F78091930290919402A0919502B091D4
:103DC00096028A019B01082B192B2A2B3B2BC90138
:103DD000B8011F910F910C94A61E0F931F9341E001
:103DE00050E060E070E004C0440F551F661F771F6D
:103DF0008A95D2F7CB01BA01609570958095909520
:103E000000919302109194022091950230919602B4
:103E100060237123822393231F910F910C94A61E7C
:103E20000F931F9341E050E060E070E004C0440F46
:103E3000551F661F771F8A95D2F780919302909144
:103E40009402A0919502B09196028A019B010827E5
:103E500019272A273B27C901B8011F910F910C94FC
:103E6000A61E0F931F93009193021091940220912C
:103E7000950230919602602B712B822B932B1F9110
:103E80000F910C94A61E0F931F9300919302109113
:103E9000940220919502309196026023712382232F
:103EA00093231F910F910C94A61E0F931F930091C3
:103EB000930210919402209195023091960260270E
:103EC0007127822793271F910F910C94A61E0895A6
:103ED0009295907F890F982F977041E001C0440F11
:103EE0009A95EAF786958695869595E0899FF001E3
:103EF0001124E559FD4F30E020E070E05191DF01E1
:103F00001197CB01022E02C0969587950A94E2F78D
:103F1000817081958527842385278C932F5F3F4F60
:103F20002530310559F708959295907F890F982F84
:103F3000977086958695869525E0829FF0011124DD
:103F4000E559FD4F50E040E080E0219130E0092E3E
:103F500002C0369527950A94E2F721703327042E84
:103F600001C0220F0A94EAF7822B4F5F5F4F453062
:103F7000510559F70895BF92CF92DF92EF92FF92C9
:103F80000F931F93CF93DF938C01C0909302D09037
:103F90009402E0909502F0909602809197029091A1
:103FA0009802A0919902B0919A02C82AD92AEA2AC5
:103FB000FB2ACFE1D0E0BC2ED701C6010C2E04C0F5
:103FC000B695A795979587950A94D2F780FD0EC070
:103FD000219788F7B12C8B2DDF91CF911F910F91F5
:103FE000FF90EF90DF90CF90BF900895B8018C2F95
:103FF0000E94A705019761F3EECFCF93DF93EC0109
:104000000E94BB1FBE01DF91CF910C94A7051F93A7
:10401000CF93DF93EB0190913202992331F0CB01E2
:10402000DF91CF911F910C94FD1F882379F0CB0174
:104030000E94BB1F182F682FCE010E94681FBE016F
:10404000812FDF91CF911F910C94A705CB010E9486
:10405000941F182FF4CF682F8091170190911801A9
:104060000C943D22682F80911701909118010C94B7
:10407000482280911701909118010C94532280914D
:104080009B02859585958595089580919B02877003
:10409000089590919B02977081E009F480E0089563
:1040A0008091BF0208959091BF02892B8093BF0237
:1040B000089580959091BF0298239093BF02089530
:1040C0001092BF0208959091BE02892B8093BE0288
:1040D000089580959091BE0298239093BE02089512
:1040E0001092BE0208959091BD02892B8093BD026B
:1040F000089580959091BD0298239093BD020895F4
:104100001092BD02089580919C02089508950C9428
:10411000862090919C02981721F080939C020C9429
:104120008720089580919C02882329F010929C0298
:1041300080E00C9487200895E0911701F091180118
:104140008091BF028083E0911701F0911801808176
:104150009091BE02892B8083E0911701F0911801A4
:1041600080819091BD02892B808390919C0299233C
:1041700081F0E0911701F09118018081892B8083F3
:1041800080911701909118010E94A92181110E942C
:10419000922080911701909118010C942516089592
:1041A0000C94CF2098E0899F90011124622B60939A
:1041B0009B020E94CC1E80919B02859585958595DA
:1041C0000C94D02010929B0280E00C94D02090910F
:1041D0009B028095892380939B02282F277071F47E
:1041E000282F082E000C330B9217130639F08595F3
:1041F000859585950E94ED1E0C94E22008956FEF41
:104200007FEF90E080E00C94192C90E080E00E9419
:10421000F52B21E08C3E9E4F09F020E0822F08957F
:1042200082E090E00C94E72B83E090E00C94E72B85
:10423000CF9384E090E00E94E72BC82F81E290E0CA
:104240000E94E72B982F8C2FCF910895CF93C92FE1
:10425000682F84E090E00E94FB2B6C2F81E290E0BD
:10426000CF910C94FB2BAB01BC018FE090E00C9440
:104270000D2CAB01BC0183E190E00C940D2C60E0AF
:1042800070E0CB010C94392160E070E0CB010E941A
:1042900033210C943F216CEE7EEF90E080E00E9491
:1042A000192C60E082E090E00E94FB2B60E083E04C
:1042B00090E00E94FB2B10929702109298021092AD
:1042C000990210929A0260E084E090E00E94FB2B39
:1042D00060E081E290E00E94FB2B60E085E090E0EE
:1042E0000E94FB2B60E086E090E00E94FB2B6FEFCA
:1042F00087E090E00E94FB2B40E050E0BA0188E0AC
:1043000090E00E940D2C60E08DE090E00E94FB2B7D
:1043100040E050E0BA0188E190E00E940D2C60E09E
:1043200087E190E00E94FB2B40E050E0BA018CE175
:1043300090E00E940D2C60E080E290E00E94FB2B58
:104340000C9444210C944B21682F8EE090E00C9447
:10435000FB2BFC01329680912301882321F0809170
:1043600021039EE187FF96E080E0915008F40895D4
:1043700021912223D1F38F5FF8CF662301F12091A1
:1043800023012223F1F02091210327FF1AC0462F99
:104390004695469546954E3190F4677021E030E0A1
:1043A00002C0220F331F6A95E2F7840F911DFC01B2
:1043B000828190E02823392381E0232B69F480E077
:1043C0000895FC01329608962191261721F0E817EE
:1043D000F907D1F7F4CF81E008959C01FC013296F2
:1043E0009FEF80E04191461751F09F3F19F4411132
:1043F00001C0982F8F5F8630A9F79F3F09F4089579
:10440000290F311D97FD3A95F90162830895FC014A
:10441000329608962191261303C0DF0111971C9252
:10442000E817F907B9F70895E62FE695E695E695BA
:10443000EE3168F4E80FF92FF11D677021E030E0EC
:1044400001C0220F6A95EAF78281822B8283089548
:10445000E62FE695E695E695EE3170F4E80FF92F34
:10446000F11D677021E030E001C0220F6A95EAF784
:1044700020958281282322830895209123012223DD
:1044800029F02091210327FD0C9414220C94ED2196
:1044900020912301222329F02091210327FD0C9450
:1044A00028220C940722FC01329680912301882354
:1044B00051F08091210387FF06C08EE1DF011D923C
:1044C0008A95E9F7089586E0F9CF089508950C9448
:1044D00066220E94672280912703843049F110925E
:1044E000C10288E190E020E40FB6F894A89580938B
:1044F00060000FBE2093600080E00E9493050E9440
:10450000672283B7817F846083BF83B7816083BF65
:104510007894889583B78E7F83BF0FB6F894A8955B
:1045200080916000886180936000109260000FBEEF
:1045300008950895CF930E9465220E9402080E9468
:104540009922C0E08C2F0E949307892B31F4CF5F12
:10455000C430C1F780E0CF91089581E0FCCF089589
:104560000C94AF220E94CF1A0E9419160E94930544
:104570000C94B0221F921FB61F9211248F939F9309
:10458000AF93BF938091C102811113C080911D032D
:1045900090911E03A0911F03B09120034196A11D8D
:1045A000B11D80931D0390931E03A0931F03B0932E
:1045B0002003BF91AF919F918F911F901FBE1F90BD
:1045C000189582E084BD93E095BD9AEF97BD8093E6
:1045D0006E0008952FB7F89480911D0390911E03EB
:1045E000A0911F03B09120032FBF08952FB7F89417
:1045F00060911D0370911E0380911F039091200311
:104600002FBF08959C014FB7F89480911D0390919E
:104610001E03A0911F03B09120034FBF821B930B79
:10462000089578941F921FB61F9211248F939F9321
:10463000AF93BF9380911D0390911E03A0911F0320
:10464000B09120030196A11DB11D80931D0390938D
:104650001E03A0931F03B0932003BF91AF919F91BE
:104660008F911F901FBE1F90189581E08093E000EE
:1046700080E28093D8001092C9008FE19EE40197F8
:10468000F1F700C0000087E090EBDC01809330037D
:1046900090933103A0933203B093330388E19CE0FD
:1046A0000FB6F894A895809360000FBE90936000B9
:1046B000FFCF0C94CD100E9402088FE39CE9019774
:1046C000F1F700C000000E94020880E00E949307FA
:1046D00080FF04C00E9459230C94352308950E9442
:1046E0000521811102C00E94A2210E941021809305
:1046F000C0020E94182190932203809321030E94FC
:104700001421682F70E090E080E00E946A1E6091A2
:1047100093027091940280919502909196020C946C
:10472000A41E8091E20208950895CF93DF9300D0F4
:104730000F92CDB7DEB790912703943011F589839E
:104740007B836A839093E9008FEF9091E80081501A
:1047500095FD06C095ED9A95F1F700008111F5CF12
:104760008091E80085FF0DC050E040E063E070E01C
:10477000CE0101960E94FC258091E8008E778093FF
:10478000E8000F900F900F90DF91CF910895BC013A
:1047900084E00C949523BC0183E00C949523CF9383
:1047A000DF93EC01809123018823B1F180912103F3
:1047B00087FF32C060E284E08093E9008FEF909140
:1047C000E800815095FD06C095ED9A95F1F700003F
:1047D0008111F5CF8091E80085FF1BC080912301F6
:1047E00070E050E040E0811104C050E040E068E03B
:1047F00070E0CE010E94FC258091E8008E778093C6
:10480000E80080E2FE01A2ECB2E001900D928A95F0
:10481000E1F7DF91CF91089568E081E0CDCFCF93AC
:10482000FC01603221F580912703843001F5C091AD
:10483000E900CF702091EC00922F917020FD90E85C
:10484000C92B82E08093E9008091E80080FF0CC0D2
:1048500050E040E060E270E0CF010E94FC258091D2
:10486000E8008E778093E800CF70C093E900CF9185
:10487000089580912603811109C00E94DB270E94C0
:1048800038288091E20084608093E20008951092BD
:1048900026030895089508950C94B22242E061EC35
:1048A00081E00E94572742E261EC84E00E94572792
:1048B00042E261EC82E00E94572742E260EC83E032
:1048C0000C94572780912903833009F461C030F498
:1048D0008130D1F1823009F49DC008958A3009F405
:1048E00089C08B3009F46FC0893009F050C08091C5
:1048F0002803813209F04BC080912C0390912D0345
:10490000009719F0029709F042C08091E800877F74
:104910008093E8008091E80082FF35C09091F30019
:104920008091F200029729F48091F1008B7F813011
:1049300021F48091F1008093E2028091E8008B776E
:104940008093E8000C948B2780912803813AF9F436
:104950008091E800877F8093E80080912C039091FC
:104960002D03892B61F460E282EC92E070E00E94FA
:104970009A268091E8008B778093E800089560E0A4
:1049800090E080E0F3CF809127038111C3CF089599
:1049900080912803813AD9F780912C0390912D03BF
:1049A000892BA9F78091E800877F8093E8008091A8
:1049B000E80080FFFCCF809123018093F10080917B
:1049C000E8008E77BDCF80912803813201F7809176
:1049D0002C0390912D03892BD1F68091E800877FDD
:1049E0008093E8000E948B2780912A038093230103
:1049F0000C94CF1A80912803813249F68091E80007
:104A0000877F8093E8000E948B2780912B038093FF
:104A1000E302089580912803813A09F0B8CF80918C
:104A2000E800877F8093E8008091E80080FFFCCF5A
:104A30008091E302C2CFCDB7DEB7A0970FB6F8944E
:104A4000DEBF0FBECDBF84B7877F84BF0FB6F8949B
:104A5000A89580916000886180936000109260004A
:104A60000FBE80E890E00FB6F894809361009093B9
:104A700061000FBE0E9479160E94DB270E94382831
:104A80008091E20084608093E20078940E94C12AC1
:104A90000E94831689E191E00E94141613E0809130
:104AA0002703853039F10E949A16809127038430BC
:104AB000B1F71093E9008091E80082FFF0CF809178
:104AC000E80090E085FF09C050E040E060E270E05F
:104AD000CE0101960E944B2691E08091E8008B77F1
:104AE0008093E8009923D9F260E2CE0101960E94FA
:104AF0008511D5CF0E94692280912503882379F200
:104B00000E949A22882359F20E94E625C8CF0C946D
:104B10008925292F33272330310521F168F42130ED
:104B2000310509F449C02230310509F44AC090E04A
:104B300080E030E020E029C02132310581F12232CD
:104B40003105A9F76330710590F7FB01EE0FFF1FE8
:104B5000E853FE4F208131816B537E4FFB018081F2
:104B600090E013C099278130910599F0009741F0AA
:104B70008230910589F00397D1F6E6E6F5E002C0B0
:104B8000E4EAF5E0849190E09F01FA01318320830B
:104B90000895EAE8F5E0F6CFECE6F5E0F3CF633010
:104BA000710528F6660F771FFB01E253FE4F208147
:104BB000318189E090E0E9CF82E190E023E036E0C6
:104BC000E4CF8BE590E028EA35E0DFCF80E189BDD6
:104BD00082E189BD09B400FEFDCF8091D8008F7DB0
:104BE0008093D8008091E00082608093E000809103
:104BF000E00081FDFCCF0895AF92BF92CF92DF928B
:104C0000FF920F931F93CF93DF936C01EB018A0107
:104C10000E94AA27F82E811123C00115110539F031
:104C2000F80180819181C81BD90BC80ED91EB12C07
:104C3000A12C2097A9F08091E80085FD22C08091E9
:104C4000E8008E778093E80001151105A1F0F801C6
:104C500080819181A80EB91EB182A08285E0F82ED4
:104C60008F2DDF91CF911F910F91FF90DF90CF900B
:104C7000BF90AF9008950E94AA278823D1F2F82E02
:104C8000EFCFF60181916F018093F1002197FFEF43
:104C9000AF1ABF0ACECFAF92BF92CF92DF92FF92F0
:104CA0000F931F93CF93DF936C01EB018A010E9456
:104CB000AA27F82E811123C00115110539F0F8013A
:104CC00080819181C81BD90BC80ED91EB12CA12C93
:104CD0002097A9F08091E80085FD22C08091E8002E
:104CE0008B778093E80001151105A1F0F801808110
:104CF0009181A80EB91EB182A08285E0F82E8F2D79
:104D0000DF91CF911F910F91FF90DF90CF90BF90D7
:104D1000AF9008950E94AA278823D1F2F82EEFCFF2
:104D20008091F100F60181936F012197FFEFAF1A97
:104D3000BF0ACECFFC0180912E0390912F038617DE
:104D40009707A0F06115710529F49091E8009E770E
:104D50009093E80090E06115710551F4911108C03D
:104D60008091E80082FF34C080E00895BC01F2CF5A
:104D7000809127038823C1F18530C1F18091E8003B
:104D800083FD30C08091E80082FDEACF8091E80089
:104D900080FFE1CF8091F3002091F200382F611560
:104DA000710519F02830310558F091E028303105AF
:104DB00009F090E02091E8002E772093E800CBCF17
:104DC00081918093F100615071092F5F3F4FE7CFD0
:104DD00080912703882341F0853041F08091E800DD
:104DE00083FFBECF81E0089582E0089583E00895B7
:104DF000FC0180912E0390912F0386179707A0F056
:104E00006115710529F48091E8008E778093E800A0
:104E100090E06115710551F4911108C08091E8008E
:104E200082FF35C080E00895BC01F2CF8091270356
:104E30008823C9F18530C9F18091E80083FD31C034
:104E40008091E80082FDEACF8091E80080FFE1CF09
:104E50008091F3002091F200382F6115710519F04F
:104E60002830310558F091E02830310509F090E004
:104E70008091E8008E778093E800CBCF8491809377
:104E8000F1003196615071092F5F3F4FE6CF80915D
:104E90002703882341F0853041F08091E80083FFAB
:104EA000BDCF81E0089582E0089583E00895982FB2
:104EB000973028F08F708093E90081E008959093F7
:104EC000E900242F762F50E0981731F07091EC0014
:104ED0002091ED005091F00021FD02C09F5FE8CFCE
:104EE0003091EB003E7F3093EB003091ED003D7F41
:104EF0003093ED003091EB0031603093EB00709314
:104F0000EC002093ED005093F0002091EE0027FD7F
:104F1000E5CF80E008958091280387FF13C080913A
:104F2000E80082FF06C08091E8008B778093E8005C
:104F300004C0809127038111F2CF08958091270347
:104F40008823D9F38091E80080FFF8CF8091E800B2
:104F50008E77ECCF2091E4003091E50095E6A90131
:104F60002091EC00822F817020FF06C08091E80024
:104F700080FF06C080E008952091E80022FD1AC05D
:104F800080912703882389F0853089F08091EB0098
:104F900085FD0FC02091E4003091E50042175307D2
:104FA000F9F29150E1F684E0089582E0089583E0FB
:104FB000089581E008950E9449280E945128E0EE5A
:104FC000F0E0808181608083E8EDF0E080818F7780
:104FD000808319BCA7EDB0E08C918E7F8C9380818B
:104FE0008F7E80831092260308950F931F93CF9393
:104FF000DF930E9449280E945128C8EDD0E08881A3
:105000008F77888388818068888388818F7D888373
:1050100019BC1092270310922303109225031092BB
:10502000240300EE10E0F80180818B7F808388816B
:105030008160888342E060E080E00E945727E1EED3
:10504000F0E080818E7F8083E2EEF0E080818160FD
:105050008083808188608083F80180818E7F808357
:10506000888180618883DF91CF911F910F9108958E
:10507000E8EDF0E080818F7E8083E7EDF0E08081D5
:105080008160808384E082BF81E0809326030C945A
:10509000F527E8EDF0E080818E7F80831092E200BA
:1050A00008951092DA001092E10008951F920F9275
:1050B0000FB60F9211242F933F934F935F936F93EB
:1050C0007F938F939F93AF93BF93EF93FF938091C1
:1050D000E10082FF0BC08091E20082FF07C0809157
:1050E000E1008B7F8093E1000E94C02A8091DA006A
:1050F00080FF19C08091D80080FF15C08091DA0030
:105100008E7F8093DA008091D90080FF96C080E185
:1051100089BD82E189BD09B400FEFDCF81E08093A5
:1051200027030E9439248091E10080FF19C08091FB
:10513000E20080FF15C08091E2008E7F8093E20044
:105140008091E20080618093E2008091D8008062CB
:105150008093D80019BC85E0809327030E944B24DC
:105160008091E10084FF2BC08091E20084FF27C082
:1051700080E189BD82E189BD89B5982F917080FF5A
:10518000FBCF8091D8008F7D8093D8008091E10083
:105190008F7E8093E1008091E2008F7E8093E20019
:1051A0008091E20081608093E20080912303882354
:1051B00009F449C084E0809327030E944C24809125
:1051C000E10083FF29C08091E20083FF25C0809128
:1051D000E100877F8093E10082E0809327031092B3
:1051E00023038091E1008E7F8093E1008091E200B3
:1051F0008E7F8093E2008091E20080618093E200E4
:1052000042E060E080E00E9457278091F0008860D3
:105210008093F0000E944A24FF91EF91BF91AF91DB
:105220009F918F917F916F915F914F913F912F91BE
:105230000F900FBE0F901F90189519BC1092270366
:105240000E94472470CF8091E30087FD93E0909304
:105250002703B3CF1F920F920FB60F9211242F93F3
:105260003F934F935F936F937F938F939F93AF93EE
:10527000BF93CF93DF93EF93FF93D091E900DF705B
:105280008091EC00C82FC17080FDC0E81092E90049
:105290008091F000877F8093F00078940E946E29BF
:1052A0001092E9008091F00088608093F000CD2B8F
:1052B000CF70C093E900FF91EF91DF91CF91BF9143
:1052C000AF919F918F917F916F915F914F913F919E
:1052D0002F910F900FBE0F901F9018951F93CF9393
:1052E000DF93CDB7DEB7AA970FB6F894DEBF0FBE37
:1052F000CDBF88E293E02091F100FC012193CF0122
:10530000F3E080339F07B9F70E9462248091E800A0
:1053100083FF1EC180912803909129039A3008F0E1
:1053200017C1E92FF0E0EB56F34D0C94402B803879
:1053300099F0823809F00CC180912C038F7087306E
:1053400008F006C18093E9008091EB0085FB882777
:1053500080F91092E90006C0809124039091250302
:10536000911182609091E800977F9093E80080937C
:10537000F1001092F1008091E8008E77E5C088235B
:1053800009F4D3C0823009F0E3C080912A0381116F
:10539000D6C080912C038F702FEF280F263008F095
:1053A000D7C08093E9002091EB0020FFC8C0933064
:1053B00031F48091EB0080628093EB00C0C090914B
:1053C000EB0090619093EB0021E030E001C0220FF0
:1053D0008A95EAF72093EA001092EA008091EB00A8
:1053E0008860EACF8111B4C010912A031F778091A1
:1053F000E3008078812B8093E3008091E800877F31
:105400008093E8000E948B278091E80080FFFCCF0A
:105410008091E30080688093E30082E0111183E0D3
:105420008093270395C08058823008F091C0809106
:105430002A0390912B038C3D23E09207A1F583E092
:105440008A838AE289834FB7F894DE01139620E0BD
:105450003EE051E2E32FF0E050935700E49120FF4B
:1054600003C0E295EF703F5FEF708E2F90E0EA305F
:10547000C0F0C7968D939D932F5F243159F74FBF8E
:105480008091E800877F8093E8006AE270E0CE01B7
:1054900001960E949A268091E8008B778093E8001D
:1054A00057C0C096E7CF60912C0370912D03AE01D9
:1054B0004F5F5F4F0E948725BC01892B09F448C0CC
:1054C0009091E800977F9093E80089819A810E94EB
:1054D000F826E1CF8038E1F58091E800877F80935E
:1054E000E800809123038093F10045CF811130C003
:1054F00090912A03923060F58091E800877F809335
:10550000E800909323030E948B2780912303882334
:1055100011F084E005C08091E30087FDFACF81E0BF
:10552000809327030E944E2413C080912A03813068
:1055300079F481E0933009F080E0809325031092A4
:10554000E9008091E800877F8093E8000E948B2724
:105550008091E80083FF0AC08091E800877F8093F4
:10556000E8008091EB0080628093EB00AA960FB672
:10557000F894DEBF0FBECDBFDF91CF911F9108958C
:105580000895CF93809127038823A1F0C091E9006B
:10559000CF709091EC00892F817090FD80E8C82B2E
:1055A0001092E9008091E80083FD0E946E29CF707F
:1055B000C093E900CF910895991B79E004C0991F29
:1055C000961708F0961B881F7A95C9F7809508955D
:1055D00087FB082E062687FD819567FD61950E9451
:1055E000DC2A0EF4919507FC81950895AA1BBB1B3C
:1055F00051E107C0AA1FBB1FA617B70710F0A61BD3
:10560000B70B881F991F5A95A9F780959095BC01F3
:10561000CD01089597FB072E16F4009407D077FD6F
:1056200009D00E94F62A07FC05D03EF4909581959A
:105630009F4F0895709561957F4F0895A1E21A2EAE
:10564000AA1BBB1BFD010DC0AA1FBB1FEE1FFF1F26
:10565000A217B307E407F50720F0A21BB30BE40B76
:10566000F50B661F771F881F991F1A9469F76095BD
:105670007095809590959B01AC01BD01CF01089577
:10568000EE0FFF1F0590F491E02D099469279627EE
:10569000692778278727782708950E94552B332379
:1056A00012F48A1B9B0B0C94662BA29FB001B39F34
:1056B000C001A39F700D811D1124911DB29F700D1B
:1056C000811D1124911D08950E94552BB7FF089547
:1056D000821B930B08950E94552BA59F900DB49F9C
:1056E000900DA49F800D911D11240895B7FF0C9477
:1056F0006B2B0E946B2B821B930B08958F929F92B2
:10570000AF92BF92CF92DF92EF92FF92CF93DF934F
:10571000EC01688179818A819B8161157105810520
:10572000910521F464E279ED8BE597E02DE133EF0B
:1057300041E050E00E942F2C49015A019B01AC012D
:10574000A7EAB1E40E946B2B6B017C01ACEEB4EFD5
:10575000A50194010E94792BDC01CB018C0D9D1DCC
:10576000AE1DBF1DB7FF03C00197A109B0488883D4
:105770009983AA83BB839F77DF91CF91FF90EF90AE
:10578000DF90CF90BF90AF909F908F9008950E9430
:105790007E2B089580E091E00E947E2B0895B0E07A
:1057A000A0E08093000190930101A0930201B093C7
:1057B00003010895FC014150504030F0019006165D
:1057C000D1F73197CF010895882799270895F9993E
:1057D000FECF92BD81BDF89A992780B50895A6E1C4
:1057E000B0E044E050E00C94212CA8E1B0E042E0AD
:1057F00050E00C94212C262FF999FECF92BD81BD4B
:10580000F89A019700B4021639F01FBA20BD0FB6FE
:10581000F894FA9AF99A0FBE08950396272F0E94DA
:10582000FC2B0E94FB2B252F0E94FC2B242F0C9479
:10583000FC2B0196272F0E94FC2B0C94FB2BDC01E8
:10584000CB01FC01F999FECF06C0F2BDE1BDF89A8B
:10585000319600B40D9241505040B8F70895052E8E
:1058600097FB1EF400940E94462C57FD07D00E941F
:105870001E2B07FC03D04EF40C94462C50954095FB
:10588000309521953F4F4F4F5F4F089590958095EC
:10589000709561957F4F8F4F9F4F0895F894FFCF7C
:1058A00016101E1025102A102F10341039103E101B
:1058B000431048104D10521056105B105E106110CE
:1058C0006410671069106C109911A611CD11D911CF
:1058D000E411EF11F211F511F81141124412FB110C
:1058E000FF11071214122112241227123412A718C2
:1058F000A718FF18FF185119D418D418D4186D1907
:10590000F919081A081A641AD418D4186D1ADE1A6C
:10591000DE1AE71AE71AE91AE71AE71AE71ADE1A8F
:10592000DE1AEE1AE71AE71AEE1A9729BF29A82AF3
:0E593000BF29A82AF229132AA82A6A2A762A51
:10593E0001000000010102000C000C0C01191A1BE1
:10594E001C1D1E1F2021229D029123CF239423CBA9
:10595E0023C72301E200E900EA00B500B600B70054
:10596E00CD008301CC008A01920194012102230211
:10597E0024022502260227022A02B300B4006F0079
:10598E007000818283F0F1F4F5F6F76766363534F0
:10599E00979694333290919293000102020202067E
:1059AE0006060909090909090F0F0F0F0F0F151523
:1059BE001518191919191919191919192324252521
:1059CE0025252525E200E900EA00B500B600B7005E
:1059DE00CD008301CC008A019201940121022302A1
:1059EE0024022502260227022A02B300B4006F0009
:1059FE00700081828340226DA40615063706BA0513
:045A0E00D305F305C4
:00000001FF
