:100000000C94AE050C94F5050C94F5050C94F505CF
:100010000C94F5050C94F5050C94F5050C94F50578
:100020000C94F5050C94F5050C94B3130C94C318BB
:100030000C94372B0C94F5050C94F5050C94F505F0
:100040000C94F5050C94F5050C94F5050C94F50548
:100050000C94F5050C948A140C94F5050C94F50594
:100060000C94F5050C94F5050C94F5050C94F50528
:100070000C94F5050C94F5050C94F5050C94F50518
:100080000C94F5050C94F5050C94F5050C94F50508
:100090000C94F5050C94F5050C94F5050C94F505F8
:1000A0000C94F5050C94F5050C94F5050501090271
:1000B000A10185020901A1000509190129081500FE
:1000C0002501950875018102050109300931158165
:1000D000257F95027508810609381581257F9501D0
:1000E00075088106050C0A38021581257F95017572
:1000F000088106C0C005010980A101850319012AF4
:10010000B700150126B700950175108100C0050CD8
:100110000901A101850419012AA002150126A002E6
:10012000950175108100C005010906A1018505052D
:100130000719E029E71500250195087501810205D9
:1001400007190029EF1500250195F07501810205B9
:10015000081901290595057501910295017503910D
:1001600001C00660FF0961A1010962150026FF00B8
:100170009520750881020963150026FF00952075FA
:10018000089102C005010906A101050719E029E748
:1001900015002501950875018102950175088101F9
:1001A0000507190029FF150026FF0095067508812F
:1001B000000508190129059505750191029501753C
:1001C000039101C0000101010101010101010202CD
:1001D00002020202020202030303030303030304F5
:1001E00004040404040405050505050606060606C0
:1001F000070707070708080808090909090A0A0A7A
:100200000B0B0B0C0C0C0D0D0D0E0E0E0F0F0F101B
:1002100010111111121213131414151516161717A5
:10022000181819191A1A1B1B1C1D1D1E1E1F202011
:10023000212222232424252626272829292A2B2C5B
:100240002D2D2E2F30313232333435363738393A7E
:100250003B3C3D3E3F404142434445464748494A76
:100260004C4D4E4F50515354555658595A5B5D5E44
:100270005F616264656668696B6C6D6F70727375DF
:1002800077787A7B7D7E8082838587888A8C8E8F43
:1002900091939596989A9C9EA0A2A3A5A7A9ABAD71
:1002A000AFB1B3B5B7BABCBEC0C2C4C6C9CBCDCF5F
:1002B000D1D4D6D8DBDDDFE2E4E7E9EBEEF0F3F50D
:1002C000F8FAFDFFFFAA7F55402223252628292A78
:1002D0002C2D2F3032333536383A3B3D3E404243A9
:1002E0004547494A4C4E5051535557595A5C5E60E8
:1002F00062646668696B6D6F71737577797B7D7FFA
:1003000081838587898A8C8E90929496989A9C9EF8
:100310009FA1A3A5A7A8AAACAEAFB1B3B4B6B8B914
:10032000BBBCBEBFC1C2C3C5C6C7C9CACBCCCDCE7C
:10033000D0D1D2D2D3D4D5D6D7D7D8D9D9DADADB5F
:10034000DBDBDCDCDCDCDCDDDDDDDDDCDCDCDCDCEB
:10035000DBDBDBDADAD9D9D8D7D7D6D5D4D3D2D22A
:10036000D1D0CECDCCCBCAC9C7C6C5C3C2C1BFBE12
:10037000BCBBB9B8B6B4B3B1AFAEACAAA8A7A5A37D
:10038000A19F9E9C9A98969492908E8C8A8987853C
:1003900083817F7D7B79777573716F6D6B6968661B
:1003A0006462605E5C5A5957555351504E4C4A49ED
:1003B00047454342403E3D3B3A3836353332302F95
:1003C0002D2C2A292826252322290014001A00086A
:1003D00000150017001C0018000C00120013002A62
:1003E0000000005F00600061002B000400160007A1
:1003F0000009000A000B000D000E000F000000288D
:100400000000005C005D005E00E1001D001B0006B6
:100410000019000500110010003600000000003730
:1004200000520059005A005B00E000E20001512C2C
:100430000000002A0002510000E00000000000500F
:100440000051004F006200035135001E001F0020C4
:100450000021002200230024002500260027004C54
:10046000000000240025002600010035002D002E8C
:100470000001000100010001000100010000000175
:100480000000002100220023000100010001000102
:1004900000010001000100010038000000000031EF
:1004A000004B001E001F00200001000100010001A0
:1004B000000000010001000000010000000000B683
:1004C000004E00B700270053003A003B003C003DBF
:1004D000003E003F00400041004200430044004510
:1004E000000000C35CC45CC75C01000100010001A6
:1004F00000010001000100010001002F0000003098
:10050000000000C55CC65CC85C0100010001000180
:10051000000100010001000100360000000000376A
:10052000005200C95CCA5C20006500E20001002C9A
:100530000000002A000100000076000000000050CA
:100540000051004F002700C25C29003A003B003CEC
:10055000003D003E003F0040004100420043004497
:100560000000005400550056000100010001000188
:100570000001000100010001000100010000000174
:1005800000000063000000570001000100010001AD
:100590000001000100010001000100000000000155
:1005A00000010052002A0000005800010001000173
:1005B0000000000100010000000100000000000137
:1005C00000500051004F00530000AF000000000039
:1005D000000000000000000000000000000000001B
:1005E0000000000000000000000000000000007E8D
:1005F0000F00D4FFFFFFC7000000780000000000DC
:100600000000002A2B28000000000000000000006D
:1006100000000000000029000000002C1E342021F2
:100620002224342627252E362D3738271E1F202139
:1006300022232425263333362E37381F0405060798
:1006400008090A0B0C0D0E0F1011121314151617B2
:1006500018191A1B1C1D2F3130232D3504050607D0
:1006600008090A0B0C0D0E0F101112131415161792
:1006700018191A1B1C1D2F3130354C00DA0281FF6E
:10068000D9F1DB20A4A62EAF00A0C000A1C800AE07
:10069000D580A81FD300408D1420001E0F05000434
:1006A0007F3F1F643214643214783C1E1E140A0506
:1006B000FFFFFFFF7F3F1F0F8FFF7F1F0F0F1F3FAA
:1006C0003F3F3F7F7F3F3F3F3F3F3F7FFFFFFFFF7A
:1006D000FFFFFF7C3808040203E39808080C0000C1
:1006E000000C0C9E00000000FE000000FFFFFFFF5A
:1006F000FFFFFFFCF800000000FF030101FF000006
:10070000006163F7000000003F000000FFFFFFFFF3
:10071000FFFFFFFF7F302020303F3838383838382F
:100720003838383C302020303F3E7EFFFFFFFFFF4F
:10073000FFFFFFFF000000FCBC14040404040000E1
:10074000000404040414BC00000000FFFFFFFFFFCE
:10075000FFFFFFFF0000003F7F3B30000004040468
:10076000040400000043FF00000000FFFFFFFFFF44
:10077000FFFFFFFFC08080C3C3C2C2C2C3C2C0C0EC
:10078000C2C3C2C2C24243C08080C0FFFFFFFFFF9E
:10079000FFFFFFFFFFFFFFFFFF7FBFDFEF679B9DB7
:1007A0006E75B3C5CE57BBDCEDF3FFFFFFFFFFFF58
:1007B000FFFFFFFFFFFFF3EDCEB73ADCE873A3CDF9
:1007C000EEF6F9FDFEFFFFFFFFFFFFFFFFFFFFFF5C
:1007D000FFFFFFFFFF8F87878787878686070707CB
:1007E0000707878787878787878FFFFFFFFFFFFFC1
:1007F000FFFFFFFFFFFFFFFFFFFFFFFFFF00000006
:100800000000FFFFFFFFFFFFFFFFFFFFFFFFFFFFF6
:10081000FFFFFF9F0F0F0F0F0F0F0F0F0F000000B5
:1008200000000F0F0F0F0F0F0F0F0F9FFFFFFFFFA6
:10083000FFFFFFFF9F8F8F8F8F8F8F8F8F8F8F8FF8
:100840008F8F8F8F8F8F8F8F8F8F8FFFFFFFFFFF88
:10085000FFFFFFFFFFFF01000000888888888808ED
:100860000808088888808080C1FFFFFFFFFFFFFF26
:10087000FFFFFFFF3F03000080F8F878180000003A
:10088000808888888808080808F8F8FDFFFFFFFFBF
:10089000FFFFFFFDF8F8F8FCFCF8F8F8F8FCFEFFA5
:1008A000FFFFF9F1F1F0F0F8FCFFFFFFFFFFFFFFA2
:1008B000FFFFFFFF7F3F1F0F8FFF7F1F0F0F1F3FA8
:1008C0003F3F3F7F7F3F3F3F3F3F3F7FFFFFFFFF78
:1008D000FFFFFF7C3808040203E39808080C0000BF
:1008E000000C0C9E00000000FE000000FFFFFFFF58
:1008F000FFFFFFFCF800000000FF030101FF000004
:10090000006163F7000000003F000000FFFFFFFFF1
:10091000FFFFFFFF7F302020303F3838383838382D
:100920003838383C302020303F3E7EFFFFFFFFFF4D
:10093000FFFFFFFF000000FCBC14040404040000DF
:10094000000404040414BC00000000FFFFFFFFFFCC
:10095000FFFFFFFF0000003F7F3B30000004040466
:10096000040400000043FF00000000FFFFFFFFFF42
:10097000FFFFFFFFC08080C3C3C2C2C2C3C2C0C0EA
:10098000C2C3C2C2C2C2C3C08080C0FFFFFFFFFF9C
:10099000FFFFFFFFFFFFFFFF0100FCFCFC1C0C0C36
:1009A0000C0C1CFCFCFC0001FFFFFFFFFFFFFFFF26
:1009B000FFFFFFFFFFFFFFFF80003F3F3F3F3E3055
:1009C000303E3F3F3F3F0080FFFFFFFFFFFFFFFF45
:1009D000FFFFFFFFFF8F87878787878787070707C7
:1009E0000707878787878787878FFFFFFFFFFFFFBF
:1009F000FFFFFFFFFFFFFFFFFFFFFFFFFF00000004
:100A00000000FFFFFFFFFFFFFFFFFFFFFFFFFFFFF4
:100A1000FFFFFF9F0F0F0F0F0F0F0F0F0F000000B3
:100A200000000F0F0F0F0F0F0F0F0F9FFFFFFFFFA4
:100A3000FFFFFFFF9F8F8F8F8F8F8F8F8F8F8F8FF6
:100A40008F8F8F8F8F8F8F8F8F8F8FFFFFFFFFFF86
:100A5000FFFFFFFFFFFF01000000888888888808EB
:100A60000808088888808080C1FFFFFFFFFFFFFF24
:100A7000FFFFFFFF3F03000080F8F8781800000038
:100A8000808888888808080808F8F8FDFFFFFFFFBD
:100A9000FFFFFFFDF8F8F8FCFCF8F8F8F8FCFEFFA3
:100AA000FFFFF9F1F1F0F0F8FCFFFFFFFFFFFFFFA0
:100AB00000AE09025B00030100A0FA090400000176
:100AC00003010100092111010001224000070581F5
:100AD0000308000A090401000203000000092111B3
:100AE00001000122220007058203200001070503FF
:100AF0000320000109040200010300000009211184
:100B000001000122B6000705840320000A1201102B
:100B10000100000008776D56C40100010200011CAD
:100B200003430068006F0063006F006C0061007495
:100B30000065002000420061007200000018034DB3
:100B400000690073006F006E006F0057006F007245
:100B5000006B0073000000040309040011241FBE91
:100B6000CFEFDAE0DEBFCDBF04B603FE27C0809131
:100B7000600590916105A0916205B0916305873091
:100B8000904BA740B04BD1F41092600510926105D4
:100B9000109262051092630514BE84B7877F84BFEC
:100BA0000FB6F894A89580916000886180936000EA
:100BB000109260000FBEE0E0F8E3099525E0ACEC90
:100BC000B1E001C01D92A036B207E1F711E0A0E04C
:100BD000B1E0ECE0FCE502C005900D92AC3CB10741
:100BE000D9F70E944A240C94B92D0C940000CF939D
:100BF000DF9340915E0550915F054E5553409A0139
:100C00003E5F21303240C0F020E032E0241B350B43
:100C100060915C0370915D03FC01CA01240F351FD4
:100C2000C1E0D0E08217930750F070935D036093AA
:100C30005C03DF91CF91089520E032E0E9CF449149
:100C4000DC01A25ABC4F5C91451781F04C93AC017A
:100C5000A5E056954795AA95E1F7DE0102C0AA0FD7
:100C6000BB1F4A95E2F7AD016A2B752B01963196B1
:100C7000D9CFE8EDF0E080818E7F80831092E20092
:100C80001092DA001092E100A0EEB0E08C91816049
:100C90008C9380818F77808319BCA7EDB0E08C9115
:100CA0008E7F8C9380818F7E80831092260308959F
:100CB0002091E4003091E50095E6A9012091EC0037
:100CC000822F817020FF06C08091E80080FF06C05F
:100CD00080E008952091E80022FD1AC080914B0326
:100CE000882389F0853089F08091EB0085FD0FC065
:100CF0002091E4003091E50042175307F9F291503A
:100D0000E1F684E0089582E0089583E0089581E0AB
:100D10000895EF92FF920F931F93CF937C018B0165
:100D20000E945806C82F811117C08091E80085FDE8
:100D30000BC08091E8008E778093E8000E945806EF
:100D4000882399F3C82F08C0F70181917F01809310
:100D5000F1000150110949F78C2FCF911F910F918C
:100D6000FF90EF90089580914D0387FF13C080910D
:100D7000E80082FF06C08091E8008B778093E8004E
:100D800004C080914B038111F2CF089580914B03F1
:100D90008823D9F38091E80080FFF8CF8091E800A4
:100DA0008E77ECCF982F9093E900242F762F50E088
:100DB000891731F07091EC002091ED005091F00016
:100DC00021FD07C09F5F973071F78093E90081E0B4
:100DD00008953091EB003E7F3093EB003091ED00B1
:100DE0003D7F3093ED003091EB0031603093EB00AC
:100DF0007093EC002093ED005093F0002091EE00F2
:100E000027FDE0CF80E00895CF92DF92EF92FF922E
:100E10000F931F93CF93DF93C8EDD0E088818F7E2F
:100E20008883E7EDF0E080818160808384E082BF89
:100E300081E08093260388818E7F888302EE10E014
:100E4000F80110821092DA0081EEC82ED12CF60142
:100E5000108288818F7788838881806888838881E1
:100E60008F7D888319BC10924B0310924C03109213
:100E70004A031092490390EEE92EF12CF70180818C
:100E80008B7F808388818160888342E060E080E09E
:100E90000E94D206F60180818E7F8083F8018081D6
:100EA00081608083808188608083F70180818E7F6C
:100EB0008083888180618883DF91CF911F910F911A
:100EC000FF90EF90DF90CF900895FC018091530345
:100ED0009091540386179707A0F06115710529F4C6
:100EE0009091E8009E779093E80090E0611571057D
:100EF00051F4911108C08091E80082FF34C080E075
:100F00000895BC01F2CF80914B038823C1F1853055
:100F1000C1F18091E80083FD30C08091E80082FD3E
:100F2000EACF8091E80080FFE1CF8091F30020912B
:100F3000F200382F6115710519F02830310558F08D
:100F400091E02830310509F090E02091E8002E77FB
:100F50002093E800CBCF81918093F100615071091B
:100F60002F5F3F4FE7CF80914B03882341F08530BF
:100F700041F08091E80083FFBECF81E0089582E0D8
:100F8000089583E00895089580E0089580912803EE
:100F900008959C014FB7F8948091C2029091C302CA
:100FA000A091C402B091C5024FBF821B930B08955C
:100FB0002FB7F8946091C2027091C3028091C4026D
:100FC0009091C5022FBF08958091BD0281111092AA
:100FD000BD0208958091BC029091BB02892B909133
:100FE000BA02892B8093CE019091BD029923A1F082
:100FF000892B8093CE0180912401882341F1809137
:10100000CF0287FF24C08EE1E0EDF1E090E0815057
:1010100000F591110E94E407E091D902F091DA0203
:101020003097E1F080912401882359F08091CF021C
:1010300087FF07C08091CE018093CF0185E0809328
:10104000CE010280F381E02D8EEC91E0099486E0E0
:10105000DBCF21912223D9F29F5FD9CF08959091C0
:1010600024019923D1F09091CF0297FF16C0E82F69
:10107000E695E695E695EE31E0F4F0E0E253FE4FBA
:10108000282F277081E090E001C0880F2A95EAF7A9
:1010900080959281892382830895E0EDF1E091911A
:1010A000891303C0DF0111971C9291E0E63DF90717
:1010B000B1F70895909124019923C1F09091CF0246
:1010C00097FF14C0E82FE695E695E695EE31F8F423
:1010D000F0E0E253FE4F877021E030E001C0220FC4
:1010E0008A95EAF78281822B82830895A0EDB1E090
:1010F000EFEF90E02D91821751F0EF3F19F421119D
:1011000001C0E92F9F5F9630A9F7EF3F09F40895DA
:101110000E2E000CFF0BE253FE4FE6CF9295907F10
:10112000890F982F977086958695869525E0829FE2
:10113000F0011124EF56FD4F50E040E080E0219196
:1011400030E0092E02C0369527950A94E2F7217007
:101150003327042E01C0220F0A94EAF7822B4F5F37
:101160005F4F4530510559F708959295907F890F4B
:10117000982F977041E001C0440F9A95EAF7869541
:101180008695869595E0899FF0011124EF56FD4FD5
:1011900030E020E070E05191DF011197CB01022E89
:1011A00002C0969587950A94E2F78170819585270C
:1011B000842385278C932F5F3F4F2530310559F7C6
:1011C00008958091900290915F02981301C0089554
:1011D0008F5F8770FACF882341F080959091BC0291
:1011E00089238093BC020C94EA070895882339F080
:1011F0009091BC02982B9093BC020C94EA0708953E
:1012000020915602309157022817390771F09093B8
:10121000570280935602E091D902F091DA0230979A
:1012200021F00084F185E02D099408952091540265
:10123000309155022817390771F090935502809329
:101240005402E091D902F091DA02309721F0068041
:10125000F781E02D09940895E091D902F091DA0226
:10126000309721F00190F081E02D099480E00895FD
:10127000FA01811101C0FB01099480911903982F93
:101280009E7F29F4817082608093190308958635CA
:10129000E8F381708465F8CFAF92BF92DF92EF924E
:1012A000FF920F931F93CF93DF93082F162FE9011F
:1012B000E42FF0E0EC53FE4F611110C0E4915E2F7B
:1012C0004E2F4983E8835A83DF91CF911F910F916D
:1012D000FF90EF90DF90BF90AF900895E62EF12C35
:1012E0004491D42EE42FF0E026E0829FC001112427
:1012F0002FEF30E0B9010E94612C802F90E0880F21
:10130000991F55E5569FD001579FB00D11248A1B98
:101310009B0B982F990F890F5901AE18BF08AE9EED
:10132000D001AF9EB00DBE9EB00D11245B2F189F53
:1013300080011124012F11275901A01AB10AAE9E74
:101340008001AF9E100DBE9E100D11245901A81AE8
:10135000B108AE9CC001AF9C900DBE9C900D1124B5
:10136000892F9927281B390B2E9FC0012F9F900D85
:101370003E9F900D1124E92F62307105A1F050F4C9
:101380006115710509F49DCF6130710581F0EB2F76
:10139000512F97CF6430710569F080F06630710588
:1013A00009F48FCFF4CFE42F4B2F592F8ACFE42F9E
:1013B000412F87CFEB2F542F492F83CF4B2F5D2DFC
:1013C000E12F7FCF803F39F480910A0387FF29C046
:1013D00010920A030895813F29F480910A03181698
:1013E000BCF30895823F39F48091090387FF19C047
:1013F000109209030895833F29F480910903181678
:10140000BCF30895893F39F480910B0318164CF40E
:1014100010920B0308958A3F29F480910B0387FDF6
:10142000F7CF08958B3F39F480910C0387FFF9CFF4
:1014300010920C0308958C3F29F480910C03181628
:10144000BCF308959CE0980F953058F7845F990B92
:1014500021E030E0A90102C0440F551F8A95E2F750
:10146000CA01809590910803892380930803D9CFFE
:1014700040911901242F30E0220F331FF901E35D61
:10148000FE4F9081803F09F077C0919590930A03B9
:1014900080911901481709F46EC090E0880F991FD8
:1014A000FC01E35DFE4F20818B5D9E4FFC0180813E
:1014B00090910903191614F42093090390910903DC
:1014C00097FF04C0922F91959093090390910A037E
:1014D000191614F420930A0390910A0397FF03C08E
:1014E000219520930A0390910C03191614F480930C
:1014F0000C0390910C0397FF04C0982F9195909343
:101500000C0390910B03191614F480930B03909124
:101510000B0397FF03C0819580930B033091090360
:101520003323B1F020910A03222391F045EB3403D9
:10153000C0011124992309F460C09093090345EB7D
:10154000240390011124332309F45BC030930A0370
:1015500040910C03442379F030910B03332359F06D
:1015600025EB4203A001112450930C033203900198
:10157000112430930B030895813F09F487CF823FF4
:1015800021F491959093090383CF833FD9F32B5D89
:101590003E4FF9019081893F19F490930B0378CF66
:1015A0008A3F11F49195F9CF8B3F21F49195909357
:1015B0000C036ECF8C3FD9F39CE0980F953070F4FC
:1015C000845F990B21E030E001C0220F8A95EAF791
:1015D00080910803822B809308035ACF8D3F21F41A
:1015E00081E08093190154CF8E3F11F482E0F9CF4E
:1015F0008F3F09F04DCF83E0F4CF81E08093090362
:101600009ECF81E080930A03A3CFF894E82FE29560
:10161000EF70F0E031A1282F2F7081E090E001C041
:10162000880F2A95EAF7982F9095932391A392A17A
:10163000892B82A3789408959091CF0292FF06C0DF
:10164000282F28712830F9F4877F846093FF06C023
:10165000282F28712831F1F4877E84612091D002EF
:1016600020FF06C0382F38713830D9F4877F816069
:1016700021FF06C0282F28712831D1F4877E81618F
:1016800094FD877E0895282F24712430F9F68B7FEE
:101690008860DCCF282F2471243101F78B7E88618C
:1016A000DDCF382F3171313019F78E7F8860E0CF70
:1016B000282F2171213121F78E7E8861E1CFCF92D1
:1016C000DF92EF92FF920F931F93CF93DF936C0102
:1016D0007B0164E670E088E70E94642BEC0197FDD3
:1016E00012C010E000E0F601E00FF11F849164E603
:1016F00070E00E94C02BEC01892B29F40F5F1F4F73
:101700000E151F0581F70E94432CCE01DF91CF916A
:101710001F910F91FF90EF90DF90CF900895CF939E
:10172000C0910103809102038823D1F00E94D80761
:10173000605A75418F4F9F4F6093FD027093FE0278
:101740008093FF0290930003C11108C062E070E033
:1017500089EC95E00E945F0B892B29F0C091010371
:101760008C2FCF91089581E080930103F7CFCF9321
:1017700084E090E00E940E2DC82F81E290E00E944C
:101780000E2D982F8C2FCF9108950F931F93CF93E9
:10179000DF9320E2629FE001112450E0440F551FC7
:1017A000C40FD51F30E8839FC0011124C80FD91F73
:1017B000CE0186960E940E2D082F10E0102F0027D4
:1017C000CE0187960E940E2D9801282BC901DF912A
:1017D000CF911F910F910895462F843038F47430C3
:1017E00028F4603118F4672F0C94C50B90E080E06A
:1017F0000895CF93DF930E94EC0BEC0182389105A2
:10180000A9F1D8F58133910509F496C048F58932DC
:10181000910509F48AC08A9709F495C0C11521E59C
:10182000D20708F0BCC0C11530E5D30708F014C1D9
:10183000C83ED10508F09CC0C03ED10560F5C83A4D
:10184000D10508F087C0C53AD10508F0FDC0C13008
:10185000D10509F12097F9F0C430D105E0F440C07A
:101860008533910509F45AC0C997C1F68091CF021A
:10187000837089F0C0EED0E00EC0833E910599F1EF
:1018800070F4803E910501F1823E910539F6809118
:10189000CF0282FD21C0CE01DF91CF910895863E17
:1018A000910561F1873E910571F1843E910509F042
:1018B000B5CF8091D00281FFEECF8091CF02C7EEED
:1018C000D0E084FD0DC0E7CF8091CF0280FD12C132
:1018D0009091D00290FFDFCFC3EED0E084FFDBCF4A
:1018E000D0E0C0E0D8CF8091CF0282FD06C19091B8
:1018F000D00290FDBFCF84FFCECFF2CF8091CF0238
:1019000083FDDDCFC8CF8091CF0283FDF9C09091D8
:10191000D00291FFF0CFC4EED0E0BDCF8091CF02D6
:1019200085FFB9CFC9E2D0E0B6CF8091CF0285FF65
:10193000B2CFC5E3D0E0AFCF8091CF0286FFABCF6F
:10194000CAE2D0E0A8CF8091CF0286FFA4CFC1E346
:10195000D0E0A1CFCF3BD10518F6C85AD0E0CC0FCC
:10196000DD1FCD59DE4F0990D881C02DD46493CFAF
:10197000C11540E2D40758F4C11581E0D80708F03A
:101980008ACFC03FD10508F4ABCFD06584CFC11555
:1019900090E4D90708F4A4CFDF70D06A7CCFC115DA
:1019A00025E5D20700F5C11534E5D30708F08AC054
:1019B000C11543E5D40708F071C0C11582E5D80709
:1019C00008F467C0CE018370992721E030E002C09F
:1019D000220F331F8A95E2F7C695C69580E2C89F0D
:1019E000E001112452C0C11599E5D907A8F4C11529
:1019F00028E5D20708F06BC0C11536E5D30708F01B
:101A00006FCF8C2F0E941C0BC82FD0E0DC2FCC276F
:101A1000CC27DF71D0623FCFC1154AE5D40708F467
:101A20005BC0CE0190568115904208F059CF8D2FA2
:101A30008F710E941C0B90E0982F882788279F7138
:101A40009C012C2BE901E6CFC55AD0E0C05ADE4FED
:101A5000C881D0E0D0641FCFCE01E4E09695879591
:101A6000EA95E1F783702C2F26952695237040E2A6
:101A7000249F90011124382B8C2F8370C1E0D0E07B
:101A800002C0CC0FDD1F8A95E2F7C22BD32BDC6896
:101A900002CFDC2FCC27C16FD06AFDCECE01837080
:101AA000992721E030E002C0220F331F8A95E2F728
:101AB000C695C69590E2C99FE0011124C22BD32B95
:101AC000DA68E9CEDC2FCC27C46FD06AE4CEDC2FF5
:101AD000CC27C06FD06ADFCE8C2F8F700E941C0B7A
:101AE00034E0D695C7953A95E1F7CF709C2FEC017D
:101AF000D069D1CEC9E3D0E0CECEC2EED0E0CBCE1D
:101B0000C6EED0E0C8CEBF92CF92DF92EF92FF92A6
:101B10000F931F93CF93DF938C01C0905803D09005
:101B20005903E0905A03F0905B038091BE029091BC
:101B3000BF02A091C002B091C102C82AD92AEA2AE4
:101B4000FB2ACFE1D0E0BC2ED701C6010C2E04C089
:101B5000B695A795979587950A94D2F780FD0EC004
:101B6000219788F7B12C8B2DDF91CF911F910F9189
:101B7000FF90EF90DF90CF90BF900895B8018C2F29
:101B80000E94F90B019761F3EECFCF93DF93EC0145
:101B90000E94830DBE01DF91CF910C94F90B0E943E
:101BA000C50D292F2F7092959F7092509E3078F41A
:101BB000E92FF0E0E554F24D0C94892C803F19F0A8
:101BC00020F4883E20F481E00895843FE1F380E032
:101BD0000895883EC0F3813FD1F7F5CF822F8695D7
:101BE0008695869508956F927F928F929F92AF927D
:101BF000BF92CF92DF92EF92FF920F931F93CF93FA
:101C0000DF9389ECC82E83E0D82E06EC10E0E801C3
:101C1000C058D10936011CC0F50185909490692DFA
:101C2000C7010E94222D682DC70101960E94222D16
:101C300082E0A80EB11C82E0E80EF11CCE15DF0593
:101C400059F780E2680E711CA0960C171D0731F041
:101C50007E0180E2E81AF1085301DECF00581F4FE1
:101C600080E8C80ED11C063C82E0180781F6DF919F
:101C7000CF911F910F91FF90EF90DF90CF90BF9089
:101C8000AF909F908F907F906F900895CF93DF9348
:101C9000C6E2D2E060E0CE010E94222D2196C1155D
:101CA00084E0D807B9F7DF91CF910895CF93DF9300
:101CB00000D00F92CDB7DEB790914B03943011F561
:101CC00089837B836A839093E9008FEF9091E8008A
:101CD000815095FD06C095ED9A95F1F700008111B0
:101CE000F5CF8091E80085FF0DC050E040E063E053
:101CF00070E0CE0101960E9489068091E8008E77FF
:101D00008093E8000F900F900F90DF91CF9108958E
:101D1000BC0184E00C94560EBC0183E00C94560E7A
:101D20009C0184E08093E9009FEF8091E80091504E
:101D300085FD06C085ED8A95F1F700009111F5CF7C
:101D40008091E80085FF0CC050E040E066E070E064
:101D5000C9010E9489068091E8008E778093E8008F
:101D60000895CF93DF93EC01809124018823B1F192
:101D70008091CF0287FF32C060E284E08093E90067
:101D80008FEF9091E800815095FD06C095ED9A95F2
:101D9000F1F700008111F5CF8091E80085FF1BC0AD
:101DA0008091240170E050E040E0811104C050E0D7
:101DB00040E068E070E0CE010E9489068091E80072
:101DC0008E778093E80080E2FE01A9E2B3E0019003
:101DD0000D928A95E1F7DF91CF91089568E081E057
:101DE000CDCF81E08093E00080E28093D800109214
:101DF000C9008FE19EE40197F1F700C0000087E081
:101E000090EBDC018093600590936105A0936205DF
:101E1000B093630588E19CE00FB6F894A895809391
:101E200060000FBE90936000FFCF8091190380FD8A
:101E30000AC0E4EFF1E0118210821282339652E080
:101E4000E831F507C1F7219A35B13D7F25B1226010
:101E50004FB7F89484EF91E0FC015191CF0168E015
:101E600025B9000000C057FF35B9550F000000C06C
:101E700000C000C035B900C06A9591F7F2E0883122
:101E80009F0751F74FBF8FE594E00197F1F700C02E
:101E900000000895EF92FF921F93CF93DF93EC0120
:101EA00084EFE82E81E0F82E10E08C8197014091BC
:101EB0001C0360911B03810F0E944C091B5E83E091
:101EC000E80EF11C1C3F89F70E94150F9A818C8146
:101ED00090FF08C08F5F8C83DF91CF911F91FF909F
:101EE000EF9008958150F7CFBF92CF92DF92EF929B
:101EF000FF920F931F93CF93DF93FC018281DD2428
:101F0000DA9480FD02C0DD24D39404EF11E0D0E028
:101F1000C0E02CE0B22EF80111821082128294E00F
:101F2000E92EF12CC12C8091F1018C0D8D300CF437
:101F30003DC06B2D0E94532C892F082E000C990B4D
:101F40008C179D0791F480911C038E9DA0018F9D9D
:101F5000500D1124559547955595479598016091D9
:101F60001B0380911A030E944C09CD0CF1E0EF1A7B
:101F7000F108C9F621960D5F1F4FCC30D10559F6F7
:101F80000E94150F8091F10191E0D91215C08111C5
:101F900011C08BE08093F101DF91CF911F910F91E0
:101FA000FF90EF90DF90CF90BF90089587FFC5CF4F
:101FB000845FC3CF8150EECF90E00196BE010E94B6
:101FC000752CE8CF0F931F93CF93DF93C4EFD1E02D
:101FD000FE01118210821282339682E0E831F80706
:101FE000C1F710E000E08091F201082E000C990B7F
:101FF000081719078CF180911001082E000C990B1D
:10200000801791074CF19E0140911C0360911B03C6
:1020100080911A030E944C090F5F1F4F23960C30CA
:10202000110509F70E94150F80910F019091F2019F
:10203000980F9093F20120911001280F2093100126
:10204000121614F49B301CF0819580930F01DF91E0
:10205000CF911F910F910895198218821A82DCCFB7
:102060008F929F92AF92BF92CF92DF92EF92FF92A8
:102070000F931F93CF93DF93EC014C81042F10E05B
:102080009801D8010E94AA2D9B01AC010E94752DD8
:102090004B015C01E0E2F0E0E01BF10BA5E5B0E0F4
:1020A000AC019B010E94752D6B017C019F01DF013A
:1020B0000E94962C9B01AC010E94802D9B01AC01DB
:1020C000280D391D4A1D5B1DC701B6010E94882DD0
:1020D000F22E822F90E039E23F15D8F143E0249FA1
:1020E0009001112435952795122F109594EFC92E44
:1020F00091E0D92E00E085E5E82EEF188E2D01FD48
:102100008F2D9601412F60911B030E944C090F5F98
:1021100053E0C50ED11C0C3089F70E94150F9C812D
:1021200081E0992319F0903219F48FEF8093110117
:1021300080911101890F8C83DF91CF911F910F91B5
:10214000FF90EF90DF90CF90BF90AF909F908F90D7
:10215000089525E530E0A901481B590BCA019A01F1
:10216000220F331F280F391F37FFBCCF2F5F3F4F80
:10217000B9CFEF92FF920F931F93CF93DF938C0110
:10218000C4EFD1E0F12CE12CF801948160911B03A4
:1021900080911A03F6E0EF16F104FCF49923F9F0AC
:1021A0009E0140911C030E944C092FEFE21AF20A93
:1021B00023968CE0E816F10439F70E94150FF80118
:1021C000848190E00196817099278483DF91CF917B
:1021D0001F910F91FF90EF900895992309F39E01AD
:1021E00040E0E1CF9091190390FF0CC0E4EFF1E0E3
:1021F000818360834283339692E0E831F907C1F727
:102200000C94150F08950F931F93CF93DF9300D075
:102210000F92CDB7DEB78C018091F30181110AC016
:102220009E012F5F3F4F4FEF6FEF0E944C098A8155
:102230008093F301F8016481613069F08091F301CA
:1022400040E0662361F040E0623011F44091F30118
:1022500080E060E004C06091F30140E080E00E9413
:10226000F210F801848190E0019663E070E00E9432
:10227000752C84830F900F900F90DF91CF911F9159
:102280000F910895CF93DF9300D00F92CDB7DEB7B3
:102290009091190390FF0AC09E012F5F3F4F0E944B
:1022A0004C094B8169818A810E94F2100F900F9036
:1022B0000F90DF91CF910895CF93DF93EC01EC81E4
:1022C000F0E0E753FD4F4491E9E1F3E06281818161
:1022D0000E9442118C818F5F8C83DF91CF91089592
:1022E000CF93DF93EC01E9E1F3E0438162818C81DC
:1022F0000E9442118C818F5F8C83DF91CF91089572
:102300004F925F926F927F928F929F92AF92BF9205
:10231000CF92DF92EF92FF920F931F93CF93DF93B1
:10232000FC016280448081E08483E9ECF2E07490F7
:10233000E8E4F3E0E491C8E1D2E034EFE32E31E0E9
:10234000F32E44E5C42E42E0D42E52E0A52EBB2449
:10235000B39488248A94912C55245A94E7190E2F0B
:1023600010E082E0861530F080911A038883809116
:102370001B038983411021C01B821A8297014A8165
:10238000698188810E944C09259683E0E80EF11C42
:10239000CC16DD0631F7DF91CF911F910F91FF90A1
:1023A000EF90DF90CF90BF90AF909F908F907F90F5
:1023B0006F905F904F900C94150F8B818823E9F0FC
:1023C00081508B83859DC00111246C8170E00E9437
:1023D000612CFB01FF27E753FD4F8491E82FE7199C
:1023E000E59DC0011124B8010E94612C80911C035D
:1023F000689FB00111247A83C1CF0E94F12C2091F3
:102400001C03269521582A9DA0012B9D500D1124B7
:10241000452F5527841795070CF0B0CF82E086151D
:1024200088F40E94F12CB4010E94752C88830E94CC
:10243000F12C20911B032695622F70E00E94752CD1
:10244000280F29831A8280911C03893C20F088EC94
:102450008C838B8393CF8431D8F784E1F9CF6BEEF3
:102460007EEF90E080E00E94402D60E082E090E00E
:102470000E94222D60E083E090E00E94222D1092C5
:10248000BE021092BF021092C0021092C10260E020
:1024900084E090E00E94222D60E081E290E00E94C2
:1024A000222D60E085E090E00E94222D60E086E031
:1024B00090E00E94222D6FEF87E090E00E94222D95
:1024C00040E050E0BA0188E090E00E94342D60E0E6
:1024D0008DE090E00E94222D40E050E0BA0188E1BA
:1024E00090E00E94342D60E087E190E00E94222D70
:1024F00040E050E0BA018CE190E00E94342D60E0B1
:1025000080E290E00E94222D40E050E0BA0188E194
:1025100090E00E94342D40E050E0BA018FE090E05E
:102520000E94342D40E050E0BA0183E190E00C9429
:10253000342DCF92DF92EF92FF926B017C010E94CB
:102540003D09B701A60188E090E0FF90EF90DF9091
:10255000CF900C94342D5F926F927F928F929F92C6
:10256000AF92BF92CF92DF92EF92FF920F931F93A1
:10257000CF93DF9300D00F92CDB7DEB7182F762E12
:10258000042F622E9091190390FF29C0E92FE69540
:10259000AE2FB0E0AB5CBE4F8C91809317039E7F53
:1025A000923081F59E012F5F3F4F812F0E944C0991
:1025B0004B8169818A810E94F21010931A037092F4
:1025C0001B0300931C03662051F060911903709166
:1025D0001A0380911B0390911C030E9499120F9083
:1025E0000F900F90DF91CF911F910F91FF90EF907F
:1025F000DF90CF90BF90AF909F908F907F906F9023
:102600005F900895823019F400911C03D6CF863074
:1026100019F410911A03D1CF8930D9F3893169F6B1
:10262000E9518E2F8170582EE695F0E0EC53FD4F66
:10263000A590B490BB2484EFE82E81E0F82ED12C35
:10264000C12C9CE0892E912CC601B4010E94612C02
:10265000812F511013C0860F9701402F672D0E94C4
:102660004C09CA0CDB1C83E0E80EF11C88E1E8167B
:1026700082E0F80649F70E94150F9FCF861BECCF2A
:10268000E9E1F3E0438121E1421B08F440E021E06D
:10269000628181810C94AB12E9E1F3E0438121E195
:1026A000420F08F44FEF21E0628181810C94AB125C
:1026B000E9E1F3E0628121E1621B08F460E021E0DE
:1026C000438181810C94AB12E9E1F3E0628121E165
:1026D000620F08F46FEF21E0438181810C94AB120B
:1026E000E9E1F3E0818121E04381628188500C942B
:1026F000AB12E9E1F3E0818121E043816281885FEF
:102700000C94AB1280911D03882319F081508093A3
:102710001D036091190370911A0380911B0390911E
:102720001C030C94991280911D03833018F48F5F61
:1027300080931D036091190370911A0380911B030C
:1027400090911C030C949912E9E1F3E083E08083FB
:1027500011828FEF828383831482608171818281F1
:1027600093810C9499121F920F920FB60F9211241D
:102770002F933F934F935F936F937F938F939F9389
:10278000AF93BF93EF93FF938091E10082FF09C065
:102790008091E20082FF05C08091E1008B7F8093F1
:1027A000E1008091DA0080FF24C08091D80080FF92
:1027B00020C08091DA008E7F8093DA008091D9006A
:1027C00080FF9BC080E189BD82E189BD09B400FE24
:1027D000FDCF81E080934B0380912603811109C0D6
:1027E0000E9439060E9404078091E2008460809371
:1027F000E2008091E10080FF17C08091E20080FF3D
:1028000013C08091E2008E7F8093E2008091E2000D
:1028100080618093E2008091D80080628093D8002C
:1028200019BC85E080934B038091E10084FF29C0AF
:102830008091E20084FF25C080E189BD82E189BDED
:1028400089B5982F917080FFFBCF8091D8008F7D44
:102850008093D8008091E1008F7E8093E100809189
:10286000E2008F7E8093E2008091E200816080939D
:10287000E20080914C03882309F445C084E08093F2
:102880004B038091E10083FF27C08091E20083FF2A
:1028900023C08091E100877F8093E10082E08093F4
:1028A0004B0310924C038091E1008E7F8093E100F6
:1028B0008091E2008E7F8093E2008091E20080614F
:1028C0008093E20042E060E080E00E94D2068091C6
:1028D000F00088608093F000FF91EF91BF91AF917D
:1028E0009F918F917F916F915F914F913F912F9128
:1028F0000F900FBE0F901F90189519BC10924B03AC
:102900001092260376CF8091E30087FD93E09093A9
:102910004B03B7CF78941F921FB61F9211248F9349
:102920009F93AF93BF938091C2029091C302A091F5
:10293000C402B091C5020196A11DB11D8093C202CF
:102940009093C302A093C402B093C502BF91AF910C
:102950009F918F911F901FBE1F9018952FB7F894CD
:102960008091C2029091C302A091C402B091C502AD
:102970002FBF08959091190390FF3DC09170811170
:1029800029C0926090931903662351F06091190356
:1029900070911A0380911B0390911C030E9499125D
:1029A00060911903669570E04BE050E084E091E09F
:1029B0000E94012D892BA9F01092180381E08093C9
:1029C000D50220E040911C0360911B0380911A0303
:1029D0000C94AB128B3210F09465D4CF880F982BE7
:1029E000D1CF81E0809318030E94AE149093D3025C
:1029F0008093D202E3CF0895809119038695815088
:102A000009F48AE261E00C94BA1480911903869566
:102A10008F5F8B3208F081E061E00C94BA149091E2
:102A2000190390FF07C09695981720F0961710F499
:102A30000C94051561E00C94BA140E94AE149C012C
:102A40009091090380910A03982B21F0309306039B
:102A50002093050390910B0380910C03982B21F098
:102A60003093040320930303E091D902F091DA023A
:102A7000309749F082E0809307030480F581E02DD0
:102A800087E093E00994089590E080E00E941609A1
:102A900090E080E00E9400091092BB021092BA02FE
:102AA0000E94EA0786E0E7E0F3E0DF011D928A95E5
:102AB000E9F70C941D1560935803709359038093A4
:102AC0005A0390935B030C9444150F931F936091EA
:102AD00058037091590380915A0390915B038B01C5
:102AE0009C01067011272227332706301105210586
:102AF000310529F468601F910F910C945B15677F75
:102B0000FACF0F931F9341E050E060E070E004C003
:102B1000440F551F661F771F8A95D2F7CB01BA0164
:102B20006095709580959095009158031091590388
:102B300020915A0330915B036023712382239323F6
:102B40001F910F910C945B159091B9028095892388
:102B50008093B902282F277071F4282F082E000CBB
:102B6000330B9217130639F08595859585950E944C
:102B700081151092B90208950F931F9341E050E020
:102B800060E070E004C0440F551F661F771F8A95F0
:102B9000D2F78091580390915903A0915A03B091B4
:102BA0005B038A019B01082B192B2A2B3B2BC901A4
:102BB000B8011F910F910C945B156093BE02709346
:102BC000BF028093C0029093C1020C9444151092EE
:102BD000BC0280912401E0EDF1E0882359F080915E
:102BE000CF0287FF07C08EE1DF011D928A95E9F7CA
:102BF0000C94441586E0F8CF1F93CF93DF93CDB7A5
:102C0000DEB7AA970FB6F894DEBF0FBECDBF8DE436
:102C100093E02091F100DC012D93CD01B3E08535E7
:102C20009B07B9F780914E03833009F471C0B8F463
:102C3000813009F448C0823009F4B2C08091E800C4
:102C400083FF3AC180914D0390914E039A3008F072
:102C500033C1E92FF0E0E753F24D0C94892C8A3010
:102C600009F48DC08B3009F470C0893039F7809138
:102C70004D03813219F780915103909152030097CF
:102C800011F00297D9F68091E800877F8093E800E1
:102C90008091E80082FF37C09091F3008091F200AC
:102CA000029729F48091F1008B7F813021F480918B
:102CB000F100809328038091E8008B778093E800EF
:102CC0000E94B306BBCF80914D03813A09F0B6CF85
:102CD0008091E800877F8093E80080915103909174
:102CE0005203892B61F460E289E293E070E00E9474
:102CF00065078091E8008B778093E8009FCF60E0C4
:102D000090E080E0F3CF80914B038111C1CF96CF4B
:102D100080914D03813A09F091CF809151039091B8
:102D20005203892B09F08ACF8091E800877F809336
:102D3000E8008091E80080FFFCCF8091240180931F
:102D4000F1008091E8008E77B9CF80914D038132F8
:102D500009F074CF8091510390915203892B09F0AF
:102D60006DCF8091E800877F8093E8000E94B306D2
:102D700080914F03809324010E94E7155FCF8091DB
:102D80004D03813209F05ACF8091E800877F80930C
:102D9000E8000E94B30680915003809327034ECF32
:102DA00080914D03813A09F049CF8091E800877FF7
:102DB0008093E8008091E80080FFFCCF809127039A
:102DC000BECF803899F0823809F076C080915103E7
:102DD0008F70873008F070C08093E9008091EB001D
:102DE00085FB882780F91092E90006C0809149038D
:102DF00090914A03911182609091E800977F90939F
:102E0000E8008093F1001092F1008091E8008E7745
:102E1000B5C1882309F4A2C1823009F04DC0809168
:102E20004F038111A6C1809151038F702FEF280F9E
:102E3000263008F041C08093E9002091EB0020FF8C
:102E400098C1933031F48091EB0080628093EB0065
:102E500090C19091EB0090619093EB0021E030E005
:102E600001C0220F8A95EAF72093EA001092EA0047
:102E70008091EB008860EACF81111EC010914F0352
:102E80001F778091E3008078812B8093E30080910D
:102E9000E800877F8093E8000E94B3068091E800F5
:102EA00080FFFCCF8091E30080688093E30082E0A4
:102EB000111183E080934B038091E80083FF0AC0E7
:102EC0008091E800877F8093E8008091EB0080622A
:102ED0008093EB00AA960FB6F894DEBF0FBECDBF6D
:102EE000DF91CF911F9108958058823028F720916B
:102EF0004F03309150032C3DE3E03E07A1F583E002
:102F00008A838AE289834FB7F894DE01139620E022
:102F10003EE051E2E32FF0E050935700E49120FFB0
:102F200003C0E295EF703F5FEF708E2F90E0EA30C4
:102F3000C0F0C7968D939D932F5F243159F74FBFF3
:102F40008091E800877F8093E8006AE270E0CE011C
:102F500001960E9465078091E8008B778093E800D6
:102F6000ABCFC096E7CF8091510390915203432F8E
:102F700055274330510509F44AC078F541305105D1
:102F800009F47AC08BE590E0E2EBFAE042305105BB
:102F900009F092CF2091E800277F2093E80020914C
:102FA0005303309154038217930708F49C0140E0C7
:102FB0002115310509F065C0411163C08091E80019
:102FC00082FDC9CF80914B03882329F2853019F205
:102FD0008091E80083FFF2CFBECF4132510509F462
:102FE0003CC04232510509F067CF8330910508F0AB
:102FF00063CFFC01EE0FFF1FE054FE4F0190F08104
:10300000E02D83549E4FDC018C9190E01AC0332751
:1030100021303105D1F02115310561F02230310523
:1030200009F04ACFEFE1FBE0E4918E2F90E0EFE171
:10303000FBE007C0E7E5FBE0E4918E2F90E0E7E5D9
:10304000FBE0009709F438CFA5CFEDE3FBE0E49176
:103050008E2F90E0EDE3FBE0F4CF8330910508F094
:103060002BCF880F991FFC01EA53FE4F0190F0818E
:10307000E02D89E090E08ECF82E190E0EDE0FBE092
:1030800089CF80914B03882309F465CF853009F4FB
:1030900062CF8091E80083FD5ECF8091E80082FDE1
:1030A0008DCF8091E80080FF83CF9091F3008091D5
:1030B000F2002115310519F08830910550F041E0FA
:1030C000089709F040E08091E8008E778093E8004F
:1030D0006FCF44914093F100319621503109019610
:1030E000E8CF803809F0E8CE8091E800877F8093B0
:1030F000E80080914C038093F10087CE8111DCCEF3
:1031000010914F03123008F0D7CE8091E800877FEE
:103110008093E80010934C030E94B306112311F032
:1031200084E005C08091E30087FDFACF81E08093C1
:103130004B0342E061EC81E00E94D20642E261EC86
:1031400084E00E94D20642E261EC82E00E94D20654
:1031500042E260EC83E00E94D206AECE80914F0343
:10316000813009F0A9CE81E0933009F080E08093AE
:103170004A031092E9008091E800877F8093E8007D
:103180000E94B30699CE1F920F920FB60F92112490
:103190002F933F934F935F936F937F938F939F935F
:1031A000AF93BF93CF93DF93EF93FF93D091E90059
:1031B000DF708091EC00C82FC17080FDC0E81092D4
:1031C000E9008091F000877F8093F00078940E945E
:1031D000FC151092E9008091F00088608093F00067
:1031E000CD2BCF70C093E900FF91EF91DF91CF918C
:1031F000BF91AF919F918F917F916F915F914F910F
:103200003F912F910F900FBE0F901F90189588231C
:1032100009F459C0823871F40E942C0981FF53C00F
:1032200089E30E945A080E94EA0789E30E942F0856
:103230000C94EA07833859F40E942C0980FF43C09C
:1032400083E50E945A080E94EA0783E5EFCF84389D
:1032500059F40E942C0982FF36C087E40E945A0864
:103260000E94EA0787E4E2CF9CEF980F913AF0F2D0
:1032700090E2980F983088F4877021E030E0A9013F
:1032800002C0440F551F8A95E2F7CA0180959091BC
:10329000BC0289238093BC02CBCF9BE5980F93306F
:1032A00020F490E080E00C94160998E5980F97318F
:1032B00020F490E080E00C940009803F20F00E9410
:1032C000E2090C941D150895CF93C82F882309F4A3
:1032D000AEC08238C1F40E942C0981FDA8C089E3E8
:1032E0000E945A080E94EA072FEF81EE94E02150D5
:1032F00080409040E1F700C0000089E30E942F0861
:10330000CF910C94EA078338A1F40E942C0980FD28
:103310008EC083E50E945A080E94EA072FEF81EED3
:1033200094E0215080409040E1F700C0000083E528
:10333000E5CF8438A1F40E942C0982FD78C087E48F
:103340000E945A080E94EA072FEF81EE94E0215074
:1033500080409040E1F700C0000087E4CFCF8CEFC1
:103360008C0F813A88F580912401882301F18091A6
:10337000CF0287FF1CC0EC2FE695E695E695F0E0BE
:10338000E253FE4F828190E04C2F477021E030E005
:1033900002C0220F331F4A95E2F782239323892B21
:1033A00079F08C2F0E942F080E94EA0709C0E0EDF7
:1033B000F1E08191C817A9F321E0E63DF207C9F7D2
:1033C0008C2F0E945A089CCF80E28C0F883068F4C2
:1033D000C77021E030E001C0220FCA95EAF7809162
:1033E000BC02822B8093BC028BCFEBE5EC0FE33069
:1033F00040F4F0E0E05AFE4F808190E0CF910C94D1
:103400001609E8E5EC0FE73150F4F0E0EE0FFF1F8E
:10341000ED59FE4F80819181CF910C940009C03FFE
:1034200030F08C2F0E94380ACF910C941D15CF914B
:1034300008951F93CF93DF93182FD0E0C0E0893316
:1034400011F4C0E5D0E0812F0E946419209731F477
:10345000812FDF91CF911F910C9407198FE99FE085
:103460000197F1F700C000002197F0CF0F931F9351
:10347000CF93DF93C62FD42F022FFC0182818823A4
:10348000A1F0609357030E94AE149093560380936B
:103490005503C77081E001C0880FCA95EAF7DF9134
:1034A000CF911F910F910C94F608809157036813E8
:1034B00035C080915503909156030E94C907883CFE
:1034C000910560F510E21D0FCD17B9F080E28C0F69
:1034D000883040F4C77081E001C0880FCA95EAF7D0
:1034E0000E94EB08183048F481E09D2F977001C0CE
:1034F000880F9A95EAF70E94F608802F0E94191A01
:10350000183098F4D77081E001C0880FDA95EAF797
:10351000DF91CF911F910F910C94EB08C77081E060
:1035200001C0880FCA95EAF7F3CFDF91CF911F91C1
:103530000F9108953F924F925F926F927F928F9278
:103540009F92AF92BF92CF92DF92EF92FF920F9332
:103550001F93CF93DF9300D000D00F92CDB7DEB78B
:103560008C01FC0183819481892B31F080819181D0
:1035700089238F3F09F03DC60F900F900F900F9059
:103580000F90DF91CF911F910F91FF90EF90DF90FF
:10359000CF90BF90AF909F908F907F906F905F90F3
:1035A0004F903F9008950E94830DF82E682F8981D7
:1035B0009A810E94B50869817A818F2D0E94EC0B57
:1035C0007C01F8019281992309F406C697012251E2
:1035D0003F452031310508F0D2C58FEF93E00E94BE
:1035E0000E2DFEEEEF0E56E2852E52E0952E88232C
:1035F00081F18091B902877009F4BECFF801828110
:10360000882309F4B9CF82E00F900F900F900F90AC
:103610000F90DF91CF911F910F91FF90EF90DF906E
:10362000CF90BF90AF909F908F907F906F905F9062
:103630004F903F900C94A415811424E09206C9F297
:10364000C4010E940E2D811101C0EA943FEF831A3C
:10365000930AE110F1CF1C821B82442443944AE078
:10366000342E74018FEFE81AF80AC4010E940E2D5F
:1036700089831A82882309F4BCCF9FEF980F933077
:1036800000F58A83498292E0890E911CC7010E944D
:103690000E2D8B83882309F4ACCFFE0131967F0178
:1036A000F70120812223E9F2213009F049C09181FC
:1036B0008281913041F4F2E0EF0EF11C0E94191A60
:1036C00009C04701EACF923049F422E0E20EF11C32
:1036D0000E9464193FEFE31AF30AE2CF933031F40A
:1036E00032E0E30EF11C0E940719F4CF943021F070
:1036F0008FEFE81AF80AEECF92E0E90EF11C30E005
:1037000020E0B7016F5F7F4FF70141818053990B34
:103710008A30910550F021503109E0F28FE99FE0A5
:103720000197F1F700C00000F6CF329EF001339E02
:10373000F00D11249C012E0F3F1F842F7B01E1CF40
:10374000E22FF0E0E550FA4F5490822F869586954F
:10375000869590E0FC01E551FA4F64902770712C3A
:10376000022E02C0759467940A94E2F7E1E06E229B
:103770007724FC01E552FA4FA490B12C022E02C02E
:10378000B594A7940A94E2F7F1E0AF22BB24FC01C0
:10379000E553FA4FC490D12C02C0D594C7942A9512
:1037A000E2F721E0C222DD246114710419F081EEF8
:1037B0000E946419A114B10419F086EE0E946419E4
:1037C000852D0E94191AAB2819F086EE0E94071960
:1037D000672819F081EE0E940719CD2809F47ACFE5
:1037E0008CE26CCF81E00E94BC150E94651501CF70
:1037F00081E00E948115F9CF82E0F5CF85EFE816D0
:103800008CE5F80609F46AC008F464C027E245EEC6
:1038100066EEF6EFEF16FCE5FF0609F4D9C499232E
:1038200009F4F8C41092570322E0E2162CE5F206E0
:1038300008F44DC136E1E3163CE5F30638F0970194
:103840002A5F3C452930310508F041C10E94B70B81
:103850009093D0028093CF0280E1E8168CE5F806C1
:1038600009F404C108F083C0E8E0EE16ECE5FE06BA
:1038700009F4EEC008F04FC024E0E2162CE5F20691
:1038800009F4DEC090F582E0E8168CE5F80609F44C
:10389000D1C08091CF02826093E0E9169CE5F906E1
:1038A00009F4CBC06091CF02F090D00284E090E0A8
:1038B0000E94222D6F2D81E290E00E94222D0E9415
:1038C000E71597CE27E245EE65EE82C426E241EE8B
:1038D00060EE7EC427E245EE64EE7AC426E241EE55
:1038E00062EE76C428E241E0EFCF8091CF028061A2
:1038F000E6E0EE16ECE5FE0609F49FC08091CF02EB
:103900008860F7E0EF16FCE5FF0608F496C08091AA
:10391000CF02806292C08091CF028D7F2CE0E216B0
:103920002CE5F20609F489C060F48AE0E8168CE51B
:10393000F80609F497C008F48FC08091CF028E7FFB
:103940007CC08091CF02877FEEE0EE16ECE5FE06AC
:1039500009F473C08091CF028B7FFFE0EF16FCE586
:10396000FF0608F46AC08091CF028F7E66C02BEFFD
:10397000E2162CE5F20609F467C068F583E1E81663
:103980008CE5F80609F47AC090F4E1E1EE16ECE576
:10399000FE0609F46FC0F2E1EF16FCE5FF0609F040
:1039A00081CF0E94E7158091CF028F7746C025E135
:1039B000E2162CE5F20609F469C008F47DC08AEF2E
:1039C000E8168CE5F80609F06DCF8091D002816091
:1039D0008093D00267CF9FEFE9169CE5F90609F4C2
:1039E00051C0A0F48091D0028D7FFDEFEF16FCE571
:1039F000FF0671F38091D0028E7F2EEFE2162CE548
:103A0000F20630F38091D0028360E2CF31E0E3161A
:103A10003DE5F30609F459C008F444C060E092E0C3
:103A2000E9169DE5F90609F03DCF8EE090E00E9491
:103A3000222D38CF8091CF0281608093CF0232CF88
:103A40008091CF028460F9CF8091D0028260C0CF94
:103A50008091CF028064F1CF0E94E7158091CF0260
:103A60008068EBCF8091CF028C60E7CF8091CF024E
:103A70008F7DE3CF8091CF028F7BDFCF8091CF020C
:103A8000837FDBCF8091D0028C7FA2CF8091CF0249
:103A900082FB992790F921E0922790FB82F990FB15
:103AA00083F9CBCF8091D002982F909591708E7F23
:103AB000892B90FB81F98CCF0E94E7159091CF0262
:103AC000892F97FB87F98058B8CF61E0AECF8091FE
:103AD000BC02E6E1EE16ECE5FE0609F0A9C38A7A1F
:103AE00091E009F490E090935802811106C089E2B8
:103AF0000E945A080E94EA077CCD85E3F9CF85E34E
:103B000094C38091190380FF1BC08E7F809319039B
:103B10006091190370911A0380911B0390911C030B
:103B20000E94991210921803FFEF20E732E0F15043
:103B300020403040E1F700C000000E94150F59CD31
:103B400081608093190361E086950E94BA1451CD7B
:103B50004CEF54E165E075E10E9438094ACD45E03B
:103B600055E16CEF74E1F8CF40E753E169E773E1A9
:103B7000F3CF49E753E160E773E1EECF48E553E166
:103B800064E673E1E9CF44E653E168E573E1E4CF2D
:103B900040E453E16CE473E1DFCF4CE453E160E4D3
:103BA00073E1DACF42E853E163E973E1D5CF43E94A
:103BB00053E162E873E1D0CF61E081E0C6CF65E018
:103BC00082E00E940F1515CD68E086E0FACF6EE026
:103BD00089E0F7CF64E18FE0F4CF67E185E1F1CFD1
:103BE00061E088E1B2CF62E289E1EBCF61E083E29C
:103BF000ACCFE1148CE5F80609F447C0EEEDEE1603
:103C0000ECE5FE0609F44EC0F801E080F18099234E
:103C100009F44BC0C7010E94830DD82E682FC7013D
:103C20000E94B508B7018D2D0E94F90B7C01882EEA
:103C3000F801D280A580A2943FE0A3228091B9022E
:103C40008770A1F0CD2CDD2091F08F2D807F803406
:103C500021F080E28E0D883048F082E00E94A415A9
:103C60008091B9028770CC24C3948111C12C3F2C60
:103C700032942FE03222FBE0F31508F452C0E32D1A
:103C8000F0E0ED52F24D0C94892C0E94E715FFEF05
:103C900024E33CE0F15020403040E1F700C0000058
:103CA0000E94F10E0E942F12A4CCC7010E948E0820
:103CB000D82EB8CF2F2D2F70A22E8F2D807F19F0E8
:103CC000A29490EFA922DD20C9F0AA2069F080E239
:103CD0008E0D883010F081100BC08091BC02A82A94
:103CE000A092BC020E94EA078E2D0E94641919C09E
:103CF0008091BB02A82AA092BB02F4CF8E2D0E9415
:103D00000719AA2071F0A09480E28E0D883010F07F
:103D100081103DC08091BC02A822A092BC020E94EA
:103D2000EA07232D2850330B2430310510F40E946C
:103D30002C09CC2009F420CC8091B90280FD1CCC48
:103D4000F80112828595859585950E94BC15C8015C
:103D50000E949A1A8091B9028595859585950F9054
:103D60000F900F900F900F90DF91CF911F910F91B7
:103D7000FF90EF90DF90CF90BF90AF909F908F908B
:103D80007F906F905F904F903F900C948115809141
:103D9000BB02A822A092BB02C2CF3F2D3F70932E40
:103DA0008F2D807F803219F0929480EF98228820A6
:103DB00071F081E0881661F1DD20B9F1AA2071F17E
:103DC000F801858180FF90CF8F70858327C0DD202B
:103DD00091F09091BD02892D892BA11003C00E9402
:103DE000F6089FCFE1E0AE12FACF981709F499CF09
:103DF0008093BD0296CFA11006C00E94E407892DD2
:103E00000E94EB088ECFF1E0AF1609F48ACFF5CF10
:103E1000DD2031F025E02A1508F483CF892DDFCF8E
:103E200034E03A1508F47DCFEACFAA2041F3F9E354
:103E30008F1209C02FEF37EE83E0215030408040D1
:103E4000E1F700C000008E2D0E9407196ACF8F2D68
:103E500086958695837061F0813009F062CFC70145
:103E60009370D11002C090E080E00E94000959CF09
:103E7000C7019370D11002C090E080E00E94160943
:103E800050CF8E2DDD2029F00E94380A0E941D158A
:103E900048CF0E94E209FACF8F2D837009F066C0E7
:103EA000D1103FCF8E2D829586958770880F880F11
:103EB0006E2D6F70462E512C712C612C082E04C073
:103EC000440C551C661C771C0A94D2F740E050E065
:103ED000BA01E4FE0FC04FE050E060E070E004C0C3
:103EE000440F551F661F771F8A95D2F7409550954E
:103EF000609570958F2D869586958370823019F127
:103F0000D8F48090BE029090BF02A090C002B09002
:103F1000C102813069F04429552966297729CB01EE
:103F2000BA01682179218A219B210E94DD15F9CEF1
:103F3000482859286A287B28CB01BA0164297529A9
:103F400086299729F2CF4429552966297729409057
:103F5000BE025090BF026090C0027090C102CB01BF
:103F6000BA016425752586259725DFCF8695DD2046
:103F700011F08F2D8170882309F4D3CE8E2D829578
:103F800086958770880F880F6E2D6F70462E512C86
:103F9000712C612C082E04C0440C551C661C771C27
:103FA0000A94D2F740E050E0BA01E4FE0FC04FE0BF
:103FB00050E060E070E004C0440F551F661F771F9B
:103FC0008A95D2F740955095609570958F2D86957E
:103FD00086958370823019F1D8F4809058039090C0
:103FE0005903A0905A03B0905B03813069F04429D3
:103FF000552966297729CB01BA01682179218A21BF
:104000009B210E945B158DCE482859286A287B2861
:10401000CB01BA016429752986299729F2CF442951
:10402000552966297729409058035090590360908C
:104030005A0370905B03CB01BA0164257525862570
:104040009725DFCF9F2D9F70F92EDD2029F0892F36
:104050000E94BC158E2DC3CE8E2D0E94EB088F2D95
:104060000E9481155ECE8E2DE2EF8E1609F453C0AC
:10407000E81578F0F0EF8F1629F121EF821609F498
:1040800042C0DD2009F46BC0A1102ECE8F2D8F71A0
:104090003FC033EF831609F443C094EF8912F1CF88
:1040A000DD2009F451C02F2D2F71F22E822F0E9496
:1040B000BC1538E0F39EC001112483608093B902DF
:1040C0008F2D26C0DD20D1F0E4E0EA1508F429CEDA
:1040D0002F2D2F7161E070E080E090E004C0660F4A
:1040E000771F881F991F2A95D2F740905803509048
:1040F000590360905A0370905B039FCFF5E0FA1567
:1041000008F40FCEE5CF8F2D8F71DD2009F4A8CFF5
:104110000E94BC1506CE8F2D8F71DD20C9F3A0CF74
:1041200060E070E0CB01DD2009F46BCF2F2D2F7103
:1041300061E070E080E090E004C0660F771F881FA8
:10414000991F2A95D2F75DCF81E00E94A41581E0E6
:104150008A1508F0E6CD82E00E94A415E2CDAA20DF
:1041600059F0893309F06FCE9FEFE7EEF3E09150FD
:10417000E040F040E1F765CE8F2D8F7171CFF0E117
:10418000EF16FFE5FF0609F42DCB21E1E2162FE53E
:10419000F20609F431CB83EFE8168CE5F80609F452
:1041A00095CB08F02BCBF8EDEF16FCE5FF0609F4F4
:1041B00089CB29EDE2162CE5F20609F493CB37ED15
:1041C000E3163CE5F30609F02ACB26E241EE61EE68
:1041D000C8010E94361A0DCA30E1E3163FE5F30626
:1041E00009F406CB81E1E8168FE5F806A1F682E036
:1041F00000CB85E0DE01119601900D928A95E1F7E2
:10420000F801228189819A812111CDC90E948E08ED
:10421000F82ED1C9F6E1EF16FCE5FF0609F0F4CC63
:104220008091580281116BCC89E20E942F0862CCE8
:104230008272F701E25CFC45E431F10508F0D9CC6B
:10424000E152F24D0C94892C1F93CF93DF93809110
:104250005E02807FA9F480915B02882389F08091BF
:104260009002D0915F026091590270915A02A09120
:104270005C02B0915D02C62FC72316E0D81304C0BC
:10428000DF91CF911F91089590E0109711F0CF3FEB
:1042900019F401968770F2CF189F9001199F300D85
:1042A0001124F901E05AFD4F41814713F2CF4081BB
:1042B0004613EFCF42814111ECCF438154814A1B19
:1042C0005B0B483C510528F780915E028F7080613E
:1042D00080935E02F901EB59FD4F80818F70806100
:1042E000808389E592E00E949A1ADF91CF911F9115
:1042F0000C94E108AF92BF92CF92DF92EF92FF92BF
:104300000F931F93CF93DF93CDB7DEB761970FB6AF
:10431000F894DEBF0FBECDBF8C0185E0F801DE0151
:104320001D9601900D928A95E1F7F80180819181A7
:10433000E28029E5A22E22E0B22E60915C0270910B
:104340005D026115710509F43EC130915902409139
:104350005A02232F24232F3F09F435C1C380D48070
:10436000F0905B02F601E61BF70BFF2009F4FBC09F
:1043700020915E02522F507FE83CF10508F0BBC04F
:10438000511178C0FE2C491321C038131FC0E11011
:104390001DC02F70206120935E02C5010E949A1AF1
:1043A00080915E02F80185838F2D61960FB6F89497
:1043B000DEBF0FBECDBFDF91CF911F910F91FF9058
:1043C000EF90DF90CF90BF90AF900895CD2829F067
:1043D000282F29232F3F09F014C120E0F22FF1707C
:1043E000DF2E20FF3DC02091900240915F0256E0F9
:1043F000241315C08D879E878D859E850E94C50DCF
:10440000292F22952F702230F8F0243020F59F704C
:10441000F9F0F8019581907FD9F4D12C1FC030E0DC
:10442000529FF001539FF00D1124E05AFD4F61811E
:10443000961306C06081861303C06281E61210C025
:104440002F5F3F4F2770D4CF9F7011F0882329F33F
:10445000805E883010F3C8010E949A1AFD2CA4CF08
:10446000EE2009F4A1CF80915E02816080935E020C
:10447000F12C9ACF491312C0381310C0E1100EC0AE
:10448000F8012583C8010E949A1A86E0F801A9E57F
:10449000B2E001900D928A95E1F786CF8D879E87D5
:1044A0008D859E850E94CF0D882309F1EE20F9F0BD
:1044B00080915E02803270F02091590230915A0250
:1044C00038872F831986DB86CA868C87CE010796AC
:1044D0000E949A1A86E0F801A9E5B2E001900D92D7
:1044E0008A95E1F70E942421FF24F3945DCFC8014F
:1044F0000E949A1AF9CF51110AC089E592E00E94F0
:104500009A1A86E0F50111928A95E9F7B1CF49131D
:104510000FC038130DC0E1100BC0F8012583C8018E
:104520000E949A1A86E0F50111928A95E9F73CCF2C
:104530008D879E878D859E850E94CF0D8823B9F239
:10454000EE20A9F280915E02803220F22091590281
:1045500030915A023A8329831B82DD82CC828E837A
:10456000CE010196B5CFE83CF105E0F6FE2CEE2039
:1045700009F4BDCF491316C0381314C080915E02F0
:1045800080FD83CF982F907F09F47FCFF80185833A
:10459000903F09F477CF982F907F905F8F70892B91
:1045A000858370CF8D879E878D859E850E94CF0DD8
:1045B000811190CF80915E02816080935E02C8017C
:1045C0000E949A1AF1CEEE2009F491CF8D879E8732
:1045D0008D859E850E94CF0DF82E882309F487CF04
:1045E00086E0F801A9E5B2E001900D928A95E1F725
:1045F0008091590290915A020E94C50D0E94242177
:10460000D3CE21E02E25EACE1F93CF93DF93CDB7F3
:10461000DEB767970FB6F894DEBF0FBECDBF342F5D
:104620004B8B252F5C8B6D8B7E8B8F8B8E899F891F
:1046300061111092BB021A8A198A3D872E876F87F3
:10464000998B888B86E0FE013D96DE0117960190DE
:104650000D928A95E1F7CE0107960E947A21882370
:1046600089F016E08091900290915F02891349C011
:1046700067960FB6F894DEBF0FBECDBFDF91CF9126
:104680001F91089586E0FE013796DE011196019094
:104690000D928A95E1F78A859B85892B11F38F818D
:1046A000988589238F3FE9F220915F0230E0C901AC
:1046B000019687709927409190024817190671F466
:1046C0000E94E71510925F021092900286E0E9E5E1
:1046D000F2E0DF011D928A95E9F7C3CF96E0929F41
:1046E000D001939FB00D1124A05ABD4FFE01319609
:1046F00001900D929A95E1F780935F020E94E10884
:10470000B0CF819FC0011124805A9D4F0E947A2111
:10471000882309F4ADCF8091900290E001968770D4
:104720009927809390029ECFAF92BF92CF92DF9253
:10473000EF92FF920F931F93CF93DF9301E911E064
:10474000C6ECD2E0C12CD12CEE24E394F12CF8017C
:1047500081918F01F894E82FE295EF70F0E021A1AC
:104760008F70A70102C0440F551F8A95E2F7CA0156
:10477000922F982B91A392A18095892382A378945C
:1047800000C0E5E9F1E030E020E0B12CA12C41913E
:10479000A42FA295AF70B0E090968C9190E04F70EE
:1047A00002C0959587954A95E2F780FD5EC0C701E6
:1047B000022E02C0880F991F0A94E2F7A82AB92A8C
:1047C0002F5F3F4F2031310511F7F801319780817C
:1047D0000E94050B53E0C51619F080EA8A95F1F79F
:1047E00088819981A816B90609F442C0B982A882C5
:1047F00081E0D82AC3942296E4E0CE12A8CFDD202F
:10480000C9F181E08093F0010E94AE149093EF0112
:104810008093EE018091EE019091EF010E94C90713
:10482000069760F18091C6029091C70290931F0392
:1048300080931E038091C8029091C9029093210336
:10484000809320038091CA029091CB02909323031E
:10485000809322038091CC029091CD029093250306
:10486000809324031092F00109C090E080E0A6CF6D
:1048700080E0BFCF8091F0018111CCCF8D2DDF91F1
:10488000CF911F910F91FF90EF90DF90CF90BF904D
:10489000AF900895CDB7DEB7AC970FB6F894DEBFF2
:1048A0000FBECDBF84B7877F84BF0FB6F894A8959D
:1048B00080916000886180936000109260000FBE5C
:1048C00080E890E00FB6F8948093610090936100C7
:1048D0000FBE85B7806885BF85B7806885BF84ECCB
:1048E00097E09093CD018093CC010E9439060E94FD
:1048F00004078091E20084608093E20078948091C4
:104900004B038823A1F01091E9001F709091EC00F7
:10491000892F817090FD80E8182B1092E90080911A
:10492000E80083FD0E94FC151F701093E90082E0EF
:1049300084BD93E095BD9AEF97BD80936E0080E3B0
:104940000E94050B87E30E94050B82E90E94050B7C
:1049500083E90E94050B05E911E065EAE62E61E0B6
:10496000F62ED8018D918D010E94050BE016F106FF
:10497000C1F71092C7021092C60210921F03109244
:104980001E031092C9021092C802109221031092C5
:1049900020031092CB021092CA02109223031092AD
:1049A00022031092CD021092CC0210922503109295
:1049B00024030E949423EFE3FCE93197F1F700C050
:1049C00000000E94942380911E0380FF17C06FEFA8
:1049D00082E290E00E94222D6FEF83E290E00E943D
:1049E000222D6FEF84E290E00E94222D6FEF7FEF87
:1049F00090E080E00E94402D0E94F10E90E080E067
:104A00000E941C2D8B3E9E4F11F00E942F1282E2BD
:104A100090E00E940E2D813209F007C683E290E0FB
:104A20000E940E2D873009F000C684E290E00E94BB
:104A30000E2D803309F0F9C583E08093FB0280E2FC
:104A40008093D8020E945E2B6DE070E08EE896E0C5
:104A50000E945F0B892BE9F58091FB0263E070E017
:104A600081FD68C28BE896E00E945F0B892B89F577
:104A70006DE070E08BE796E00E945F0B892B49F5B3
:104A80000E94D807605A75418F4F9F4F6093FD0277
:104A90007093FE028093FF0290930003EEE5F3E033
:104AA00080E092E0DF019C011D9221503040E1F74F
:104AB000F0935F05E0935E058FEF9FEF90935D03AA
:104AC00080935C0381E08093020380930103109242
:104AD000FC0290E080E00E941C2D8B3E9E4F11F066
:104AE0000E942F1282E090E00E940E2D80930E0310
:104AF0000E94B70B9093D0028093CF0283E090E0A6
:104B00000E940E2D682F70E090E080E00E94DD157D
:104B10008091CE02811136C090E080E00E941C2D71
:104B20008B3E9E4F21F00E942F120E94A41388E01A
:104B300090E00E94162D6093190370931A038093DE
:104B40001B0390931C036E7F71F40E94A41388E0F2
:104B500090E00E94162D6093190370931A038093BE
:104B60001B0390931C030E943D091092180380912F
:104B7000190380FF04C060E086950E94BA1481E0AA
:104B80008093CE026091CF0260686093CF02109153
:104B9000D00284E090E00E94222D612F81E290E01B
:104BA0000E94222D8AE191E09093DA028093D9024B
:104BB00058E1852E912C80914B0300E112E1853064
:104BC00009F4F3C10E949423D82E81110E94D807C2
:104BD000AEE1B3E0EFE0F3E010E000E0702F8D9184
:104BE0009D91219131912817390709F4EEC12827A9
:104BF000392760E0EE24E394F12CA9014E215F21D6
:104C0000452B09F4DCC169A37AA39C012E213F2125
:104C100091E0232B09F490E09BA30E94AE148160E5
:104C2000782F9DA38CA349A15AA16BA18DA10E94AD
:104C30000423000F111FF801E15FFC4F8081918177
:104C4000E826F926F182E082809118038823D1F1C9
:104C500080911703E0911903E695E81BE093D402D5
:104C6000823009F0C9C1F0E0E455F94FE4910E2F0C
:104C700010E03CE5E32E31E1F32E8091D50288234C
:104C800061F01092D5020E94AE149093D3028093EB
:104C9000D2021092D7021092D6020E94AE14E09176
:104CA000D202F091D3028E1B9F0B8F3F9F4750F48F
:104CB000E00FF11FF093D302E093D20282ED92E075
:104CC000F701099580910203882309F49BC08EE5C2
:104CD00093E090935F0580935E05809158039091D7
:104CE0005903A0915A03B0915B03AD016627772762
:104CF00020E0411551056105710519F0DB01CA017C
:104D000020E1492F5A2F6B2F772741155105610557
:104D1000710519F0285FDB01CA01AC01BD0134E067
:104D200076956795579547953A95D1F74115510571
:104D30006105710519F02C5FDB01CA01AC01BD01F1
:104D400002E076956795579547950A95D1F74115F5
:104D500051056105710519F02E5FDB01CA01B69599
:104D6000A79597958795892B8A2B8B2B09F0B3C133
:104D70002111B1C1E091D902F091DA02309709F422
:104D8000A7C10190F081E02D099580FFA1C180EBC2
:104D900098E00E94F70580910203882371F020912A
:104DA0005C0330915D032115310539F08091FC02DF
:104DB00061E070E0882309F494C1809101038823A5
:104DC00009F10E94D8070091FD021091FE02209186
:104DD000FF0230910003601B710B820B930B6F3F3E
:104DE0007F4F8F4F9F4770F480910203882351F0CB
:104DF00062E070E080EB9AE00E945F0B892B11F477
:104E000010920103D1100E948F0B86E0E7E0F3E0DF
:104E1000DE01119601900D928A95E1F7E090090369
:104E2000F0900A0300910B0310910C0310920903F8
:104E300010920A0310920B0310920C038E2D8F29EF
:104E4000B1F080910503909106030E94C907E0919B
:104E50001901F0E0EE0FFF1FEB54FE4F208131816E
:104E60002817390720F4E0920903F0920A03802FF3
:104E7000812BB1F080910303909104030E94C90734
:104E8000E0911901F0E0EE0FFF1FE355FE4F208186
:104E900031812817390720F400930B0310930C037A
:104EA0008091090390910A03892B90910B03892B20
:104EB00090910C03892B11F00E941D1586E0FE01D4
:104EC0003196A7E0B3E001900D928A95E1F70E9438
:104ED0002C0990910D03891721F00E942C098093D1
:104EE0000D0380914B03843009F065CE83E08093FD
:104EF000E9008091E80082FF5ECE8091E80090E0BA
:104F000085FF06C00E945806882309F4B3C191E0CA
:104F10008091E8008B778093E800992309F44BCEC9
:104F2000E981E150E33108F031C2F0E0ED50F24D9B
:104F30000C94892C88E896E097CD80914B038430BF
:104F400011F11092D102B0E40FB6F894A8958092B6
:104F500060000FBEB093600083B7817F846083BF21
:104F600083B7816083BF7894889583B78E7F83BF32
:104F70000FB6F894A89580916000886180936000D6
:104F8000109260000FBE80914A03882371F00E9446
:104F90009423EEE1F3E081919191892B09F02FC3E5
:104FA00026E233E02E173F07B1F780914B0385309F
:104FB00009F4C3CF0E94E7150E942C0903CE6F5F4E
:104FC000EE0CFF1C603109F018CE0F5F1F4F04304C
:104FD000110509F003CE8FEF8EA38FA318A60E94B0
:104FE000AE148160782F9AA789A74EA15FA168A50A
:104FF0008AA50E94042328CE863059F4F0E0E755B4
:10500000F94FE4910E2F10E020E7E22E21E1F22E7D
:1050100034CE893061F4E695F0E0EA55F94FE49139
:105020000E2F10E09AE4E92E9FE0F92E26CE8F3065
:1050300061F4E695F0E0ED55F94FE4910E2F10E0A4
:1050400084E7E82E8FE0F82E18CE853159F4F0E091
:10505000E056F94FE4910E2F10E0B2EEEB2EBFE0D8
:10506000FB2E0BCE883169F1833249F4EEE9F6E08C
:1050700005911491A3E0EA2EA1E1FA2EFECD04EFF2
:1050800011E079EBE72E70E1F72E843209F4F5CDCB
:1050900000ED17E063ECE62E67E0F62E853209F0AE
:1050A000ECCD8E2F63E00E94472CE92FF0E0E5560F
:1050B000F94FE4910E2F10E0F0E8EF2EF1E1FF2E12
:1050C000DCCD08E210E0E0E3EE2EE0E1FE2ED5CDEF
:1050D00080EB96E05ECE80EB96E00E94F7055FCE17
:1050E0008F5F082F10E07B01082E02C0EE0CFF1C22
:1050F0000A94E2F7A9014E215F21452B89F3909193
:10510000FB0290FD43C08295880F80768093140146
:105110009801369527953695279520931701815E3E
:10512000809315011092180124E630E047E050E02A
:1051300062E171E088E70E94EF2B892B09F03DCEF8
:10514000A801E5E0440F551FEA95E1F78091FB02C5
:1051500080FD2AC0425A5C4F04E610E020E230E0B5
:1051600060E488E70E94162C892B09F026CE0E9465
:105170008F0BE094F09480915C0390915D03E822A2
:10518000F922F0925D03E0925C0317CE880F880F3E
:10519000880F8093140110921701895F8093150185
:1051A00083E080931801C0CFEBEDF2E080E2DF01F5
:1051B0001D928A95E9F7E9EAF1E0FCA7EBA705EA79
:1051C00011E07DEA272E71E0372EABA5BCA52D910D
:1051D000BCA7ABA7F80141908F01440E552E511C7E
:1051E000C201825A9C4F2C01E22FF0E0E552FD4FA4
:1051F00030E020E067E0662E621ACC24C394022ED1
:1052000001C0CC0C0A94EAF7520190E0D5018D91CF
:105210005D018C21662D691B6770762E062E000CB1
:10522000770BB82F01C0BB0F7A94EAF77B2E7195EC
:10523000619571096770772701C086956A95EAF7CD
:10524000782A8081782A70829F5F9830F9F62F5FE4
:105250003F4F31962830310569F6EBA5FCA52E1697
:105260003F0609F0B2CF04E610E020E230E04BED5B
:1052700052E076CF00E210E09E012F5F3F4F7901B0
:105280008091E80085FD0AC08091E8008B778093CB
:10529000E8000E945806882399F339CE8091F100E6
:1052A000D7018D937D010150110951F730CE1A823B
:1052B00089E08B8336C08A81823009F4CFC1833084
:1052C00061F0813009F062C00E94D8070E948F2CE3
:1052D0006B837C838D839E8324C080911E03909179
:1052E0001F039827892798279C838B83809120030D
:1052F000909121039827892798279E838D838091F9
:1053000022039091230398278927982798878F83D2
:1053100080912403909125039827892798279A87BD
:10532000898780914B03843009F045CC1091E900C6
:105330001F709091EC00892F817090FD80E8182BF0
:1053400082E08093E9008091E80080FF0DC050E08A
:1053500040E060E270E0CE0101960E9489068091F3
:10536000E8008E778093E8001F701093E90023CC4B
:105370008A81823059F46B817C818D819E810E946B
:105380008F2C85E290E00E94222DCBCF8FEF898376
:10539000C8CF4C816B818A810E94C50B98278927D1
:1053A00098279E838D83BDCFED80FE80FE24EF2461
:1053B000FE240A81B0E80B9F800111248B81E0E27A
:1053C0008E9FC0011124080F191F8C8190E0880F57
:1053D000991F080F191F6F2DC80186960E94222D54
:1053E0006E2DC8018796CFCF0E94F30D9ACF8A8188
:1053F0008138C1F060F4803809F093CF20E04B8110
:1054000060911B0380911A030E94AB128ACF8238ED
:1054100059F1833809F085CF20E040911C036C815D
:105420008B81F2CF60E08B810E94BA149B818091C6
:105430001903911111C08E7F8093190310921803E4
:10544000FFEF20E732E0F15020403040E1F700C0AC
:1054500000000E94150F65CF81608093190360E002
:1054600086950E94BA145DCF8B8180931D0359CF1E
:105470008A81813899F030F4803809F052CF8091D8
:105480001C0317CF823891F0833809F04ACF8091FE
:105490001A038B8380911B038C8343CF8091190364
:1054A00080FF02C0869505CF80E003CF80911D0369
:1054B00000CF6091190370911A0380911B039091A2
:1054C0001C030E9499122DCF80E18A832ACF81E0AC
:1054D0008A838AEDEECE0A811B81102701271027CF
:1054E000CE0101966C01EC80DC01AE0DB11D7D0199
:1054F000C8018A5D9D4FCE14DF0409F412CF0A3D26
:10550000B1E01B0750F40E940E2DF60184830F5F5B
:105510001F4FBFEFCB1ADB0AEBCFD60114961C92BC
:10552000F6CF0A811B81102701271027FE01319633
:105530006F01EC80E00EF12EF11CC8018A5D9D4FD9
:10554000E016F10609F4EDCE0A3DF1E01F0728F45C
:10555000D60114966C910E94222DBFEFCB1ADB0A64
:105560000F5F1F4FEACF0E94460EDBCE84E0ADCF27
:105570000A811B81102701271027FE0131966F0138
:10558000EC809F012E0D311D7901C8018696EC1427
:10559000FD0409F4C6CE011532E0130758F40E9449
:1055A0000E2DD60114968C930F5F1F4FFFEFCF1A6D
:1055B000DF0AEBCFF6011482F7CF0A811B81102797
:1055C000012710279E012F5F3F4F6901EC80E00EFD
:1055D000F12EF11CC8018696E016F10609F4A1CE61
:1055E000011532E0130728F4D60114966C910E943D
:1055F000222DBFEFCB1ADB0A0F5F1F4FEBCF09BD88
:1056000019BD09B400FEFDCF8091D8008F7D809335
:10561000D8008091E00082608093E0008091E000FB
:1056200081FDFCCF0E94E715C0CC60E085E290E0F0
:105630000E94222D0E94F30D0E94460E61E282E23A
:1056400090E00E94222D67E083E290E00E94222DEC
:1056500060E384E290E00E94222DEEC985E290E0B2
:105660000E940E2D1B821C821D828E835ACE1F9299
:105670001FB61F9211248F939F93AF93BF93809176
:10568000D102811113C08091C2029091C302A091F6
:10569000C402B091C5024196A11DB11D8093C20202
:1056A0009093C302A093C402B093C502BF91AF917F
:1056B0009F918F911F901FBE1F9018951092B90057
:1056C0008CE08093B8000895EF92FF920F931F93A0
:1056D000CF93DF93182FEB011092BC0084EA8093E4
:1056E000BC000E94AE147C018091BC0087FF27C0E3
:1056F0008091B900887F883029F08091B900887F37
:105700008031D9F51093BB0084E88093BC000E94DF
:10571000AE148C018091BC0087FF24C02091B90099
:10572000287F90E080E02831B1F081E090E02034E3
:1057300011F490E080E09195819591090CC0CF3FE4
:10574000DC0791F20E94AE148E199F098C179D07F9
:1057500058F28EEF9FEFDF91CF911F910F91FF9045
:10576000EF900895CF3FDC07A9F20E94AE14801B92
:10577000910B8C179D0770F2ECCF8FEF9FEFEBCF63
:105780000F931F93CF93DF93EB018093BB0084E8CB
:105790008093BC000E94AE148C018091BC0087FFF6
:1057A00011C02091B900287F81E090E0283211F4E7
:1057B00090E080E0919581959109DF91CF911F91C3
:1057C0000F910895CF3FDC0741F30E94AE14801B78
:1057D000910B8C179D0708F38EEF9FEFEECFCF92C2
:1057E000DF92EF92FF920F931F93CF93DF936B01A2
:1057F0008A017901B9010E94642BE6010C0D1D1D7F
:10580000C017D10761F424E92093BC00DF91CF9148
:105810001F910F91FF90EF90DF90CF90089597FD2B
:10582000F2CFB70189910E94C02BEACFCF92DF92CD
:10583000EF92FF920F931F93CF93DF93C62F6A01CE
:105840007901B8010E94642B97FD0CC0B8018C2F20
:105850000E94C02BE601EC0CFD1CCE15DF0511F0FB
:1058600097FF0CC024E92093BC00DF91CF911F91DA
:105870000F91FF90EF90DF90CF900895B80189913C
:105880000E94C02BEACF84E98093BC000895991B45
:1058900079E004C0991F961708F0961B881F7A9527
:1058A000C9F78095089587FB082E062687FD819508
:1058B00067FD61950E94472C0EF4919507FC819538
:1058C0000895AA1BBB1B51E107C0AA1FBB1FA61747
:1058D000B70710F0A61BB70B881F991F5A95A9F799
:1058E00080959095BC01CD01089597FB072E16F485
:1058F000009407D077FD09D00E94612C07FC05D0E9
:105900003EF4909581959F4F0895709561957F4FD6
:105910000895EE0FFF1F0590F491E02D099469277B
:105920009627692778278727782708950E94AA2D28
:10593000332312F48A1B9B0B0C94A02C0E94AA2DDB
:10594000B7FF0895821B930B08958F929F92AF9299
:10595000BF92CF92DF92EF92FF92CF93DF93EC0151
:10596000688179818A819B81611571058105910525
:1059700021F464E279ED8BE597E02DE133EF41E02E
:1059800050E00E94562D49015A019B01AC01A7EA43
:10599000B1E40E94752D6B017C01ACEEB4EFA50162
:1059A00094010E94832DDC01CB018C0D9D1DAE1D49
:1059B000BF1DB7FF03C00197A109B0488883998331
:1059C000AA83BB839F77DF91CF91FF90EF90DF9009
:1059D000CF90BF90AF909F908F9008950E94A52C7C
:1059E000089580E091E00E94A52C0895B0E0A0E029
:1059F0008093000190930101A0930201B0930301F1
:105A00000895FC014150504030F001900616D1F746
:105A10003197CF010895882799270895F999FECFE6
:105A200092BD81BDF89A992780B50895A6E1B0E0AE
:105A300044E050E00C94482DA8E1B0E042E050E092
:105A40000C94482D262FF999FECF92BD81BDF89A6E
:105A5000019700B4021639F01FBA20BD0FB6F894B2
:105A6000FA9AF99A0FBE08950396272F0E94232DC4
:105A70000E94222D252F0E94232D242F0C94232DAC
:105A80000196272F0E94232D0C94222DDC01CB019F
:105A9000FC01F999FECF06C0F2BDE1BDF89A31963E
:105AA00000B40D9241505040B8F70895052E97FB71
:105AB0001EF400940E946D2D57FD07D00E94882D82
:105AC00007FC03D04EF40C946D2D50954095309505
:105AD00021953F4F4F4F5F4F08959095809570955A
