:100000000C943B050C9482050C9482050C9482059B
:100010000C9482050C9482050C9482050C94820544
:100020000C9482050C9482050C94D82B0C94AC2C67
:100030000C94BD230C9482050C9482050C948205CB
:100040000C9482050C9482050C9482050C94820514
:100050000C9482050C9414240C9482050C94820553
:100060000C9482050C9482050C9482050C948205F4
:100070000C9482050C9482050C9482050C948205E4
:100080000C9482050C9482050C9482050C948205D4
:100090000C9482050C9482050C9482050C948205C4
:1000A0000C9482050C9482050C948205FFFFFFFFDF
:1000B0007F3F1F0F8FFF7F1F0F0F1F3F3F3F3F7F70
:1000C0007F3F3F3F3F3F3F7FFFFFFFFFFFFFFF7C43
:1000D0003808040203E39808080C0000000C0C9E8A
:1000E00000000000FE000000FFFFFFFFFFFFFFFC1D
:1000F000F800000000FF030101FF0000006163F74A
:10010000000000003F000000FFFFFFFFFFFFFFFFB8
:100110007F302020303F3838383838383838383C4D
:10012000302020303F3E7EFFFFFFFFFFFFFFFFFF3D
:10013000000000FCBC1404040404000000040404D7
:100140000414BC00000000FFFFFFFFFFFFFFFFFFE4
:100150000000003F7F3B3000000404040404000062
:100160000043FF00000000FFFFFFFFFFFFFFFFFF56
:10017000C08080C3C3C2C2C2C3C2C0C0C2C3C2C2E5
:10018000C24243C08080C0FFFFFFFFFFFFFFFFFFB1
:10019000FFFFFFFFFF7FBFDFEF679B9D6E75B3C55E
:1001A000CE57BBDCEDF3FFFFFFFFFFFFFFFFFFFFBD
:1001B000FFFFF3EDCEB73ADCE873A3CDEEF6F9FD21
:1001C000FEFFFFFFFFFFFFFFFFFFFFFFFFFFFFFF40
:1001D000FF8F8787878787868607070707078787B1
:1001E00087878787878FFFFFFFFFFFFFFFFFFFFFE7
:1001F000FFFFFFFFFFFFFFFFFF0000000000FFFF0A
:10020000FFFFFFFFFFFFFFFFFFFFFFFFFFFFFF9F5E
:100210000F0F0F0F0F0F0F0F0F00000000000F0F39
:100220000F0F0F0F0F0F0F9FFFFFFFFFFFFFFFFFCE
:100230009F8F8F8F8F8F8F8F8F8F8F8F8F8F8F8FBE
:100240008F8F8F8F8F8F8FFFFFFFFFFFFFFFFFFFCE
:10025000FFFF01000000888888888808080808884F
:1002600088808080C1FFFFFFFFFFFFFFFFFFFFFFD0
:100270003F03000080F8F878180000008088888824
:100280008808080808F8F8FDFFFFFFFFFFFFFFFDE3
:10029000F8F8F8FCFCF8F8F8F8FCFEFFFFFFF9F1BD
:1002A000F1F0F0F8FCFFFFFFFFFFFFFFFFFFFFFF94
:1002B0007F3F1F0F8FFF7F1F0F0F1F3F3F3F3F7F6E
:1002C0007F3F3F3F3F3F3F7FFFFFFFFFFFFFFF7C41
:1002D0003808040203E39808080C0000000C0C9E88
:1002E00000000000FE000000FFFFFFFFFFFFFFFC1B
:1002F000F800000000FF030101FF0000006163F748
:10030000000000003F000000FFFFFFFFFFFFFFFFB6
:100310007F302020303F3838383838383838383C4B
:10032000302020303F3E7EFFFFFFFFFFFFFFFFFF3B
:10033000000000FCBC1404040404000000040404D5
:100340000414BC00000000FFFFFFFFFFFFFFFFFFE2
:100350000000003F7F3B3000000404040404000060
:100360000043FF00000000FFFFFFFFFFFFFFFFFF54
:10037000C08080C3C3C2C2C2C3C2C0C0C2C3C2C2E3
:10038000C2C2C3C08080C0FFFFFFFFFFFFFFFFFFAF
:10039000FFFFFFFF0100FCFCFC1C0C0C0C0C1CFC08
:1003A000FCFC0001FFFFFFFFFFFFFFFFFFFFFFFF60
:1003B000FFFFFFFF80003F3F3F3F3E30303E3F3F6B
:1003C0003F3F0080FFFFFFFFFFFFFFFFFFFFFFFF3B
:1003D000FF8F8787878787878707070707078787AD
:1003E00087878787878FFFFFFFFFFFFFFFFFFFFFE5
:1003F000FFFFFFFFFFFFFFFFFF0000000000FFFF08
:10040000FFFFFFFFFFFFFFFFFFFFFFFFFFFFFF9F5C
:100410000F0F0F0F0F0F0F0F0F00000000000F0F37
:100420000F0F0F0F0F0F0F9FFFFFFFFFFFFFFFFFCC
:100430009F8F8F8F8F8F8F8F8F8F8F8F8F8F8F8FBC
:100440008F8F8F8F8F8F8FFFFFFFFFFFFFFFFFFFCC
:10045000FFFF01000000888888888808080808884D
:1004600088808080C1FFFFFFFFFFFFFFFFFFFFFFCE
:100470003F03000080F8F878180000008088888822
:100480008808080808F8F8FDFFFFFFFFFFFFFFFDE1
:10049000F8F8F8FCFCF8F8F8F8FCFEFFFFFFF9F1BB
:1004A000F1F0F0F8FCFFFFFFFFFFFFFF2900140051
:1004B0001A000800150017001C0018000C0012009C
:1004C00013002A0000005F00600061002B000400A0
:1004D0001600070009000A000B000D000E000F00B7
:1004E0000000280000005C005D005E00E1001D00CF
:1004F0001B00060019000500110010003600000066
:1005000000003700520059005A005B00E000E20092
:1005100001512C0000002A0002510000E000000000
:100520000000500051004F006200035135001E00D2
:100530001F002000210022002300240025002600A7
:1005400027004C0000002400250026002B00350069
:100550002D002E0009000A000B000D000E003400D3
:10056000000033000000210022002300E1001D00F4
:100570001B000600190005001100100038000000E3
:10058000000031004B001E001F002000E000E200D0
:1005900001002C0000002A0001000000E000000023
:1005A0000000B6004E00B700270053003A003B00A1
:1005B0003C003D003E003F0040004100420043003F
:1005C000440045000000C35CC45CC75C2B00040011
:1005D0001600070009000A000B000D000E002F0096
:1005E000000030000000C55CC65CC85CE1001D0076
:1005F0001B00060019000500110010003600000065
:10060000000037005200C95CCA5C20006500E200AF
:1006100001002C0000002A0001000000760000000C
:100620000000500051004F002700C25C29003A0032
:100630003B003C003D003E003F00400041004200C6
:100640004300440000005400550056002B000400F5
:100650001600070009000A000B000D000E000F0035
:10066000000028000000630000005700E1001D00AA
:100670001B000600190005001100100037000000E3
:100680000000370052002A0000005800E000E2009D
:1006900001002C0000002A0001000000E000000022
:1006A0000000500051004F005300010032190A00B1
:1006B000047F3F1F643214643214783C1E1E140AF7
:1006C000052223252628292A2C2D2F303233353692
:1006D000383A3B3D3E4042434547494A4C4E5051D3
:1006E000535557595A5C5E6062646668696B6D6FFA
:1006F00071737577797B7D7F81838587898A8C8EFD
:1007000090929496989A9C9E9FA1A3A5A7A8AAAC04
:10071000AEAFB1B3B4B6B8B9BBBCBEBFC1C2C3C53E
:10072000C6C7C9CACBCCCDCED0D1D2D2D3D4D5D6E0
:10073000D7D7D8D9D9DADADBDBDBDCDCDCDCDCDD13
:10074000DDDDDDDCDCDCDCDCDBDBDBDADAD9D9D8F7
:10075000D7D7D6D5D4D3D2D2D1D0CECDCCCBCAC98F
:10076000C7C6C5C3C2C1BFBEBCBBB9B8B6B4B3B1BE
:10077000AFAEACAAA8A7A5A3A19F9E9C9A98969459
:1007800092908E8C8A89878583817F7D7B7977752E
:1007900073716F6D6B6968666462605E5C5A59570D
:1007A000555351504E4C4A4947454342403E3D3BCC
:1007B0003A3836353332302F2D2C2A292826252356
:1007C00022FFAA7F55400001010101010101010141
:1007D00002020202020202020203030303030303F2
:1007E00003040404040404040505050505060606BF
:1007F0000606070707070708080808090909090A7C
:100800000A0A0B0B0B0C0C0C0D0D0D0E0E0E0F0F20
:100810000F101011111112121313141415151616AE
:100820001717181819191A1A1B1B1C1D1D1E1E1F1D
:100830002020212222232424252626272829292A6C
:100840002B2C2D2D2E2F3031323233343536373894
:10085000393A3B3C3D3E3F40414243444546474890
:10086000494A4C4D4E4F50515354555658595A5B66
:100870005D5E5F616264656668696B6C6D6F707206
:10088000737577787A7B7D7E8082838587888A8C72
:100890008E8F91939596989A9C9EA0A2A3A5A7A9A6
:1008A000ABADAFB1B3B5B7BABCBEC0C2C4C6C9CB9D
:1008B000CDCFD1D4D6D8DBDDDFE2E4E7E9EBEEF053
:1008C000F3F5F8FAFDFF00AE00AF00DA0281FFD9C0
:1008D000F1DB20A4A62EAF00A0C000A1C800AED5B9
:1008E00080A81FD300408D142000040330000000B6
:1008F0001C03430068006F0063006F006C00610020
:1009000074006500200042006100720000001803BE
:100910004D00690073006F006E006F0057006F009C
:1009200072006B00730000000403090409023B001D
:10093000020100A0FA0904000001030101000921DD
:10094000110100012240000705810308000A090483
:100950000100010300000009211101000122BC0077
:100960000705820320000A1201100100000008EDB3
:10097000FE56C401000102030105010902A101851F
:10098000020901A100050919012905150025019594
:100990000575018102950175038101050109300981
:1009A000311581257F950275088106093815812545
:1009B0007F950175088106050C0A38021581257F8F
:1009C000950175088106C0C005010980A101850354
:1009D00019012AB700150126B7009501751081008D
:1009E000C0050C0901A101850419012AA002150105
:1009F00026A002950175108100C005010906A1011C
:100A00008505050719E029E71500250195087501F9
:100A100081020507190029EF1500250195F07501E0
:100A200081020508190129059505750191029501B5
:100A300075039101C005010906A101050719E02907
:100A4000E71500250195087501810295017508815A
:100A5000010507190029FF150026FF0095067508F6
:100A60008100050819012905950575019102950177
:100A700075039101C00011241FBECFEFDAE0DEBF85
:100A8000CDBF04B603FE27C08091890590918A05E9
:100A9000A0918B05B0918C058730904BA740B04B4F
:100AA000D1F41092890510928A0510928B0510924C
:100AB0008C0514BE84B7877F84BF0FB6F894A895C1
:100AC00080916000886180936000109260000FBE8A
:100AD000E0E0F8E3099511E0A0E0B1E0EEE0F0E637
:100AE00002C005900D92A63FB107D9F725E0A6EF09
:100AF000B1E001C01D92A938B207E1F70E941829A0
:100B00000C94C92F0C94000083E008956091DC02DE
:100B10007091DD028091DE029091DF020E94B1218E
:100B200081110AC00E948D1660E072E080FF06C04D
:100B30008CEA92E00C94DB1160E072E08CEA90E0C9
:100B4000F9CF81E0089581E008950C94A3050895FC
:100B50000C94A7051F93CF93DF9300D000D00F9282
:100B6000CDB7DEB749835A836B8330917B0289818D
:100B70009A8131111DC06623B9F02223A9F00E9489
:100B80006D20182F682F89819A810E941A2069810F
:100B90007A81812F0F900F900F900F900F90DF911F
:100BA000CF911F910C9460060E944620182FEFCF22
:100BB0000E946D2069817A81EDCFFC01262F408152
:100BC00051816281738184810C94AA05CF93DF9354
:100BD000EC0160E00E94DD05BE01DF91CF910C9435
:100BE000A8050E94FE21811102C00E94A5220C943A
:100BF0006D080C94700808950E94811B0E94FB05EB
:100C00002FEF84E39CE0215080409040E1F700C04A
:100C100000000C9438240F931F93CF93DF93EC01C3
:100C200061E00E94DD058C01BE010E94A5058823BC
:100C300059F1BE01C8010E94F413882329F1BE01B5
:100C4000C8010E9446148823F9F0BE01C8010E9421
:100C500069158823C9F0BE01C8010E949D10882330
:100C600099F08A81882339F001158CE5180751F035
:100C70000E3D1C4579F0CE01DF91CF911F910F9170
:100C80000C94A1050E94FC0580E0DF91CF911F919B
:100C90000F9108950E94A522F7CF08950C944D0658
:100CA00081E008950C945006CF93C82F0E944E0601
:100CB0008C2FCF910C94520690E080E00895089517
:100CC00024E0829FC0011124FC01E70FF11D84E0A4
:100CD000EE0FFF1F8A95E1F7E60FF11DEE0FFF1FE4
:100CE000E455FB4F859194910895FC01EE0FFF1F91
:100CF000E455F94F859194910895CF93DF930E9425
:100D000060060E949207EC01811520E5920708F029
:100D100042C0811530E4930708F0BDC0883E9105BC
:100D200028F5803E910508F09DC0883A910588F429
:100D3000853A910508F08FC08130910509F492C081
:100D4000009709F48FC0049708F08CC0D0E0C0E091
:100D500089C08F3B910508F489C0805C9109C03C33
:100D6000D105A0F30E947506EC017CC0811590426C
:100D700050F4C11581E0D80708F074C0C03FD10518
:100D800028F3D0656FC0C11590E3D90708F079C08A
:100D9000CE019F70E7CF811525E5920758F58115A3
:100DA00034E5930708F0A6C0811542E5940750F496
:100DB000C11581E5D80708F471C0DC2FCC27C16FBD
:100DC000D06A50C0982F969596959E012370332730
:100DD000C115D34508F07FC0C1E0D0E002C0CC0F00
:100DE000DD1F2A95E2F720E2929FC0011124C82B53
:100DF000D92B6FC0C11589E5D807A8F4C11598E5AE
:100E0000D90708F07CC0C11526E5D20708F09ECFAF
:100E10008C2F0E942908C82FD0E0DC2FCC27CC27AC
:100E2000DF71D0621FC0C1153AE5D30708F46CC06A
:100E3000CE0190568115904208F088CF8D2F8F718A
:100E40000E94290890E0982F882788279F719C018D
:100E50002C2BE901E6CFC55AD0E0C658DE4FC88139
:100E6000D0E0D064CE01DF91CF910895C85AD0E090
:100E7000CC0FDD1FC45BDE4F0990D881C02DD46438
:100E8000F1CFCE019927D3FF03C0EC01D86CEACF94
:100E9000EC01D06CE7CFDF70D06AE4CFCE01E4E0A4
:100EA00096958795EA95E1F783702C2F26952695E0
:100EB000237090E2299F90011124382B8C2F83708E
:100EC000C1E0D0E002C0CC0FDD1F8A95E2F7C22B53
:100ED000D32BDC68C7CFC1E0D0E002C0CC0FDD1F50
:100EE0002A95E2F730E2939FC0011124C82BD92B39
:100EF000DA68B8CFD82FCC27C46FD06AB3CFDC2F35
:100F0000CC27C06FD06AAECF8C2F8F700E9429087B
:100F100034E0D695C7953A95E1F7CF709C2FEC0158
:100F2000D069A0CF82389105B1F1B0F48133910539
:100F300009F475C048F48932910509F469C08A3210
:100F4000910509F473C008958533910509F459C0DA
:100F50008933910501F10895833E9105A9F138F493
:100F6000803E9105F9F0823E910549F10895863E53
:100F70009105A9F1873E9105C9F1843E910519F5C6
:100F800020917B0521FF1FC080917A0584FD14C04C
:100F900087EE90E0089520917A052370A1F080EE0D
:100FA00090E0089520917A0520FD47C030917B059F
:100FB00030FF09C024FF44C090E080E004C02091CD
:100FC0007A0522FDF7CF089520917A0522FD3BC0D6
:100FD00030917B0530FDE3CF24FFF5CFEDCF20919D
:100FE0007A0523FFF0CF24FDE7CFD2CF20917A05F9
:100FF00023FD2CC030917B0531FFEECF84EE90E0D5
:10100000089520917A0525FFDECF89E290E00895CA
:1010100020917A0525FFD7CF85E390E008952091B0
:101020007A0526FFD0CF8AE290E0089520917A05D4
:1010300026FFC9CF81E390E0089589E390E0089509
:1010400083EE90E0089582EE90E0089586EE90E0C1
:10105000089590917A0592FF06C0282F28712830B4
:10106000F9F4877F846093FF06C0282F2871283108
:10107000F1F4877E846120917B0520FF06C0382F24
:1010800038713830D9F4877F816021FF06C0282F5E
:1010900028712831D1F4877E816194FD877E08957F
:1010A000282F24712430F9F68B7F8860DCCF282F1D
:1010B0002471243101F78B7E8861DDCF382F3171A7
:1010C000313019F78E7F8860E0CF282F21712131D0
:1010D00021F78E7E8861E1CF08950C946C08089505
:1010E0000C946F08E82FF0E0EE0FFF1FE15CFC4F5F
:1010F000808191810895089580EA8A95F1F7089595
:10110000CF93DF93ADE8B1E041E951E0C1E0D0E039
:101110008D91E82FE295EF70F0E061A18F709E0154
:1011200001C0220F8A95EAF7922F9095962391A3FA
:1011300082A1822B82A34A175B0751F7ADE7B1E08A
:101140004DE851E0C1E0D0E08D91E82FE295EF70DD
:10115000F0E061A18F709E0101C0220F8A95EAF72D
:10116000922F9095962391A382A1822B82A34A1756
:101170005B0751F710923803109237031092400327
:1011800010923F0310923A031092390310924203D7
:101190001092410310923C0310923B0310924403BF
:1011A0001092430310923E0310923D0310924603A7
:1011B0001092450384E00E946809DF91CF910C945E
:1011C000F1058F929F92AF92BF92CF92DF92EF92F2
:1011D000FF920F931F93CF93DF938DE8E82E81E06A
:1011E000F82E07E313E0912CAA24A394B12CF70165
:1011F00081917F01C82FC295CF70D0E099A18F70E7
:10120000650101C0CC0C8A95EAF7892F8C2989A346
:101210008AA18C2C809488218AA30E947C08EDE707
:10122000F1E050E040E030E020E06191A62FA2958F
:10123000AF70B0E090968C9190E06F7002C0959581
:1012400087956A95E2F780FD3EC0C501042E02C075
:10125000880F991F0A94E2F7282B392B4F5F5F4FB5
:101260004031510511F789A1882289A28AA1C82A93
:10127000CAA2F801808191812817390739F1318399
:10128000208381E0982A0E5F1F4FF1E9EF16F1E00D
:10129000FF0609F0ACCF292D44E06FE373E087E34C
:1012A00093E00E9469090E94F905892DDF91CF9191
:1012B0001F910F91FF90EF90DF90CF90BF90AF9074
:1012C0009F908F90089590E080E0C6CF80E0DACFC5
:1012D0000895FF920F931F93CF93DF93F82E092F5A
:1012E000162FD72FC42F222349F081E08093F801D5
:1012F0000E94ED239093F7018093F6018091F8010D
:101300008823A1F08091F6019091F7010E940524B5
:10131000069760F0EF2DF02FA12FBD2F90E080E019
:10132000D0E08C179D0744F01092F801DF91CF9127
:101330001F910F91FF900895219131912D933D932D
:101340000196EFCFEF92FF920F931F93CF93DF930E
:10135000EB01E82FD11110C0442321F0F0E0EA5353
:10136000F84FE4916E2F7E2F8E2FDF91CF911F913A
:101370000F91FF90EF9008950D2F10E0282F30E08F
:10138000442329F02A53384FF901249130E0F6E044
:10139000CF9FC0011124EFEFF0E0BF010E94782E33
:1013A000AB018C2F90E0880F991FA5E5A49FB00199
:1013B000A59F700D1124861B970B982F990F980FDE
:1013C000BF01601B710B629FD001639FB00D729FC4
:1013D000B00D11248B2F9D9FB0011124672F77270B
:1013E000EF01C61BD70BBE01629FE001639FD00DCA
:1013F000729FD00D11247F01E91AF108E09EB0011F
:10140000E19E700DF09E700D1124672F7727E61B6B
:10141000F70BE29F8001E39F100DF29F100D112446
:10142000E12F722F4230510599F048F441155105D2
:1014300069F04130510581F0EB2F8D2F07C044300A
:10144000510569F080F046305105B1F76E2F8DCF10
:10145000E22F7B2F812FFACFE22F7D2FF7CFEB2FBB
:10146000822F712FF3CF7B2F822FED2FEFCF41E013
:101470000C94A2090895CF93DF93762FE901682F8A
:10148000842F0E94370A798368838A83DF91CF9102
:10149000089580914703982F9E7F29F48170826080
:1014A0008093470308958635E8F381708465F8CF0B
:1014B00088E090E00C946A2FCF92DF92EF92FF9237
:1014C0006B017C010E94490AB701A60188E090E007
:1014D000FF90EF90DF90CF900C94882FE7E4F3E03B
:1014E00083E0808311828FEF828383831482608103
:1014F0007181828193810C945C0A8091470380FF03
:1015000002C08695089580E0089590914B03933032
:1015100018F49F5F90934B03882351F06091470329
:10152000709148038091490390914A030C945C0A9E
:10153000089581E00C94850A90914B03992319F04A
:10154000915090934B03882351F060914703709121
:1015500048038091490390914A030C945C0A0895D2
:1015600081E00C949C0A70E00C940D1160910801CC
:101570008091470380FF0AC08091070123E0829F8A
:10158000C0011124845B9C4F0C94B30A8091090123
:1015900090910A0123E0829FF0011124E45BFC4F4B
:1015A000891750F71182108212828F5F3396F8CF1D
:1015B0009091470390FF14C09091090120910A0176
:1015C00033E0939FF0011124E45BFC4F921710F07D
:1015D0000C94B60A8183608342839F5F3396F6CF73
:1015E0000895CF93DF9300D00F92CDB7DEB79091DF
:1015F000470390FF0AC09E012F5F3F4F0E943B0AA6
:101600004B8169818A810E94D80A0F900F900F90B8
:10161000DF91CF910895CF93DF93EC01EC81F0E05F
:10162000EF53F94F4491E7E4F3E0628181810E9436
:10163000F10A8C818F5F8C83DF91CF910895CF93D6
:10164000DF93EC01E7E4F3E0438162818C810E9447
:10165000F10A8C818F5F8C83DF91CF9108950F9376
:101660001F93CF93DF9300D00F92CDB7DEB78C01DD
:101670008091F90181110AC09E012F5F3F4F4FEF0A
:101680006FEF0E943B0A8A818093F901F80164811F
:10169000613069F08091F90140E0662361F040E03B
:1016A000623011F44091F90180E060E004C0609183
:1016B000F90140E080E00E94D80AF801848190E0BE
:1016C000019663E070E00E948C2E84830F900F904F
:1016D0000F90DF91CF911F910F910895AF92BF921C
:1016E000CF92DF92EF92FF920F931F93CF93DF93EE
:1016F00000D00F92CDB7DEB7182FF62E042FE22EB2
:101700009091470390FF29C0E92FE695AE2FB0E0F6
:10171000AF56BE4F8C9180933F029E7F923059F519
:101720009E012F5F3F4F812F0E943B0A4B816981B1
:101730008A810E94D80A10934803F09249030093CB
:101740004A03EE2051F06091470370914803809165
:10175000490390914A030E945C0A0F900F900F90EA
:10176000DF91CF911F910F91FF90EF90DF90CF907D
:10177000BF90AF900895823019F400914A03DBCFF7
:10178000863019F410914803D6CF8930D9F38931C6
:1017900091F6E9518E2F8170D82EE695F0E0EF5347
:1017A000F84FA590B490C12CBB2460910B01C616D4
:1017B00018F00E94B60ABFCF2C2D30E0A29EC001C7
:1017C000A39E900DB29E900D112470E00E94782E81
:1017D000812FD11013C0860F40910901420F532F62
:1017E000511D9A01220F331F240F351F245B3C4FDC
:1017F000402F6F2D0E943B0AC394D7CF861BECCF9E
:10180000E7E4F3E09181282F4381628188E0890F2A
:101810000C946E0B81E00C94000CE7E4F3E09181F2
:10182000282F4381628188EF890F0C946E0B81E031
:101830000C940D0CE7E4F3E0628121E1620F08F4FF
:101840006FEF282F438181810C946E0B81E00C9403
:101850001A0CE7E4F3E0628121E1621B08F460E026
:10186000282F438181810C946E0B81E00C94290C0C
:10187000E7E4F3E0438121E1420F08F44FEF282F22
:10188000628181810C946E0B81E00C94380CE7E44A
:10189000F3E0438121E1421B08F440E0282F6281FC
:1018A00081810C946E0B81E00C94470C20E00C9429
:1018B0006E0BEF92FF921F93CF93DF93EC0110E03A
:1018C000EE24EA94F12C60910B01161770F00E943F
:1018D000B60A9A818C8190FF27C08F5F8C83DF913D
:1018E000CF911F91FF90EF90089520910901422F11
:1018F000410F5527551FCA019A01220F331F280F88
:10190000391F245B3C4F70E0C7010E948C2E962F3C
:101910008C8140914A0360914903199F800D1124E5
:101920000E943B0A1F5FCFCF8150D8CFAF92BF92AA
:10193000CF92DF92EF92FF920F931F93CF93DF939B
:10194000FC0182810FEF80FF01E010E04CE0A42E4B
:1019500080910B011817C8F00E94B60A8091FB0114
:10196000013009F055C0811102C080910B018150F6
:101970008093FB01DF91CF911F910F91FF90EF902A
:10198000DF90CF90BF90AF900895C0910901C12E14
:10199000D12CCC0DDD2DD11DCE01880F991FC80F84
:1019A000D91FC45BDC4F198218821A8234E0E32EFF
:1019B000F12CB12C8091FB018B0D8D301CF16A2D27
:1019C0000E946A2E892F082E000C990BC816D90682
:1019D00091F480914A038E9DA0018F9D500D11249A
:1019E00055954795559547959E016091490380917E
:1019F00048030E943B0AB00EF1E0EF1AF108D1F65D
:101A00001F5FA6CF87FFDFCF90910B01890FDBCF40
:101A100090E0019660910B0170E00E948C2EA8CF9F
:101A20000F931F93CF93DF938091090190910A0147
:101A300023E0829FF0011124E45BFC4F891740F101
:101A4000C0E0D3E060910B01C61740F10E94B60AD6
:101A5000209105018091FA01820F8093FA01909103
:101A60000601920F90930601191654F4082E000CEB
:101A7000990B40910B014150550B841795071CF0B1
:101A8000219520930501DF91CF911F910F9108952A
:101A90001182108212828F5F3396D0CF0C2F10E00C
:101AA00070E0C8010E948C2E20910901820F482FFE
:101AB00050E02091FA01022E000C330B021713079D
:101AC000BCF020910601022E000C330B20173107C9
:101AD0007CF08D9F90011124245B3C4F40914A0380
:101AE00060914903809148030E943B0ACF5FAACFCF
:101AF000FA01EE0FFF1FE40FF51FE45BFC4F1182AC
:101B000010821282F3CF8F929F92AF92BF92CF92A8
:101B1000DF92EF92FF920F931F93CF93DF93EC012D
:101B20004C81042F10E09801D8010E94D02E9B0117
:101B3000AC010E94E62E4B015C01E0E2F0E0E01B0C
:101B4000F10BA5E5B0E0AC019B010E94E62E6B0114
:101B50007C019F01DF010E94C82E9B01AC010E9405
:101B6000F12E9B01AC01280D391D4A1D5B1DC701DB
:101B7000B6010E94A02EF22E822F90E039E23F158E
:101B800060F143E0249F9001112435952795122F91
:101B9000109500E085E5E82EEF1880910B010817FD
:101BA00058F10E94B60A9C8181E0992319F0903285
:101BB00019F48FEF8093040180910401890F8C83C5
:101BC000DF91CF911F910F91FF90EF90DF90CF9019
:101BD000BF90AF909F908F90089525E530E0B901B8
:101BE000681B790B9B01220F331F260F371F37FF0E
:101BF000CCCF2F5F3F4FC9CF8E2D01FD8F2D209170
:101C00000901622F600F7727771F9B01220F331F77
:101C1000260F371F245B3C4F412F609149030E94E0
:101C20003B0A0F5FBACF0F931F93CF93DF93EC0163
:101C300010E000E090910B019017110609F06CF490
:101C40000E94B60A8C8190E00196817099278C835E
:101C5000DF91CF911F910F91089520910901A80163
:101C6000420F511D9A01220F331F240F351F245B91
:101C70003C4F4C81609149038091480396959017A1
:101C8000110651F04CF0442349F040914A030E9460
:101C90003B0A0F5F1F4FCECF4423B9F340E0F7CF8D
:101CA0008F929F92AF92BF92CF92DF92EF92FF926C
:101CB0000F931F93CF93DF93FC01B280948081E058
:101CC000848300E015E05BE4A52E88248394EE2451
:101CD000EA94F12C7BE4C72ED12C80910B010817DC
:101CE00070F0DF91CF911F910F91FF90EF90DF90F7
:101CF000CF90BF90AF909F908F900C94B60AC02F5A
:101D0000D0E01C9FF0011D9FF00D1124E450FE4F08
:101D100091101CC01382128220910901CE01820F02
:101D2000911D9C01220F331F280F391F245B3C4F4C
:101D30001C9FF0011D9FF00D1124E450FE4F4281C5
:101D4000618180810E943B0A0F5FC7CF23812223DC
:101D500079F12150238334818A2D821B311101C0F6
:101D6000822F1C9FF0011D9FF00D1124E450FE4FA7
:101D700090914A03899FC0011124B6010E94782ED8
:101D80006283211104C0332311F01482A38222E064
:101D90002B1510F21C9FF0011D9FF00D1124E45033
:101DA000FE4F809148038083809149038183B4CFA3
:101DB0000E94452F823091400CF0AECF82E08B150F
:101DC00030F50E94452FB7010E948C2E1C9FF00118
:101DD0001D9FF00D1124E450FE4F808322E02B154F
:101DE000C8F40E94452F209149032695622F70E088
:101DF0000E948C2E280F1C9FF0011D9FF00D1124B6
:101E0000E450FE4F21831282A382848285CF809189
:101E10004803DCCF20914903EECFE7E4F3E0808173
:101E20008E7F808360817181828193810E945C0AB0
:101E3000109240022FEF80E792E0215080409040C6
:101E4000E1F700C000000C94B60A60914703669564
:101E500070E04BE050E08CE091E00E94552F892B20
:101E600019F481E0809340020E94ED23909339029F
:101E70008093380208959091470390FF35C0917088
:101E8000811128C0926090934703662351F06091BE
:101E90004703709148038091490390914A030E943F
:101EA0005C0A60914703669570E04BE050E08CE07F
:101EB00091E00E94552F892BA1F01092400281E001
:101EC00080933B0240914A0360914903809148030B
:101ED0000C94560C8B3210F09465D5CF880F982B4C
:101EE000D2CF0E94250FEBCF0895682F9091470322
:101EF000969581E0890F8B3208F081E00C943B0FBE
:101F000081E00C94750F682F9091470396958FEFA1
:101F1000890F09F48AE20C943B0F81E00C94830F43
:101F200061E00C943B0FE7E4F3E080818160808303
:101F300086950C94900F8091470380FD0C940D0FB3
:101F40000C94930F60E00C943B0F80913E02811142
:101F50002EC00E94FE21811104C00E94A5220E9471
:101F60006E0A0E94580A6093470370934803809357
:101F7000490390934A036E7F61F40E946E0A0E94A7
:101F8000580A6093470370934803809349039093E2
:101F90004A030E94490A109240028091470380FF41
:101FA00003C086950E94A20F81E080933E020895AF
:101FB0000F931F93CF93DF9380914002882309F4FE
:101FC0009DC080913F02E0914703E695E81BE093B6
:101FD0003A028230C9F5F0E0E354F94FE491CE2F94
:101FE000D0E00BE01BE080913B02882389F0109247
:101FF0003B020E94ED239E0120953095820F931F96
:10200000909339028093380210923D0210923C0264
:1020100080913802909139020E9405248C179D0707
:1020200008F46CC0E0913802F0913902CE0FDF1F46
:10203000D0933902C093380288E392E0F801DF912F
:10204000CF911F910F910994863049F4F0E0E65446
:10205000F94FE491CE2FD0E00FE11BE0C4CF8930DF
:1020600051F4E695F0E0E954F94FE491CE2FD0E039
:1020700009E51CE0B8CF8F3051F4E695F0E0EC5460
:10208000F94FE491CE2FD0E006E91CE0ACCF8531CA
:1020900049F4F0E0EF54F94FE491CE2FD0E000E1A5
:1020A0001DE0A1CFC8E2D0E003E81DE0883109F4CB
:1020B0009ACF833239F4EFEAF6E0C591D4910FE27A
:1020C0001BE091CFC4EFD1E003E11EE0843209F4BC
:1020D0008ACFC0EDD7E00AE31AE0853209F083CF5A
:1020E0008E2F63E00E945E2EE92FF0E0E455F94F59
:1020F000E491CE2FD0E000E51EE075CFDF91CF91C7
:102100001F910F910895FA01811101C0FB010994FB
:10211000CF93DF93C82FD62F0E947D0A8C1740F0F3
:102120000E947D0A8D1720F4DF91CF910C94800FCF
:102130008C2FDF91CF910C94900F0F931F93CF931F
:102140008C01FB01C281CC2309F465C00E940221ED
:102150008272F801E25CFC45E431F10538F4E553A4
:10216000F04D0C94C22E0E949B0FC0E08C2FCF919B
:102170001F910F9108954DE85FE060E87FE00E94B5
:102180008310F3CF40E85FE06DE87FE0F8CF47E1F0
:102190005CE06AE07CE0F3CF4AE05CE067E17CE091
:1021A000EECF45E35CE066E27CE0E9CF46E25CE04E
:1021B00065E37CE0E4CF43E55CE064E47CE0DFCF12
:1021C00044E45CE063E57CE0DACF40EB5AE069E9A7
:1021D0007AE0D5CF49E95AE060EB7AE0D0CF81E0F0
:1021E0000E94900FC2CF65E082E00E948810BDCFB0
:1021F00068E086E0FACF6EE089E0F7CF64E18FE037
:10220000F4CF67E185E1F1CF88E1EACF62E289E1CD
:10221000ECCF83E2E5CFC1E0A9CF219A45B14D7F54
:1022200055B15260EFB7F8949B01220F331F260F70
:10223000371F280F391F2817390741F4EFBF8FE5E3
:1022400094E00197F1F700C000000895DC016D9162
:10225000CD0178E055B9000000C067FF45B9660FB1
:10226000000000C000C000C045B900C07A9591F7D9
:10227000E2CFCF92DF92EF92FF920F931F93CF9313
:10228000DF936C017B0164E670E088E70E9499159A
:10229000EC0197FD12C010E000E0F601E00FF11F25
:1022A000849164E670E00E94F515EC01892B29F415
:1022B0000F5F1F4F0E151F0581F70E947816CE0184
:1022C000DF91CF911F910F91FF90EF90DF90CF9012
:1022D0000895E0E7F3E080E092E0DF019C011D92C9
:1022E00021503040E1F7F0937505E09374058FEFCE
:1022F0009FEF909367028093660208950E94840581
:102300008093620280FD0FC080E8809361020E948A
:1023100093156DE070E08DED98E00E943911892BE6
:1023200021F080E0089580E2F0CF8091620263E0C6
:1023300070E081FD26C08AED98E00E943911892B5A
:1023400081F76DE070E08AEC98E00E943911892BEA
:1023500041F70E94F923605A75418F4F9F4F609358
:1023600070057093710580937205909373050E94B8
:10237000691181E080936502809364021092630288
:10238000089587ED98E0D9CF2091610236E0839FD0
:10239000C0011124629F800D911D1124811522E03E
:1023A000920714F090E080E080599C4F909375055F
:1023B0008093740508950F931F93CF93DF9361303B
:1023C00002E0700710F060E072E040916602509108
:1023D0006702A0E7B3E030E020E0C1E0D0E02617DC
:1023E000370749F45093670240936602DF91CF911B
:1023F0001F910F910895FC01E20FF31FE491FC91EE
:10240000FE1781F0EC93F90115E0F695E7951A9522
:10241000E1F78E0102C0000F111FEA95E2F7F80103
:10242000402B5F2B2F5F3F4F1196D9CF0E94F9238E
:10243000605A75418F4F9F4F60937005709371057F
:10244000809372059093730580916402811108C096
:1024500062E070E088EC98E00E943911892B19F055
:1024600080916402089581E080936402F9CF2F92F5
:102470003F925F926F927F928F929F92AF92BF92A4
:10248000CF92DF92EF92FF920F931F93CF93DF9340
:1024900020916602309167022115310531F080915B
:1024A000630261E070E0882399F0DF91CF911F9182
:1024B0000F91FF90EF90DF90CF90BF90AF909F90E3
:1024C0008F907F906F905F903F902F9008958F5FD7
:1024D000082F10E01B01082E02C0220C331C0A94A6
:1024E000E2F7A90142215321452B89F39091620221
:1024F00090FD44C08295880F8076809319019801E1
:10250000369527953695279520931C01815E8093FB
:102510001A0110921D0124E630E047E050E067E127
:1025200071E088E70E942416892B09F0BECFA8012C
:1025300025E0440F551F2A95E1F78091620280FD46
:102540002BC040595C4F04E610E020E230E060E42C
:1025500088E70E944B16892B09F0A7CF0E9416121C
:10256000E101C095D0958091660290916702C823E1
:10257000D923D0936702C093660297CF880F880F44
:10258000880F8093190110921C01895F80931A01B2
:1025900083E080931D01BFCFE1E4F2E080E2DF0140
:1025A0001D928A95E9F7A0ECB1E00CEB11E084EC08
:1025B000C82E81E0D82E97E0592E772473948D9100
:1025C000E80129918E01240F352F311D20593C4FF0
:1025D000E82FF0E0EF5BFD4F90E080E0652C681A9B
:1025E000872C082E01C0880C0A94EAF77901A12CE7
:1025F000E701B9907E01B820662D6A196770962EA2
:10260000062E000C770BDB2D01C0DD0F9A94EAF744
:102610007195619571096770772701C0B6946A95C5
:10262000EAF7BD2A6081962E9B289082A39468E0E9
:10263000A612DECF019631968830910579F6CA163A
:10264000DB0609F0BCCF04E610E020E230E041E414
:1026500052E07DCF80916402882369F062E070E0EF
:1026600086EC98E00E943911892B19F08091640260
:102670000895109264028091640291E08927089580
:102680000F931F9380916502882301F160E080E041
:102690000E94C4110E9486050E9437128091640234
:1026A0008823A1F00E94F923009170051091710513
:1026B0002091720530917305601B710B820B930B97
:1026C00097FD04C01F910F910C942A131F910F9135
:1026D0000895AF92BF92CF92DF92EF92FF920F9345
:1026E0001F93CF93DF937C015B01C42FD22FFC019A
:1026F00082818823F9F040936A020E94ED2390932F
:1027000069028093680280E28C0F883008F061C013
:10271000C77081E001C0880FCA95EAF7DF91CF91B9
:102720001F910F91FF90EF90DF90CF90BF90AF90EF
:102730000C94051910916A02141340C0809168022C
:10274000909169020E9405246C01B701C5010E94A5
:10275000F71DC816D90690F5C0E2CD0F1D17B9F0C8
:1027600080E2810F883040F4177081E001C0880F4B
:102770001A95EAF70E940C19C83048F481E09D2FA1
:10278000977001C0880F9A95EAF70E940519802F6B
:102790000E94F218C830E8F4D77081E001C0880FB9
:1027A000DA95EAF7DF91CF911F910F91FF90EF90AB
:1027B000DF90CF90BF90AF900C940C1980E28C0FFB
:1027C000883038F4C77081E001C0880FCA95EAF7F5
:1027D000E9CFDF91CF911F910F91FF90EF90DF90A4
:1027E000CF90BF90AF9008950F939C01CB01233FF2
:1027F0004CE5340759F1A8F4283DFCE53F0701F109
:10280000293D4CE53407D1F1273D3C4591F406E2E2
:1028100021EE41EE67ED7CE50E94691380E00F91A7
:102820000895253FFCE53F07E9F0B0F0263F3C4521
:10283000F9F0FC018281882339F110926A02EFCF0E
:1028400007E225EE45EE68ED7CE5E6CF06E221EEF7
:1028500040EE63EF7CE5E0CF07E225EE44EE64EF67
:102860007CE5DACF06E221EE42EE65EF7CE5D4CFDF
:1028700007E225EE46EE66EF7CE5CECF08E221E0EA
:1028800045EE69ED7CE5C8CF81E0C9CFCF93DF93FA
:10289000EC01FB018281882309F419C1C230FCE5F7
:1028A000DF07C0F1C6319CE5D90730F09E012A5FF1
:1028B0003C452930310570F50E941B2290937B0521
:1028C00080937A05C031ECE5DE0709F4CFC008F04B
:1028D0005BC0C8308CE5D80709F4B6C088F5C430B1
:1028E000ECE5DE0709F4A8C0C0F4C2308CE5D807D7
:1028F00009F49CC080917A058260C330DC4509F4FC
:1029000098C080917A0590917B050E9429220E94AF
:10291000811B80E0DF91CF91089580917A058061DD
:10292000C630ECE5DE0709F484C080917A05886042
:10293000C730DC4508F47DC080917A05806279C09B
:10294000CC308CE5D80709F489C070F480917A0501
:102950008C60CA30ECE5DE0709F46BC008F478C07F
:1029600080917A058E7F65C0CE308CE5D80709F45A
:1029700079C080917A058B7FCF30DC4508F459C04F
:1029800080917A058F7E55C0CB3FECE5DE0709F4D8
:1029900057C030F5C3318CE5D80709F46FC078F41F
:1029A000C131ECE5DE0709F465C0C231DC4509F050
:1029B000A8CF0E94811B80917A058F773AC0C531DC
:1029C0008CE5D80709F462C008F476C080917B05D5
:1029D0008160CA3FDC4509F094CF80937B0591CF9D
:1029E000CF3FFCE5DF0709F44DC088F480917B05FB
:1029F0008D7FCD3F9CE5D90781F380917B058E7F4C
:102A0000CE3FDC4550F380917B058360E6CFC1303B
:102A1000FDE5DF0709F459C008F444C080E0C23086
:102A2000DD4509F06ECF0E94A7226BCF80917A0519
:102A3000816080937A0565CF80917A058460F9CFB3
:102A400080917B058260C9CF80917A058064F1CF47
:102A50000E94811B80917A058068EBCF80917A0576
:102A60008D7FE7CF80917A05877FE3CF80917A05CC
:102A70008F7DDFCF80917A058F7BDBCF80917A05C8
:102A8000837FD7CF80917B058C7FA7CF80917A05FC
:102A900082FB992790F921E0922790FB82F990FB25
:102AA00083F9C7CF80917B05982F909591708E7F89
:102AB000892B90FB81F991CF0E94811B90917A051F
:102AC000892F97FB87F98058B4CF81E0ACCF81E0A4
:102AD00021CFCF93DF93EB0186319C4511F50E9406
:102AE00002219A81992399F08A7A91E009F490E081
:102AF00090936B02811109C089E20E94DD200E943F
:102B00004E2180E0DF91CF91089585E3F6CF80914B
:102B10006B02811104C089E20E94E420F0CF85E3BA
:102B2000FBCF81E0EFCF1092B9008CE08093B8002A
:102B30000895EF92FF920F931F93CF93DF93182F77
:102B4000EB011092BC0084EA8093BC000E94ED234C
:102B50007C018091BC0087FF27C08091B900887FED
:102B6000883029F08091B900887F8031D9F51093A1
:102B7000BB0084E88093BC000E94ED238C0180910F
:102B8000BC0087FF24C02091B900287F90E080E03E
:102B90002831B1F081E090E0203411F490E080E041
:102BA0009195819591090CC0CF3FDC0791F20E946D
:102BB000ED238E199F098C179D0758F28EEF9FEF1A
:102BC000DF91CF911F910F91FF90EF900895CF3F2C
:102BD000DC07A9F20E94ED23801B910B8C179D0747
:102BE00070F2ECCF8FEF9FEFEBCF0F931F93CF934C
:102BF000DF93EB018093BB0084E88093BC000E94CC
:102C0000ED238C018091BC0087FF11C02091B90099
:102C1000287F81E090E0283211F490E080E09195E7
:102C200081959109DF91CF911F910F910895CF3F29
:102C3000DC0741F30E94ED23801B910B8C179D074D
:102C400008F38EEF9FEFEECFCF92DF92EF92FF92DD
:102C50000F931F93CF93DF936B018A017901B90121
:102C60000E949915E6010C0D1D1DC017D10761F4D6
:102C700024E92093BC00DF91CF911F910F91FF9029
:102C8000EF90DF90CF90089597FDF2CFB701899133
:102C90000E94F515EACFCF92DF92EF92FF920F9349
:102CA0001F93CF93DF93C62F6A017901B8010E9469
:102CB000991597FD0CC0B8018C2F0E94F515E601FF
:102CC000EC0CFD1CCE15DF0511F097FF0CC024E9BC
:102CD0002093BC00DF91CF911F910F91FF90EF9057
:102CE000DF90CF900895B80189910E94F515EACF41
:102CF00084E98093BC0008959093710280937002E0
:102D00000895E0917002F0917102309721F00190E6
:102D1000F081E02D099480E00895E0917002F09137
:102D20007102309711F480E008950190F081E02D58
:102D300009950895E0917002F0917102309799F031
:102D400020914B01222359F020917A0527FF07C0DB
:102D5000DC012C9111962C93119725E02C93028085
:102D6000F381E02D09940895E0917002F0917102D1
:102D7000309739F022E0DC012C930480F581E02DBE
:102D80000994089520916E0230916F022817390737
:102D900071F090936F0280936E02E0917002F09157
:102DA0007102309721F00680F781E02D0994089593
:102DB00020916C0230916D022817390771F09093C1
:102DC0006D0280936C02E0917002F0917102309775
:102DD00021F00084F185E02D0994089585B780687D
:102DE00085BF85B7806885BF0895089508950C94C0
:102DF000F51608950C94F9160E94EE160E94F61628
:102E00000C94F71681E008950C9402170E94E423B5
:102E10000E94800880E00E947E110E94A7240E94E8
:102E2000A50FEAE7F5E080818068808380917A05CC
:102E300090917B050E9429220C94FA166F927F9242
:102E40008F929F92AF92BF92CF92DF92EF92FF92BA
:102E50000F931F93CF93DF93CDB7DEB72A970FB6AB
:102E6000F894DEBF0FBECDBF0E94E108782E0E940D
:102E70000417882309F479C043E7A42E42E0B42E56
:102E800010E000E0602E802F0E9472086C01F501B6
:102E9000819091905F018816990609F460C0809135
:102EA000090381FD0E947B0880E0EE24E394F12C6D
:102EB0008C249D2494012E213F21232B09F449C009
:102EC0008E836F82CE20DF2081E0CD2809F480E060
:102ED00088870E94ED238160782F9A8789874E81A9
:102EE0005F8168858A850E94DB17000F111FF8013A
:102EF000ED58FD4F80819181E826F926F182E0822C
:102F00000E94D80F0E94401371100E9416120E9456
:102F100021270E948116909172028917B9F10E94AF
:102F20008116809372022A960FB6F894DEBF0FBE08
:102F3000CDBFDF91CF911F910F91FF90EF90DF9068
:102F4000CF90BF90AF909F908F907F906F900C9498
:102F500054068F5FEE0CFF1C803109F0ABCF0F5F82
:102F60001F4F0430110509F08DCF8FEF89838A83BD
:102F70001B820E94ED238160782F9D838C83498181
:102F80005A816B818D810E94DB17BACF2A960FB6CA
:102F9000F894DEBF0FBECDBFDF91CF911F910F918F
:102FA000FF90EF90DF90CF90BF90AF909F908F9069
:102FB0007F906F900895CF93DF93CDB7DEB72B97B7
:102FC0000FB6F894DEBF0FBECDBF4F835887698719
:102FD0007A878B871E821D8285E0FE013796DE018F
:102FE000119601900D928A95E1F749815A816B8182
:102FF0007C818D819E812B960FB6F894DEBF0FBE2B
:10300000CDBFDF91CF910C94FA1DFC01808191819D
:103010000C94AF20CF93C82F882309F48BC082383B
:10302000C1F40E94811681FD85C089E30E94DD20E4
:103030000E944E212FEF81EE94E02150804090407D
:10304000E1F700C0000089E30E94E420CF910C94D6
:103050004E218338A1F40E94811680FD6BC083E568
:103060000E94DD200E944E212FEF81EE94E021503E
:1030700080409040E1F700C0000083E5E5CF843850
:10308000A1F40E94811682FD55C087E40E94DD20D4
:103090000E944E212FEF81EE94E02150804090401D
:1030A000E1F700C0000087E4CFCF8CEF8C0F813AAE
:1030B00090F46C2F80911E0190911F010E94C022FC
:1030C000882329F08C2F0E94E4200E944E218C2F0F
:1030D0000E94DD20BBCF80E28C0F883048F4C7709F
:1030E00081E001C0880FCA95EAF70E940521AECFA2
:1030F000EBE5EC0FE33040F4F0E0EE50FE4F808162
:1031000090E0CF910C94C216E8E5EC0FE73150F453
:10311000F0E0EE0FFF1FEC53FE4F80819181CF91C5
:103120000C94D816C03F30F08C2F0E944326CF91CC
:103130000C940627CF910895882309F452C0823851
:1031400071F40E94811681FF4CC089E30E94DD204A
:103150000E944E2189E30E94E4200C944E21833882
:1031600059F40E94811680FF3CC083E50E94DD2057
:103170000E944E2183E5EFCF843859F40E948116D6
:1031800082FF2FC087E40E94DD200E944E2187E449
:10319000E2CF9CEF980F913AF0F290E2980F9830BE
:1031A00050F4877091E001C0990F8A95EAF7892F52
:1031B0000E940B21D2CF9BE5980F933020F490E032
:1031C00080E00C94C21698E5980F973120F490E0B7
:1031D00080E00C94D816803F20F00E94A6260C9424
:1031E00006270895CF93C82F0E940A18C93349F4BF
:1031F0002FEF87EE93E0215080409040E1F700C030
:1032000000008C2FCF910C949C18882321F00E94F1
:1032100005210C944E210895882321F00E940B2152
:103220000C944E210895BF92CF92DF92EF92FF92BD
:103230000F931F93CF93DF936C01D62FC72FFC0101
:10324000058102950F70128111110E9422210E94A6
:10325000FB20E82E882391F01123D1F08C2F807F62
:10326000803421F080E28D0F883090F082E00E945F
:1032700099210E94FB2091E0E82EE926BC2EB29411
:103280009FE0B922EB2DF0E0E152F04D0C94C22EFC
:10329000E12CF4CF0C2F0F70C07F11F00295007F4E
:1032A0001123A9F0002359F080E28D0F883010F02F
:1032B000D11109C0802F0E9405210E944E218D2F1F
:1032C0000E940A1814C0802F0E941521F6CF8D2F5E
:1032D0000E949C18002359F080E28D0F883010F076
:1032E000D1112CC0802F0E940B210E944E212B2D2A
:1032F0002850330B2430310520F40E9481160E949F
:103300005406EE2009F49EC10E94F72080FD9AC168
:10331000F60112820E94F1200E947E1FC6010E94C7
:10332000431B0E94F120DF91CF911F910F91FF90DD
:10333000EF90DF90CF90BF900C949F1F802F0E9442
:103340001B21D3CFFC2FFF70FF2EC07FC03219F09E
:10335000F29480EFF822DD2369F0D13049F1112396
:1033600091F1002351F1F601858180FFA8CF8F7084
:10337000858323C0112381F0011106C00E943521ED
:103380008F290E940519B3CF0130C1F70E94352162
:103390008F290E943B21ABCF011106C00E9444211E
:1033A0008F2D0E940C19A3CF013009F4A0CFF6CFC6
:1033B000112329F0063008F09ACF8F2DE2CF053087
:1033C00008F095CFEDCF002359F3D93349F4FFEF3F
:1033D00027EE33E0F15020403040E1F700C000001C
:1033E0008D2F0E949C1883CF8C2F86958695837095
:1033F00069F0813009F07BCF8D2F9C2F93701111D4
:1034000002C090E080E00E94D81671CF8D2F9C2FD3
:103410009370111102C090E080E00E94C21667CF45
:103420008D2F112329F00E9443260E9406275FCF8B
:103430000E94A626FACF8C2F837009F041C011118B
:1034400056CF4D2F429546954770440F440F0D2F90
:103450000F7010E030E020E0042E04C0000F111FB8
:10346000221F331F0A94D2F760E070E0CB01D4FF33
:103470000FC06FE070E080E090E004C0660F771F3F
:10348000881F991F4A95D2F7609570958095909501
:10349000C695C695C370602B712B822B932BC230BF
:1034A00049F058F4C13019F00E94301F20CF0E941B
:1034B0001E1F1DCF0E94421F1ACF0E941C1F17CF34
:1034C0008695112311F08C2F8170882309F40FCF7A
:1034D0004D2F429546954770440F440F0D2F0F70A6
:1034E00010E030E020E0042E04C0000F111F221F66
:1034F000331F0A94D2F760E070E0CB01D4FF0FC015
:103500006FE070E080E090E004C0660F771F881FD6
:10351000991F4A95D2F76095709580959095C695BC
:10352000C695C370602B712B822B932BC23049F050
:1035300058F4C13019F00E94F51FD9CE0E94E31F44
:10354000D6CE0E940720D3CE0E94581FD0CECF7077
:10355000112329F08C2F0E947E1F8D2F12CF8D2FCB
:103560000E940C198C2F0E949F1FC1CED23F89F15F
:1035700060F4D03FC9F0D13F29F1112309F442C0D2
:1035800001119DCE8C2F8F7121C0D33F39F1D43FD3
:10359000A1F7112369F1CF718C2F0E947E1F63E088
:1035A0008C2F0E948421A3CE112341F0053008F016
:1035B0009ECE8C2F8F710E94C21F99CE063008F0CC
:1035C00096CEF7CF8C2F8F71112369F20E947E1F48
:1035D0008ECE8C2F8F711123C9F3C5CF112329F003
:1035E0008C2F8F710E94691F82CE0E94641F7FCE34
:1035F00081E00E949921023008F479CE82E00E9495
:10360000992175CE002359F0D93309F0E9CE8FEF17
:1036100097EEE3E081509040E040E1F7DFCE8C2F61
:103620008F71A1CF4C2F4F706D2FC6010E945C0689
:103630000E94941E5CCE4C2F4F706D2FC6010E94CD
:103640005F0655CEDF91CF911F910F91FF90EF90C4
:10365000DF90CF90BF9008950F931F93CF93DF9388
:10366000EC01688179818A810E94B9208C010E94D5
:1036700019200E941B1FB801CE01DF91CF911F912D
:103680000F910C941319CF93DF93EC018B819C81E4
:10369000892B29F08881998189238F3F59F4DF9103
:1036A000CF910895CE010E942C1BCE01DF91CF91C6
:1036B0000C94E605CE010E940B068111F3CF0E9407
:1036C000FB20882361F38A81882349F382E0DF911C
:1036D000CF910C9499210E9422210E9432210E94B4
:1036E0004E210E949B270E94062790E080E00E94C6
:1036F000C21690E080E00C94D8160E94EB200C9447
:103700006B1B0E9412210C947D1BE92FE295EF7038
:10371000E250EE3070F4F0E0E151F04D0C94C22E26
:10372000803F19F020F4883E20F481E00895843F22
:10373000E1F380E00895883EC0F3813FD1F7F5CFF3
:1037400093FB882780F908950E94AF200C94851B75
:10375000CF93DF9300D000D00F92CDB7DEB70F909C
:103760000F900F900F900F90DF91CF910895CF930E
:10377000DF9300D000D000D0CDB7DEB726960FB6CD
:10378000F894DEBF0FBECDBFDF91CF9108951F9398
:10379000CF93DF93C0917C0216E080917D028C1361
:1037A00004C0DF91CF911F910895D0E01C9FF001DC
:1037B0001D9FF00D1124E258FD4F4081518162811F
:1037C0007381848195810E94B71B2196C770E5CFD4
:1037D0004091AE025091AF026091B0027091B1027F
:1037E0008091B2029091B3020C94B71B1F93CF93B8
:1037F000DF938091B302807FA9F48091B002882387
:1038000089F080917C02C0917D026091AE0270913E
:10381000AF02A091B102B091B202D62FD72316E029
:10382000C81304C0DF91CF911F91089590E01097C5
:1038300011F0DF3F19F401968770F2CF189F9001C5
:10384000199F300D1124F901E258FD4F41814713B2
:10385000F2CF40814613EFCF42814111ECCF43813B
:1038600054814A1B5B0B483C510528F78091B302F9
:103870008F7080618093B302F901ED57FD4F808115
:103880008F70806180838EEA92E00E94431BDF91FB
:10389000CF911F910C94C71BAF92BF92CF92DF9232
:1038A000EF92FF920F931F93CF93DF93CDB7DEB7C5
:1038B00061970FB6F894DEBF0FBECDBF8C0185E0D7
:1038C000F801DE011D9601900D928A95E1F7F8014D
:1038D00040815181E2808EEAC82E82E0D82E60912C
:1038E000B1027091B2026115710509F461C1909144
:1038F000AE022091AF02892F82238F3F09F458C175
:10390000A380B480F090B002F501E61BF70BFF2016
:1039100009F4FCC08091B302382F307FE83CF105F8
:1039200008F0B2C0311179C0FE2C251323C09413C6
:1039300021C0E1101FC08F7080618093B3020E948C
:10394000E81BC6010E94431B8091B302F8018583E6
:103950008F2D61960FB6F894DEBF0FBECDBFDF91FD
:10396000CF911F910F91FF90EF90DF90CF90BF907C
:10397000AF900895AB2829F0842F85238F3F09F05D
:1039800033C180E0F82FF170DF2E80FF3CC08091C2
:103990007C0220917D0236E0821315C04D875E8740
:1039A0008D859E850E94AF20292F22952F70223071
:1039B000F0F0243018F59F70F1F0F8019581907FB8
:1039C000D1F4D12C1EC090E0389FF001399FF00D4A
:1039D0001124E258FD4F6181651306C060816413B4
:1039E00003C062816E110FC001968770D5CF9F70A2
:1039F00011F0882331F3805E883018F3C8010E94EB
:103A0000431BFD2CA5CFEE2009F4A2CF8091B30279
:103A100081608093B302F12C9BCF251306C09413D1
:103A200004C0F801EE2009F48DC04D875E878D85B6
:103A30009E850E94A41B882319F1EE2009F1809134
:103A4000B302803270F02091AE023091AF0238871D
:103A50002F831986BB86AA868C87CE0107960E9483
:103A6000431B86E0F801AEEAB2E001900D928A9520
:103A7000E1F70E94F61B0E94E81BFF24F39468CF35
:103A8000C8010E94431BF9CF311113C07A2DB98AA6
:103A9000A88A6E2D89890E94A81B8EEA92E00E9456
:103AA000431B86E0F60111928A95E9F70E94E81B14
:103AB000B2CF25130FC094130DC0E1100BC0F80155
:103AC0008583C8010E94431B86E0F60111928A9506
:103AD000E9F73ECF4D875E878D859E850E94A41BAA
:103AE000882371F2EE2061F28091B302803208F4F3
:103AF000B8CF2091AE023091AF023A8329831B8266
:103B0000BD82AC828E83CE010196A9CFE83CF1053F
:103B100008F041C0FE2CEE2009F4B2CF25132AC0D4
:103B2000941328C08091B30280FD1BC0982F907F12
:103B3000C1F0F8018583903F31F0982F907F905F1E
:103B40008F70892B8583C8010E94431B86E0F80192
:103B5000AEEAB2E001900D928A95E1F70E94E81B6F
:103B6000F7CE86E0F801AEEAB2E001900D928A95B8
:103B7000E1F7EECE4D875E878D859E850E94A41B62
:103B800081116FCF8091B30281608093B302C8012D
:103B90000E94431BDDCE7A2DB98AA88A6E2D8989B1
:103BA0000E94A81B86E0F60111928A95E9F7D6CF0C
:103BB000EE2009F465CF4D875E878D859E850E9436
:103BC000A41BF82E882309F45BCF86E0F801AEEA47
:103BD000B2E001900D928A95E1F78EEA92E00E94A0
:103BE00005180E94F61BBACF81E08E25CBCE88EC5B
:103BF00090E008951F93CF93DF93CDB7DEB72C9756
:103C00000FB6F894DEBF0FBECDBF4F8358876987CC
:103C10007A878B879C87CE0107960E944C1C88234D
:103C200069F08A859B85892B39F04F815885842FCF
:103C300085238F3F09F071C016E05FC086E0FE016A
:103C40003796DE01119601900D928A95E1F78A85EB
:103C50009B85892B89F388859F8189238F3F61F319
:103C600020917D0230E0C90101968770992740912B
:103C70007C024817190671F40E94811B10927D0284
:103C800010927C0286E0EEEAF2E0DF011D928A9556
:103C9000E9F7D2CF96E0929FD001939FB00D112407
:103CA000A258BD4FFE01319601900D929A95E1F711
:103CB00080937D020E94C71BBFCF819FC00111244A
:103CC00082589D4F0E944C1C8823E9F0E0917C02B1
:103CD0001E9FF0011124E258FD4F40815181628105
:103CE0007381848195810E94B71B80917C0290E052
:103CF00001968770992780937C0280917C02909135
:103D00007D028913DACF2C960FB6F894DEBF0FBE72
:103D1000CDBFDF91CF911F91089569857A858B85FD
:103D20009C850E94B71B88CFEF92FF920F931F9341
:103D3000CF93DF938C01892B81F0F12CEE24E39457
:103D4000E8012196F8018491843770F4843008F0FA
:103D50005FC08130B1F08230A1F1DF91CF911F912E
:103D60000F91FF90EF900895853709F44CC008F447
:103D70003DC09CE7980F903780F78F770E949C1882
:103D800049C00E5F1F4FFE01849190E2980F98305A
:103D900060F48770FE2D01C0FF0F8A95EAF78F2F20
:103DA0000E9425210E944E2102C00E940A188F2DD8
:103DB000815030F2EFE9FFE03197F1F700C00000E9
:103DC000F7CF0E5F1F4FFE01849190E2980F98305D
:103DD00050F48770FE2D01C0FF0F8A95EAF78F2FF0
:103DE0000E942B21DFCF0E949C18E1CF0E5F1F4F56
:103DF000FE01C491C150D8F28FE99FE00197F1F71D
:103E000000C00000F7CF0E5F1F4FFE01F490CFCF30
:103E10000E940A188E01CBCF08950C940C1F0E94AB
:103E20000D1F6093E0027093E1028093E202909391
:103E3000E3020C946B1B08950C940F1F0F931F93B8
:103E40000091E0021091E1022091E2023091E30240
:103E5000602B712B822B932B1F910F910C940F1FB2
:103E60000F931F930091E0021091E1022091E20272
:103E70003091E30260237123822393231F910F91DA
:103E80000C940F1F0F931F930091E0021091E10219
:103E90002091E2023091E302602771278227932765
:103EA0001F910F910C940F1F0C940C1F0C94541F16
:103EB0000E94561F6093DC027093DD028093DE0245
:103EC0009093DF020C946B1B60E070E0CB010C94CC
:103ED000581F0F931F9341E050E060E070E08A01AB
:103EE0009B0104C0000F111F221F331F8A95D2F7B8
:103EF000C901B8011F910F910C94581F0F931F9384
:103F000041E050E060E070E004C0440F551F661FC0
:103F1000771F8A95D2F78091DC029091DD02A09103
:103F2000DE02B091DF028A019B01082B192B2A2B9C
:103F30003B2BC901B8011F910F910C94581F0F938F
:103F40001F9341E050E060E070E004C0440F551F53
:103F5000661F771F8A95D2F7CB01BA0160957095DD
:103F6000809590950091DC021091DD022091DE0297
:103F70003091DF0260237123822393231F910F91DD
:103F80000C94581F0F931F9341E050E060E070E0E5
:103F900004C0440F551F661F771F8A95D2F7809182
:103FA000DC029091DD02A091DE02B091DF028A0175
:103FB0009B01082719272A273B27C901B8011F9110
:103FC0000F910C94581F0F931F930091DC021091D6
:103FD000DD022091DE023091DF02602B712B822BFB
:103FE000932B1F910F910C94581F0F931F930091C7
:103FF000DC021091DD022091DE023091DF026023AD
:104000007123822393231F910F910C94581F0F93B8
:104010001F930091DC021091DD022091DE023091AD
:10402000DF0260277127822793271F910F910C943D
:10403000581F08959295907F890F982F977041E0AF
:1040400001C0440F9A95EAF786958695869595E086
:10405000899FF0011124EC54FD4F30E020E070E026
:104060005191DF011197CB01022E02C096958795E1
:104070000A94E2F7817081958527842385278C93A4
:104080002F5F3F4F2530310559F708959295907F66
:10409000890F982F977086958695869525E0829F43
:1040A000F0011124EC54FD4F50E040E080E02191FC
:1040B00030E0092E02C0369527950A94E2F7217068
:1040C0003327042E01C0220F0A94EAF7822B4F5F98
:1040D0005F4F4530510559F70895BF92CF92DF9257
:1040E000EF92FF920F931F93CF93DF938C01C090B9
:1040F000DC02D090DD02E090DE02F090DF028091E1
:10410000E0029091E102A091E202B091E302C82A9C
:10411000D92AEA2AFB2ACFE1D0E0BC2ED701C6017A
:104120000C2E04C0B695A795979587950A94D2F75B
:1041300080FD0EC0219788F7B12C8B2DDF91CF9198
:104140001F910F91FF90EF90DF90CF90BF90089557
:10415000B8018C2F0E947D06019761F3EECFCF93BB
:10416000DF93EC010E946D20BE01DF91CF910C9492
:104170007D061F93CF93DF93EB0190917B029923F0
:1041800031F0CB01DF91CF911F910C94AF208823A8
:1041900079F0CB010E946D20182F682FCE010E946C
:1041A0001A20BE01812FDF91CF911F910C947D06C3
:1041B000CB010E944620182FF4CF682F80911E015A
:1041C00090911F010C944023682F80911E019091C3
:1041D0001F010C944B2380911E0190911F010C94A0
:1041E00056238091E4028595859585950895809163
:1041F000E402877008959091E402977081E009F4D9
:1042000080E0089580910803089590910803892B18
:1042100080930803089580959091080398239093C4
:104220000803089510920803089590910703892BBD
:1042300080930703089580959091070398239093A6
:104240000703089510920703089590910603892BA0
:104250008093060308958095909106039823909388
:10426000060308951092060308958091E5020895CB
:1042700008950C9438219091E502981721F08093CD
:10428000E5020C94392108958091E502882329F0F4
:104290001092E50280E00C9439210895E0911E010E
:1042A000F0911F01809108038083E0911E01F0913D
:1042B0001F01808190910703892B8083E0911E016B
:1042C000F0911F01808190910603892B808390914A
:1042D000E502992381F0E0911E01F0911F01808198
:1042E000892B808380911E0190911F010E94AC2236
:1042F00081110E94442180911E0190911F010C9414
:104300009A1608950C94812198E0899F90011124B8
:10431000622B6093E4020E947E1F8091E4028595E7
:10432000859585950C9482211092E40280E00C948E
:1043300082219091E402809589238093E402282FC2
:10434000277071F4282F082E000C330B92171306D8
:1043500039F08595859585950E949F1F0C94942131
:104360000895CF92DF92EF92FF926C01EE24FF242A
:1043700020E0C114D104E104F10419F0C701B60131
:1043800020E1C72ED82EE92EFF24C114D104E10468
:10439000F10419F0285FC701B6016B017C0154E0FC
:1043A000F694E794D794C7945A95D1F7C114D104E1
:1043B000E104F10419F02C5FC701B6016B017C0127
:1043C00042E0F694E794D794C7944A95D1F7C11484
:1043D000D104E104F10419F02E5FC701B6019695EE
:1043E000879577956795672B682B692B09F02F5F69
:1043F000822FFF90EF90DF90CF90089590E080E0C3
:104400000E94702F21E08C3E9E4F09F020E0822F09
:10441000089582E090E00C94622F682F82E090E093
:104420000C94762F83E090E00C94622F682F83E049
:1044300090E00C94762FCF9384E090E00E94622F5E
:10444000C82F81E290E00E94622F982F8C2FCF918D
:104450000895CF93C92F682F84E090E00E94762FB3
:104460006C2F81E290E0CF910C94762FAB01BC01D0
:104470008FE090E00C94882FAB01BC0183E190E0C9
:104480000C94882F60E070E0CB010C943C2260E03B
:1044900070E0CB010E9436220C9442226CEE7EEF3B
:1044A00090E080E00E94942F60E082E090E00E9423
:1044B000762F60E083E090E00E94762F1092E00279
:1044C0001092E1021092E2021092E30260E084E0B6
:1044D00090E00E94762F60E081E290E00E94762FCB
:1044E00060E085E090E00E94762F60E086E090E05A
:1044F0000E94762F6FEF87E090E00E94762F40E0D9
:1045000050E0BA0188E090E00E94882F60E08DE0E2
:1045100090E00E94762F40E050E0BA0188E190E000
:104520000E94882F60E087E190E00E94762F40E0B3
:1045300050E0BA018CE190E00E94882F60E080E2B8
:1045400090E00E94762F0C9447220C944E22682F04
:104550008EE090E00C94762FFC01329680914B0116
:10456000882321F080917A059EE187FF96E080E024
:10457000915008F4089521912223D1F38F5FF8CF51
:10458000662301F120914B012223F1F020917A055D
:1045900027FF1AC0462F4695469546954E3190F412
:1045A000677021E030E002C0220F331F6A95E2F706
:1045B000840F911DFC01828190E02823392381E042
:1045C000232B69F480E00895FC013296089621912E
:1045D000261721F0E817F907D1F7F4CF81E0089505
:1045E0009C01FC0132969FEF80E04191461751F00B
:1045F0009F3F19F4411101C0982F8F5F8630A9F7B2
:104600009F3F09F40895290F311D97FD3A95F9014F
:1046100062830895FC01329608962191261303C007
:10462000DF0111971C92E817F907B9F70895E62FF3
:10463000E695E695E695EE3168F4E80FF92FF11D61
:10464000677021E030E001C0220F6A95EAF78281AD
:10465000822B82830895E62FE695E695E695EE3166
:1046600070F4E80FF92FF11D677021E030E001C010
:10467000220F6A95EAF720958281282322830895E4
:1046800020914B01222329F020917A0527FD0C94DB
:1046900017230C94F02220914B01222329F0209122
:1046A0007A0527FD0C942B230C940A23FC013296E7
:1046B00080914B01882351F080917A0587FF06C0D5
:1046C0008EE1DF011D928A95E9F7089586E0F9CF22
:1046D000089508950C9469230E946A2380918005AF
:1046E000843049F110920A0388E190E020E40FB68B
:1046F000F894A895809360000FBE2093600080E03E
:104700000E9454060E946A2383B7817F846083BF1E
:1047100083B7816083BF7894889583B78E7F83BF8A
:104720000FB6F894A895809160008861809360002E
:10473000109260000FBE08950895CF930E946823E1
:104740000E94E1080E949C23C0E08C2F0E94720806
:10475000892B31F4CF5FC430C1F780E0CF91089549
:1047600081E0FCCF08950C94B2230E94811B0E942B
:1047700081160E9454060C94B3231F921FB61F92F9
:1047800011248F939F93AF93BF9380910A0381115C
:1047900013C08091760590917705A0917805B0912E
:1047A00079054196A11DB11D8093760590937705FB
:1047B000A0937805B0937905BF91AF919F918F91A8
:1047C0001F901FBE1F90189582E084BD93E095BD99
:1047D0009AEF97BD80936E0008952FB7F89480915B
:1047E000760590917705A0917805B09179052FBF56
:1047F00008952FB7F89460917605709177058091B0
:104800007805909179052FBF08959C014FB7F894D2
:104810008091760590917705A0917805B091790502
:104820004FBF821B930B089578941F921FB61F925F
:1048300011248F939F93AF93BF93809176059091AE
:104840007705A0917805B09179050196A11DB11D5C
:104850008093760590937705A0937805B0937905BA
:10486000BF91AF919F918F911F901FBE1F90189580
:1048700081E08093E00080E28093D8001092C9002C
:104880008FE19EE40197F1F700C0000087E090EB14
:10489000DC018093890590938A05A0938B05B093E2
:1048A0008C0588E19CE00FB6F894A8958093600091
:1048B0000FBE90936000FFCFAF92BF92CF92DF9276
:1048C000EF92FF920F931F93CF93C0E0CC24C39439
:1048D000D12CE82EF12C8C2F0E9472085C0110E084
:1048E00000E0C601002E02C0880F991F0A94E2F76B
:1048F0008A219B21892B99F40F5F1F4F00311105ED
:1049000081F7CF5FC43039F780E0CF911F910F91CD
:10491000FF90EF90DF90CF90BF90AF900895602F01
:104920007C2F80E00E946006E816F90629F781E0F6
:10493000ECCFCF93C82F8CE20E945C24882321F017
:104940008C2FCF910C945C2480E0CF910895CF936D
:104950000E94FE21811102C00E94A522C5E608C066
:104960000E94E1088FE39CE90197F1F700C0000085
:10497000C150B1F789E20E94992481110BC18AE2EA
:104980000E94992481110E94A52285E00E94992409
:1049900081110E9438240E9409228093090387E034
:1049A0000E949924882371F08BE10E949924882326
:1049B00009F4CDC090910903892F8D7F91FF82600A
:1049C00080930903809109030E940D220E941B22FB
:1049D00090937B0580937A0580EE0E94992488232A
:1049E00041F090917A05892F8E7F90FF81608093AE
:1049F0007A0589E30E949924882341F090917A05F1
:104A0000892F8D7F91FF826080937A0582EE0E94CC
:104A10009924882341F090917A05892F8B7F92FF0A
:104A2000846080937A0586EE0E949924882341F061
:104A300090917A05892F877F93FF886080937A050C
:104A400083EE0E949924882341F090917A05892F62
:104A50008F7E94FF806180937A0585E30E9499247C
:104A6000882341F090917A05892F8F7D95FF806290
:104A700080937A0581E30E949924882341F09091E4
:104A80007A05892F8F7B96FF806480937A0581E178
:104A90000E949924882341F090917A05892F97FBF1
:104AA00087F9805880937A0580917A0590917B05EB
:104AB0000E94292287E20E949924C82F8EE10E9439
:104AC00099248111C2608FE10E9499248111C460F0
:104AD00080E20E9499248111C86081E20E94992499
:104AE0008111C06182E20E9499248111C06283E237
:104AF0000E9499248111C06484E20E949924882331
:104B000009F442C0C0688C2F0E9416226C2F70E0FE
:104B100090E080E00E941C1F6091DC027091DD0239
:104B20008091DE029091DF020E94561F8FE00E946A
:104B30009924882319F081E00E94A72285E10E9430
:104B40009924882339F180E0CF910C94A7228EE03C
:104B50000E949924882339F090910903892F8B7F33
:104B600092FF84602DCF80E10E94992490910903E7
:104B7000882329F0892F877F93FF886021CF892F91
:104B80008E7F90FF81601CCFC111BDCF0E94122289
:104B9000682FBDCFCF9108958091400190E0880F9C
:104BA000991FFC01E85CFE4F2081885D9E4FFC014F
:104BB000808190911103191614F4209311039091A0
:104BC000110397FF04C0922F919590931103909138
:104BD0001203191614F4209312039091120397FFF5
:104BE00003C021952093120390911403191614F415
:104BF000809314039091140397FF04C0982F91950C
:104C00009093140390911303191614F480931303D3
:104C10009091130397FF03C0819580931303309104
:104C200011033323A1F020911203222381F045EBDD
:104C30003403C00111249923F1F09093110345EB43
:104C40002403900111243323D1F0309312034091B7
:104C50001403442379F030911303332359F025EBE7
:104C60004203A00111245093140332039001112434
:104C700030931303089581E080931103E0CF81E026
:104C800080931203E4CF40914001242F30E0220FA3
:104C9000331FF901E85CFE4F9081803F21F491952C
:104CA000909312030895813FD9F3823F21F49195A7
:104CB000909311030895833FD9F3285D3E4FF90186
:104CC0009081893F19F49093130308958A3F11F45A
:104CD0009195F9CF8B3F21F491959093140308950A
:104CE0008C3FD9F3843F31F480911003816080932D
:104CF00010030895853F21F4809110038260F7CF5F
:104D0000863F21F4809110038460F1CF873F21F426
:104D1000809110038860EBCF883F21F480911003CD
:104D20008061E5CF8D3F49F481E08093400180911F
:104D30004001481751F00C94CC258E3F11F482E0CD
:104D4000F4CF8F3F11F483E0F0CF0895803F39F422
:104D50008091120387FF29C0109212030895813FAA
:104D600029F4809112031816BCF30895823F39F498
:104D70008091110387FF19C0109211030895833F9A
:104D800029F4809111031816BCF30895893F39F472
:104D90008091130318164CF41092130308958A3F60
:104DA00029F48091130387FDF7CF08958B3F39F4E1
:104DB0008091140387FFF9CF1092140308958C3F5C
:104DC00029F4809114031816BCF30895843F31F43C
:104DD000809110038E7F80931003E7CF853F21F4ED
:104DE000809110038D7FF7CF863F21F480911003CF
:104DF0008B7FF1CF873F21F480911003877FEBCF2A
:104E0000883F99F6809110038F7EE5CF0E94ED23B5
:104E10009C019091110380911203982B21F0309303
:104E20000E0320930D039091130380911403982B8C
:104E300021F030930C0320930B038FE093E00C944C
:104E4000B416EF92FF920F931F93CF93DF9300D08E
:104E500000D000D0CDB7DEB786E0EFE0F3E0DE01B2
:104E6000119601900D928A95E1F7E0901103F09070
:104E70001203009113031091140310921103109266
:104E8000120310921303109214038E2D8F29B1F088
:104E900080910D0390910E030E940524E091400142
:104EA000F0E0EE0FFF1FE05DFE4F208131812817FB
:104EB000390720F4E0921103F0921203802F812B26
:104EC000B1F080910B0390910C030E940524E091B6
:104ED0004001F0E0EE0FFF1FE05EFE4F20813181C8
:104EE0002817390720F400931303109314038091BB
:104EF000110390911203892B90911303892B9091A8
:104F00001403892B11F00E94062786E0FE013196DA
:104F1000AFE0B3E001900D928A95E1F726960FB6C7
:104F2000F894DEBF0FBECDBFDF91CF911F910F91DF
:104F3000FF90EF90089586E0EFE0F3E0DF011D922F
:104F40008A95E9F70895809135030895CF93DF930B
:104F500000D00F92CDB7DEB790918005943019F54F
:104F600089837B836A8382E08093E9008FEF90914D
:104F7000E800815095FD06C095ED9A95F1F7000087
:104F80008111F5CF8091E80085FF0DC050E040E031
:104F900063E070E0CE0101960E94CD298091E80087
:104FA0008E778093E8000F900F900F90DF91CF9154
:104FB0000895BC0184E00C94A627BC0183E00C9406
:104FC000A6279C0182E08093E9009FEF8091E80092
:104FD000915085FD06C085ED8A95F1F7000091118D
:104FE000F5CF8091E80085FF0CC050E040E066E01E
:104FF00070E0C9010E94CD298091E8008E778093EE
:10500000E8000895CF93DF93EC0180914B01882352
:10501000B1F180917A0587FF32C060E282E080932F
:10502000E9008FEF9091E800815095FD06C095ED65
:105030009A95F1F700008111F5CF8091E80085FF86
:105040001BC080914B0170E050E040E0811104C032
:1050500050E040E068E070E0CE010E94CD298091F0
:10506000E8008E778093E80080E2FE01A5E1B3E0DE
:1050700001900D928A95E1F7DF91CF91089568E054
:1050800081E0CDCF80917F05811109C00E945D2B09
:105090000E94BA2B8091E20084608093E200089520
:1050A00010927F050895089508950C94B52342E069
:1050B00061EC81E00E94D92A42E261EC82E00C942A
:1050C000D92A80918205833009F45FC030F48130A1
:1050D000C1F1823009F49BC008958A3009F487C079
:1050E0008B3009F46DC0893009F04EC08091810584
:1050F000813209F049C0809185059091860502971B
:1051000008F042C08091E800877F8093E80080919A
:10511000E80082FF35C09091F3008091F200029781
:1051200029F48091F1008B7F813021F48091F1008E
:10513000809335038091E8008B778093E8000C948E
:105140000D2B80918105813AF9F48091E800877FE9
:105150008093E8008091850590918605892B61F404
:1051600060E285E193E070E00E941C2A8091E800F3
:105170008B778093E800089560E090E080E0F3CFC3
:10518000809180058111C3CF089580918105813A76
:10519000D9F78091850590918605892BA9F7809193
:1051A000E800877F8093E8008091E80080FFFCCFD3
:1051B00080914B018093F1008091E8008E77BDCF04
:1051C00080918105813201F7809185059091860556
:1051D000892BD1F68091E800877F8093E8000E94B8
:1051E0000D2B8091830580934B010C94811B809142
:1051F0008105813249F68091E800877F8093E8003D
:105200000E940D2B80918405809336030895809130
:105210008105813A09F0B8CF8091E800877F8093BB
:10522000E8008091E80080FFFCCF80913603C2CF78
:1052300084B7877F84BF0FB6F894A89580916000EB
:10524000886180936000109260000FBE80E890E05B
:105250000FB6F89480936100909361000FBE0E9496
:10526000FC160E945D2B0E94BA2B8091E2008460A4
:105270008093E20078940E94432E0E94061781E4F6
:1052800091E00E947C1680918005853019F00E9483
:105290001E17F9CF0E946C2380917E05882399F315
:1052A0000E949D23882379F30E94B729ECCF0C94A8
:1052B0005929292F33272330310519F168F421307A
:1052C000310509F44AC02230310509F44BC090E0A1
:1052D00080E030E020E028C02132310579F122322F
:1052E0003105A9F780E490E025E33AE06115710506
:1052F000D9F08CEB90E029E739E061307105A1F03D
:10530000E6CF99278130910599F0009741F08230DE
:10531000910589F00397D9F6EAEEF8E002C0E8E2D9
:10532000F9E0849190E09F01FA0131832083089590
:10533000EEE0F9E0F6CFE0EFF8E0F3CF89E090E0BF
:105340002EE339E06115710579F389E090E027E5F6
:1053500039E06130710541F3BACF82E190E027E690
:1053600039E0E2CF8BE390E02CE239E0DDCF80E161
:1053700089BD82E189BD09B400FEFDCF8091D800CE
:105380008F7D8093D8008091E00082608093E00060
:105390008091E00081FDFCCF0895AF92BF92CF9243
:1053A000DF92FF920F931F93CF93DF936C01EB017A
:1053B0008A010E942C2BF82E811123C001151105A2
:1053C00039F0F80180819181C81BD90BC80ED91E14
:1053D000B12CA12C2097A9F08091E80085FD22C076
:1053E0008091E8008E778093E80001151105A1F007
:1053F000F80180819181A80EB91EB182A08285E05A
:10540000F82E8F2DDF91CF911F910F91FF90DF909C
:10541000CF90BF90AF9008950E942C2B8823D1F29B
:10542000F82EEFCFF60181916F018093F100219763
:10543000FFEFAF1ABF0ACECFFC0180918705909194
:10544000880586179707A0F06115710529F49091DA
:10545000E8009E779093E80090E06115710551F4A3
:10546000911108C08091E80082FF34C080E0089567
:10547000BC01F2CF809180058823C1F18530C1F154
:105480008091E80083FD30C08091E80082FDEACF82
:105490008091E80080FFE1CF8091F3002091F2003D
:1054A000382F6115710519F02830310558F091E059
:1054B0002830310509F090E02091E8002E77209304
:1054C000E800CBCF81918093F100615071092F5F8B
:1054D0003F4FE7CF80918005882341F0853041F030
:1054E0008091E80083FFBECF81E0089582E00895B7
:1054F00083E00895FC0180918705909188058617C7
:105500009707A0F06115710529F48091E8008E7766
:105510008093E80090E06115710551F4911108C085
:105520008091E80082FF35C080E00895BC01F2CF91
:10553000809180058823C9F18530C9F18091E80008
:1055400083FD31C08091E80082FDEACF8091E800C0
:1055500080FFE1CF8091F3002091F200382F611598
:10556000710519F02830310558F091E028303105E7
:1055700009F090E08091E8008E778093E800CBCF2F
:1055800084918093F1003196615071092F5F3F4FF4
:10559000E6CF80918005882341F0853041F08091ED
:1055A000E80083FFBDCF81E0089582E0089583E0A5
:1055B0000895982F973028F08F708093E90081E04C
:1055C00008959093E900242F762F50E0981731F03A
:1055D0007091EC002091ED005091F00021FD02C08F
:1055E0009F5FE8CF3091EB003E7F3093EB0030912E
:1055F000ED003D7F3093ED003091EB003160309352
:10560000EB007093EC002093ED005093F00020919C
:10561000EE0027FDE5CF80E008958091810587FFAA
:1056200013C08091E80082FF06C08091E8008B776C
:105630008093E80004C0809180058111F2CF089525
:10564000809180058823D9F38091E80080FFF8CF0E
:105650008091E8008E77ECCF2091E4003091E50056
:1056600095E6A9012091EC00822F817020FF06C0F1
:105670008091E80080FF06C080E008952091E80056
:1056800022FD1AC080918005882389F0853089F039
:105690008091EB0085FD0FC02091E4003091E50082
:1056A00042175307F9F29150E1F684E0089582E041
:1056B000089583E0089581E008950E94CB2B0E9415
:1056C000D32BE0EEF0E0808181608083E8EDF0E0B4
:1056D00080818F77808319BCA7EDB0E08C918E7F9D
:1056E0008C9380818F7E808310927F0508950F9325
:1056F0001F93CF93DF930E94CB2B0E94D32BC8ED37
:10570000D0E088818F7788838881806888838881CA
:105710008F7D888319BC1092800510927C051092B1
:105720007E0510927D0500EE10E0F80180818B7FF0
:10573000808388818160888342E060E080E00E940D
:10574000D92AE1EEF0E080818E7F8083E2EEF0E006
:10575000808181608083808188608083F80180817E
:105760008E7F8083888180618883DF91CF911F91B4
:105770000F910895E8EDF0E080818F7E8083E7ED62
:10578000F0E080818160808384E082BF81E080934B
:105790007F050C94772BE8EDF0E080818E7F80838D
:1057A0001092E20008951092DA001092E10008953C
:1057B0001F920F920FB60F9211242F933F934F9386
:1057C0005F936F937F938F939F93AF93BF93EF9369
:1057D000FF938091E10082FF0BC08091E20082FF85
:1057E00007C08091E1008B7F8093E1000E94422EF0
:1057F0008091DA0080FF19C08091D80080FF15C029
:105800008091DA008E7F8093DA008091D90080FF4A
:1058100096C080E189BD82E189BD09B400FEFDCF5B
:1058200081E0809380050E9442288091E10080FF02
:1058300019C08091E20080FF15C08091E2008E7F48
:105840008093E2008091E20080618093E200809189
:10585000D80080628093D80019BC85E080938005D1
:105860000E9454288091E10084FF2BC08091E200C7
:1058700084FF27C080E189BD82E189BD89B5982F69
:10588000917080FFFBCF8091D8008F7D8093D800EE
:105890008091E1008F7E8093E1008091E2008F7E15
:1058A0008093E2008091E20081608093E200809129
:1058B0007C05882309F449C084E0809380050E9418
:1058C00055288091E10083FF29C08091E20083FF89
:1058D00025C08091E100877F8093E10082E0809382
:1058E000800510927C058091E1008E7F8093E1001D
:1058F0008091E2008E7F8093E2008091E2008061DF
:105900008093E20042E060E080E00E94D92A80912A
:10591000F00088608093F0000E945328FF91EF917F
:10592000BF91AF919F918F917F916F915F914F91B7
:105930003F912F910F900FBE0F901F90189519BC9B
:10594000109280050E94502870CF8091E30087FD5F
:1059500093E090938005B3CF1F920F920FB60F92F2
:1059600011242F933F934F935F936F937F938F9364
:105970009F93AF93BF93CF93DF93EF93FF93D09118
:10598000E900DF708091EC00C82FC17080FDC0E895
:105990001092E9008091F000877F8093F000789466
:1059A0000E94F02C1092E9008091F00088608093B2
:1059B000F000CD2BCF70C093E900FF91EF91DF9104
:1059C000CF91BF91AF919F918F917F916F915F9197
:1059D0004F913F912F910F900FBE0F901F901895F0
:1059E0001F93CF93DF93CDB7DEB7AA970FB6F89486
:1059F000DEBF0FBECDBF81E895E02091F100FC0134
:105A00002193CF01F5E089389F07B9F70E946128FB
:105A10008091E80083FF1EC18091810590918205ED
:105A20009A3008F017C1E92FF0E0E350F04D0C94E4
:105A3000C22E803899F0823809F00CC1809185051A
:105A40008F70873008F006C18093E9008091EB00E9
:105A500085FB882780F91092E90006C080917D05BA
:105A600090917E05911182609091E800977F9093CC
:105A7000E8008093F1001092F1008091E8008E77A9
:105A8000E5C0882309F4D3C0823009F0E3C08091D7
:105A900083058111D6C0809185058F702FEF280F67
:105AA000263008F0D7C08093E9002091EB0020FF5A
:105AB000C8C0933031F48091EB0080628093EB009A
:105AC000C0C09091EB0090619093EB0021E030E03A
:105AD00001C0220F8A95EAF72093EA001092EA00AB
